{
  "address": "0x1c9fD50dF7a4f066884b58A05D91e4b55005876A",
  "abi": [
    {
      "anonymous": false,
      "inputs": [
        {
          "indexed": true,
          "internalType": "uint256",
          "name": "dropId",
          "type": "uint256"
        }
      ],
      "name": "DropCreated",
      "type": "event"
    },
    {
      "anonymous": false,
      "inputs": [
        {
          "indexed": true,
          "internalType": "address",
          "name": "previousOwner",
          "type": "address"
        },
        {
          "indexed": true,
          "internalType": "address",
          "name": "newOwner",
          "type": "address"
        }
      ],
      "name": "OwnershipTransferred",
      "type": "event"
    },
    {
      "inputs": [
        {
          "internalType": "uint256",
          "name": "maxSupply",
          "type": "uint256"
        },
        {
          "internalType": "uint256",
          "name": "mintPrice",
          "type": "uint256"
        }
      ],
      "name": "createDrop",
      "outputs": [],
      "stateMutability": "nonpayable",
      "type": "function"
    },
    {
      "inputs": [
        {
          "internalType": "uint256",
          "name": "dropId",
          "type": "uint256"
        }
      ],
      "name": "getDrop",
      "outputs": [
        {
          "internalType": "contract SSHDrop",
          "name": "",
          "type": "address"
        }
      ],
      "stateMutability": "view",
      "type": "function"
    },
    {
      "inputs": [],
      "name": "getSupply",
      "outputs": [
        {
          "internalType": "uint256",
          "name": "",
          "type": "uint256"
        }
      ],
      "stateMutability": "view",
      "type": "function"
    },
    {
      "inputs": [],
      "name": "owner",
      "outputs": [
        {
          "internalType": "address",
          "name": "",
          "type": "address"
        }
      ],
      "stateMutability": "view",
      "type": "function"
    },
    {
      "inputs": [],
      "name": "renounceOwnership",
      "outputs": [],
      "stateMutability": "nonpayable",
      "type": "function"
    },
    {
      "inputs": [
        {
          "internalType": "address",
          "name": "newOwner",
          "type": "address"
        }
      ],
      "name": "transferOwnership",
      "outputs": [],
      "stateMutability": "nonpayable",
      "type": "function"
    }
  ],
  "transactionHash": "0x087a9a8f30932651fbff61da177dbd570e05dd0dea945bddc1a9af024464ab98",
  "args": [],
  "numDeployments": 1,
  "solcInputHash": "6c19b0d9f7ba625c77e91ac1f08648da",
  "bytecode": "0x6080604052600060025534801561001557600080fd5b5061001f33610024565b610074565b600080546001600160a01b038381166001600160a01b0319831681178455604051919092169283917f8be0079c531659141344cd1fd0a4f28419497f9722a3daafe3b4186f6b6457e09190a35050565b612a59806100836000396000f3fe60806040523480156200001157600080fd5b50600436106200006a5760003560e01c80636787d449146200006f5780636c9c2faf14620000b8578063715018a614620000ca5780638da5cb5b14620000d6578063adec9cdd14620000e8578063f2fde38b14620000ff575b600080fd5b6200009b6200008036600462000342565b6000908152600160205260409020546001600160a01b031690565b6040516001600160a01b0390911681526020015b60405180910390f35b600254604051908152602001620000af565b620000d462000116565b005b6000546001600160a01b03166200009b565b620000d4620000f93660046200035c565b6200015a565b620000d4620001103660046200037f565b62000242565b6000546001600160a01b031633146200014c5760405162461bcd60e51b81526004016200014390620003b1565b60405180910390fd5b620001586000620002e4565b565b6000546001600160a01b03163314620001875760405162461bcd60e51b81526004016200014390620003b1565b600060025490508083836040516200019f9062000334565b92835260208301919091526040820152606001604051809103906000f080158015620001cf573d6000803e3d6000fd5b50600082815260016020526040812080546001600160a01b0319166001600160a01b03939093169290921790915560028054916200020d83620003e6565b909155505060405181907f01a6d33d95d2560a8c53f00317beb1d0364b3ecf2d43f647d2b4671df27f4f4590600090a2505050565b6000546001600160a01b031633146200026f5760405162461bcd60e51b81526004016200014390620003b1565b6001600160a01b038116620002d65760405162461bcd60e51b815260206004820152602660248201527f4f776e61626c653a206e6577206f776e657220697320746865207a65726f206160448201526564647265737360d01b606482015260840162000143565b620002e181620002e4565b50565b600080546001600160a01b038381166001600160a01b0319831681178455604051919092169283917f8be0079c531659141344cd1fd0a4f28419497f9722a3daafe3b4186f6b6457e09190a35050565b61263e806200040f83390190565b6000602082840312156200035557600080fd5b5035919050565b600080604083850312156200037057600080fd5b50508035926020909101359150565b6000602082840312156200039257600080fd5b81356001600160a01b0381168114620003aa57600080fd5b9392505050565b6020808252818101527f4f776e61626c653a2063616c6c6572206973206e6f7420746865206f776e6572604082015260600190565b6000600182016200040757634e487b7160e01b600052601160045260246000fd5b506001019056fe60c06040523480156200001157600080fd5b506040516200263e3803806200263e83398101604081905262000034916200044b565b6040518060400160405280600e81526020016d029a9a4102620a12990222927a8160951b81525062000071846200015a60201b620010831760201c565b60405160200162000084929190620004b8565b604051602081830303815290604052604051806040016040528060058152602001640222927a8160dd1b815250620000c7856200015a60201b620010831760201c565b604051602001620000da929190620004b8565b60408051601f198184030181529190528151620000ff906000906020850190620003a5565b50805162000115906001906020840190620003a5565b505050620001326200012c6200027a60201b60201c565b6200027e565b608082905260a0819052600c805460ff191690556200015132620002d0565b505050620005e4565b606081600003620001825750506040805180820190915260018152600360fc1b602082015290565b8160005b8115620001b257806200019981620004e7565b9150620001aa9050600a8362000519565b915062000186565b6000816001600160401b03811115620001cf57620001cf62000530565b6040519080825280601f01601f191660200182016040528015620001fa576020820181803683370190505b5090505b841562000272576200021260018362000546565b915062000221600a8662000560565b6200022e90603062000577565b60f81b81838151811062000246576200024662000592565b60200101906001600160f81b031916908160001a9053506200026a600a8662000519565b9450620001fe565b949350505050565b3390565b600a80546001600160a01b038381166001600160a01b0319831681179093556040519116919082907f8be0079c531659141344cd1fd0a4f28419497f9722a3daafe3b4186f6b6457e090600090a35050565b600a546001600160a01b03163314620003305760405162461bcd60e51b815260206004820181905260248201527f4f776e61626c653a2063616c6c6572206973206e6f7420746865206f776e657260448201526064015b60405180910390fd5b6001600160a01b038116620003975760405162461bcd60e51b815260206004820152602660248201527f4f776e61626c653a206e6577206f776e657220697320746865207a65726f206160448201526564647265737360d01b606482015260840162000327565b620003a2816200027e565b50565b828054620003b390620005a8565b90600052602060002090601f016020900481019282620003d7576000855562000422565b82601f10620003f257805160ff191683800117855562000422565b8280016001018555821562000422579182015b828111156200042257825182559160200191906001019062000405565b506200043092915062000434565b5090565b5b8082111562000430576000815560010162000435565b6000806000606084860312156200046157600080fd5b8351925060208401519150604084015190509250925092565b6000815160005b818110156200049d576020818501810151868301520162000481565b81811115620004ad576000828601525b509290920192915050565b600062000272620004ca83866200047a565b846200047a565b634e487b7160e01b600052601160045260246000fd5b600060018201620004fc57620004fc620004d1565b5060010190565b634e487b7160e01b600052601260045260246000fd5b6000826200052b576200052b62000503565b500490565b634e487b7160e01b600052604160045260246000fd5b6000828210156200055b576200055b620004d1565b500390565b60008262000572576200057262000503565b500690565b600082198211156200058d576200058d620004d1565b500190565b634e487b7160e01b600052603260045260246000fd5b600181811c90821680620005bd57607f821691505b602082108103620005de57634e487b7160e01b600052602260045260246000fd5b50919050565b60805160a05161202662000618600039600081816104310152610a160152600081816104c401526109b101526120266000f3fe6080604052600436106101815760003560e01c80636352211e116100d1578063a035b1fe1161008a578063c87b56dd11610064578063c87b56dd14610495578063d5abeb01146104b5578063e985e9c5146104e8578063f2fde38b1461053157600080fd5b8063a035b1fe14610422578063a22cb46514610455578063b88d4fde1461047557600080fd5b80636352211e1461037857806370a0823114610398578063715018a6146103b85780638da5cb5b146103cd57806393e59dc1146103eb57806395d89b411461040d57600080fd5b806318160ddd1161013e5780632f745c59116101185780632f745c59146102be57806342842e0e146102de5780634f6ccce7146102fe5780634fe9f69f1461031e57600080fd5b806318160ddd1461025f578063200d2ed21461027e57806323b872dd1461029e57600080fd5b806301ffc9a71461018657806306fdde03146101bb578063081812fc146101dd578063095ea7b3146102155780630b3af7f9146102375780631249c58b14610257575b600080fd5b34801561019257600080fd5b506101a66101a1366004611a6b565b610551565b60405190151581526020015b60405180910390f35b3480156101c757600080fd5b506101d061057c565b6040516101b29190611ae0565b3480156101e957600080fd5b506101fd6101f8366004611af3565b61060e565b6040516001600160a01b0390911681526020016101b2565b34801561022157600080fd5b50610235610230366004611b28565b6106a8565b005b34801561024357600080fd5b50610235610252366004611b52565b6107bd565b61023561094b565b34801561026b57600080fd5b506008545b6040519081526020016101b2565b34801561028a57600080fd5b50600c5460ff166040516101b29190611b89565b3480156102aa57600080fd5b506102356102b9366004611bb1565b610aee565b3480156102ca57600080fd5b506102706102d9366004611b28565b610b1f565b3480156102ea57600080fd5b506102356102f9366004611bb1565b610bb5565b34801561030a57600080fd5b50610270610319366004611af3565b610bd0565b34801561032a57600080fd5b50610367610339366004611af3565b6040805160208082018352600091829052928152600d835281902081519283019091525460ff161515815290565b6040519051151581526020016101b2565b34801561038457600080fd5b506101fd610393366004611af3565b610c63565b3480156103a457600080fd5b506102706103b3366004611bed565b610cda565b3480156103c457600080fd5b50610235610d61565b3480156103d957600080fd5b50600a546001600160a01b03166101fd565b3480156103f757600080fd5b50610400610d97565b6040516101b29190611c08565b34801561041957600080fd5b506101d0610df8565b34801561042e57600080fd5b507f0000000000000000000000000000000000000000000000000000000000000000610270565b34801561046157600080fd5b50610235610470366004611c55565b610e07565b34801561048157600080fd5b50610235610490366004611ca7565b610ecb565b3480156104a157600080fd5b506101d06104b0366004611af3565b610f03565b3480156104c157600080fd5b507f0000000000000000000000000000000000000000000000000000000000000000610270565b3480156104f457600080fd5b506101a6610503366004611d83565b6001600160a01b03918216600090815260056020908152604080832093909416825291909152205460ff1690565b34801561053d57600080fd5b5061023561054c366004611bed565b610feb565b60006001600160e01b0319821663780e9d6360e01b148061057657506105768261118c565b92915050565b60606000805461058b90611db6565b80601f01602080910402602001604051908101604052809291908181526020018280546105b790611db6565b80156106045780601f106105d957610100808354040283529160200191610604565b820191906000526020600020905b8154815290600101906020018083116105e757829003601f168201915b5050505050905090565b6000818152600260205260408120546001600160a01b031661068c5760405162461bcd60e51b815260206004820152602c60248201527f4552433732313a20617070726f76656420717565727920666f72206e6f6e657860448201526b34b9ba32b73a103a37b5b2b760a11b60648201526084015b60405180910390fd5b506000908152600460205260409020546001600160a01b031690565b60006106b382610c63565b9050806001600160a01b0316836001600160a01b0316036107205760405162461bcd60e51b815260206004820152602160248201527f4552433732313a20617070726f76616c20746f2063757272656e74206f776e656044820152603960f91b6064820152608401610683565b336001600160a01b038216148061073c575061073c8133610503565b6107ae5760405162461bcd60e51b815260206004820152603860248201527f4552433732313a20617070726f76652063616c6c6572206973206e6f74206f7760448201527f6e6572206e6f7220617070726f76656420666f7220616c6c00000000000000006064820152608401610683565b6107b883836111dc565b505050565b600a546001600160a01b031633146107e75760405162461bcd60e51b815260040161068390611df0565b6000600c5460ff16600381111561080057610800611b73565b14801561081e5750600181600381111561081c5761081c611b73565b145b1561084a57600c805482919060ff1916600183600381111561084257610842611b73565b021790555050565b6001600c5460ff16600381111561086357610863611b73565b1480156108815750600281600381111561087f5761087f611b73565b145b156108a557600c805482919060ff1916600183600381111561084257610842611b73565b6002600c5460ff1660038111156108be576108be611b73565b1480156108dc575060038160038111156108da576108da611b73565b145b1561090057600c805482919060ff1916600183600381111561084257610842611b73565b60405162461bcd60e51b815260206004820152601960248201527f494e56414c49445f5354415455535f464f525f555044415445000000000000006044820152606401610683565b50565b6000600c5460ff16600381111561096457610964611b73565b036109a25760405162461bcd60e51b815260206004820152600e60248201526d494e56414c49445f53544154555360901b6044820152606401610683565b60006109ad60085490565b90507f0000000000000000000000000000000000000000000000000000000000000000808210610a145760405162461bcd60e51b815260206004820152601260248201527113505617d4d55414131657d4915050d2115160721b6044820152606401610683565b7f00000000000000000000000000000000000000000000000000000000000000003414610a755760405162461bcd60e51b815260206004820152600f60248201526e494e434f52524543545f46554e445360881b6044820152606401610683565b610a7f338361124a565b6040805160208082018352600182526000858152600d909152919091209051815460ff1916901515179055808203610abf57600c805460ff191660021790555b60405182907f176b02bb2d12439ff7a20b59f402cca16c76f50508b13ef3166a600eb719354a90600090a25050565b610af83382611268565b610b145760405162461bcd60e51b815260040161068390611e25565b6107b883838361135b565b6000610b2a83610cda565b8210610b8c5760405162461bcd60e51b815260206004820152602b60248201527f455243373231456e756d657261626c653a206f776e657220696e646578206f7560448201526a74206f6620626f756e647360a81b6064820152608401610683565b506001600160a01b03919091166000908152600660209081526040808320938352929052205490565b6107b883838360405180602001604052806000815250610ecb565b6000610bdb60085490565b8210610c3e5760405162461bcd60e51b815260206004820152602c60248201527f455243373231456e756d657261626c653a20676c6f62616c20696e646578206f60448201526b7574206f6620626f756e647360a01b6064820152608401610683565b60088281548110610c5157610c51611e76565b90600052602060002001549050919050565b6000818152600260205260408120546001600160a01b0316806105765760405162461bcd60e51b815260206004820152602960248201527f4552433732313a206f776e657220717565727920666f72206e6f6e657869737460448201526832b73a103a37b5b2b760b91b6064820152608401610683565b60006001600160a01b038216610d455760405162461bcd60e51b815260206004820152602a60248201527f4552433732313a2062616c616e636520717565727920666f7220746865207a65604482015269726f206164647265737360b01b6064820152608401610683565b506001600160a01b031660009081526003602052604090205490565b600a546001600160a01b03163314610d8b5760405162461bcd60e51b815260040161068390611df0565b610d956000611506565b565b6060600b80548060200260200160405190810160405280929190818152602001828054801561060457602002820191906000526020600020905b81546001600160a01b03168152600190910190602001808311610dd1575050505050905090565b60606001805461058b90611db6565b336001600160a01b03831603610e5f5760405162461bcd60e51b815260206004820152601960248201527f4552433732313a20617070726f766520746f2063616c6c6572000000000000006044820152606401610683565b3360008181526005602090815260408083206001600160a01b03871680855290835292819020805460ff191686151590811790915590519081529192917f17307eab39ab6107e8899845ad3d59bd9653f200f220920489ca2b5937696c31910160405180910390a35050565b610ed53383611268565b610ef15760405162461bcd60e51b815260040161068390611e25565b610efd84848484611558565b50505050565b6000818152600260205260409020546060906001600160a01b0316610f825760405162461bcd60e51b815260206004820152602f60248201527f4552433732314d657461646174613a2055524920717565727920666f72206e6f60448201526e3732bc34b9ba32b73a103a37b5b2b760891b6064820152608401610683565b6000610f9960408051602081019091526000815290565b90506000815111610fb95760405180602001604052806000815250610fe4565b80610fc384611083565b604051602001610fd4929190611e8c565b6040516020818303038152906040525b9392505050565b600a546001600160a01b031633146110155760405162461bcd60e51b815260040161068390611df0565b6001600160a01b03811661107a5760405162461bcd60e51b815260206004820152602660248201527f4f776e61626c653a206e6577206f776e657220697320746865207a65726f206160448201526564647265737360d01b6064820152608401610683565b61094881611506565b6060816000036110aa5750506040805180820190915260018152600360fc1b602082015290565b8160005b81156110d457806110be81611ed1565b91506110cd9050600a83611f00565b91506110ae565b60008167ffffffffffffffff8111156110ef576110ef611c91565b6040519080825280601f01601f191660200182016040528015611119576020820181803683370190505b5090505b84156111845761112e600183611f14565b915061113b600a86611f2b565b611146906030611f3f565b60f81b81838151811061115b5761115b611e76565b60200101906001600160f81b031916908160001a90535061117d600a86611f00565b945061111d565b949350505050565b60006001600160e01b031982166380ac58cd60e01b14806111bd57506001600160e01b03198216635b5e139f60e01b145b8061057657506301ffc9a760e01b6001600160e01b0319831614610576565b600081815260046020526040902080546001600160a01b0319166001600160a01b038416908117909155819061121182610c63565b6001600160a01b03167f8c5be1e5ebec7d5bd14f71427d1e84f3dd0314c0f7b2291e5b200ac8c7c3b92560405160405180910390a45050565b61126482826040518060200160405280600081525061158b565b5050565b6000818152600260205260408120546001600160a01b03166112e15760405162461bcd60e51b815260206004820152602c60248201527f4552433732313a206f70657261746f7220717565727920666f72206e6f6e657860448201526b34b9ba32b73a103a37b5b2b760a11b6064820152608401610683565b60006112ec83610c63565b9050806001600160a01b0316846001600160a01b031614806113275750836001600160a01b031661131c8461060e565b6001600160a01b0316145b8061118457506001600160a01b0380821660009081526005602090815260408083209388168352929052205460ff16611184565b826001600160a01b031661136e82610c63565b6001600160a01b0316146113d65760405162461bcd60e51b815260206004820152602960248201527f4552433732313a207472616e73666572206f6620746f6b656e2074686174206960448201526839903737ba1037bbb760b91b6064820152608401610683565b6001600160a01b0382166114385760405162461bcd60e51b8152602060048201526024808201527f4552433732313a207472616e7366657220746f20746865207a65726f206164646044820152637265737360e01b6064820152608401610683565b6114438383836115be565b61144e6000826111dc565b6001600160a01b0383166000908152600360205260408120805460019290611477908490611f14565b90915550506001600160a01b03821660009081526003602052604081208054600192906114a5908490611f3f565b909155505060008181526002602052604080822080546001600160a01b0319166001600160a01b0386811691821790925591518493918716917fddf252ad1be2c89b69c2b068fc378daa952ba7f163c4a11628f55a4df523b3ef91a4505050565b600a80546001600160a01b038381166001600160a01b0319831681179093556040519116919082907f8be0079c531659141344cd1fd0a4f28419497f9722a3daafe3b4186f6b6457e090600090a35050565b61156384848461135b565b61156f84848484611676565b610efd5760405162461bcd60e51b815260040161068390611f57565b6115958383611777565b6115a26000848484611676565b6107b85760405162461bcd60e51b815260040161068390611f57565b6001600160a01b0383166116195761161481600880546000838152600960205260408120829055600182018355919091527ff3f7a9fe364faab93b216da50a3214154f22a0a2b415b23a84c8169e8b636ee30155565b61163c565b816001600160a01b0316836001600160a01b03161461163c5761163c83826118c5565b6001600160a01b038216611653576107b881611962565b826001600160a01b0316826001600160a01b0316146107b8576107b88282611a11565b60006001600160a01b0384163b1561176c57604051630a85bd0160e11b81526001600160a01b0385169063150b7a02906116ba903390899088908890600401611fa9565b6020604051808303816000875af19250505080156116f5575060408051601f3d908101601f191682019092526116f291810190611fe6565b60015b611752573d808015611723576040519150601f19603f3d011682016040523d82523d6000602084013e611728565b606091505b50805160000361174a5760405162461bcd60e51b815260040161068390611f57565b805181602001fd5b6001600160e01b031916630a85bd0160e11b149050611184565b506001949350505050565b6001600160a01b0382166117cd5760405162461bcd60e51b815260206004820181905260248201527f4552433732313a206d696e7420746f20746865207a65726f20616464726573736044820152606401610683565b6000818152600260205260409020546001600160a01b0316156118325760405162461bcd60e51b815260206004820152601c60248201527f4552433732313a20746f6b656e20616c7265616479206d696e746564000000006044820152606401610683565b61183e600083836115be565b6001600160a01b0382166000908152600360205260408120805460019290611867908490611f3f565b909155505060008181526002602052604080822080546001600160a01b0319166001600160a01b03861690811790915590518392907fddf252ad1be2c89b69c2b068fc378daa952ba7f163c4a11628f55a4df523b3ef908290a45050565b600060016118d284610cda565b6118dc9190611f14565b60008381526007602052604090205490915080821461192f576001600160a01b03841660009081526006602090815260408083208584528252808320548484528184208190558352600790915290208190555b5060009182526007602090815260408084208490556001600160a01b039094168352600681528383209183525290812055565b60085460009061197490600190611f14565b6000838152600960205260408120546008805493945090928490811061199c5761199c611e76565b9060005260206000200154905080600883815481106119bd576119bd611e76565b60009182526020808320909101929092558281526009909152604080822084905585825281205560088054806119f5576119f5612003565b6001900381819060005260206000200160009055905550505050565b6000611a1c83610cda565b6001600160a01b039093166000908152600660209081526040808320868452825280832085905593825260079052919091209190915550565b6001600160e01b03198116811461094857600080fd5b600060208284031215611a7d57600080fd5b8135610fe481611a55565b60005b83811015611aa3578181015183820152602001611a8b565b83811115610efd5750506000910152565b60008151808452611acc816020860160208601611a88565b601f01601f19169290920160200192915050565b602081526000610fe46020830184611ab4565b600060208284031215611b0557600080fd5b5035919050565b80356001600160a01b0381168114611b2357600080fd5b919050565b60008060408385031215611b3b57600080fd5b611b4483611b0c565b946020939093013593505050565b600060208284031215611b6457600080fd5b813560048110610fe457600080fd5b634e487b7160e01b600052602160045260246000fd5b6020810160048310611bab57634e487b7160e01b600052602160045260246000fd5b91905290565b600080600060608486031215611bc657600080fd5b611bcf84611b0c565b9250611bdd60208501611b0c565b9150604084013590509250925092565b600060208284031215611bff57600080fd5b610fe482611b0c565b6020808252825182820181905260009190848201906040850190845b81811015611c495783516001600160a01b031683529284019291840191600101611c24565b50909695505050505050565b60008060408385031215611c6857600080fd5b611c7183611b0c565b915060208301358015158114611c8657600080fd5b809150509250929050565b634e487b7160e01b600052604160045260246000fd5b60008060008060808587031215611cbd57600080fd5b611cc685611b0c565b9350611cd460208601611b0c565b925060408501359150606085013567ffffffffffffffff80821115611cf857600080fd5b818701915087601f830112611d0c57600080fd5b813581811115611d1e57611d1e611c91565b604051601f8201601f19908116603f01168101908382118183101715611d4657611d46611c91565b816040528281528a6020848701011115611d5f57600080fd5b82602086016020830137600060208483010152809550505050505092959194509250565b60008060408385031215611d9657600080fd5b611d9f83611b0c565b9150611dad60208401611b0c565b90509250929050565b600181811c90821680611dca57607f821691505b602082108103611dea57634e487b7160e01b600052602260045260246000fd5b50919050565b6020808252818101527f4f776e61626c653a2063616c6c6572206973206e6f7420746865206f776e6572604082015260600190565b60208082526031908201527f4552433732313a207472616e736665722063616c6c6572206973206e6f74206f6040820152701ddb995c881b9bdc88185c1c1c9bdd9959607a1b606082015260800190565b634e487b7160e01b600052603260045260246000fd5b60008351611e9e818460208801611a88565b835190830190611eb2818360208801611a88565b01949350505050565b634e487b7160e01b600052601160045260246000fd5b600060018201611ee357611ee3611ebb565b5060010190565b634e487b7160e01b600052601260045260246000fd5b600082611f0f57611f0f611eea565b500490565b600082821015611f2657611f26611ebb565b500390565b600082611f3a57611f3a611eea565b500690565b60008219821115611f5257611f52611ebb565b500190565b60208082526032908201527f4552433732313a207472616e7366657220746f206e6f6e20455243373231526560408201527131b2b4bb32b91034b6b83632b6b2b73a32b960711b606082015260800190565b6001600160a01b0385811682528416602082015260408101839052608060608201819052600090611fdc90830184611ab4565b9695505050505050565b600060208284031215611ff857600080fd5b8151610fe481611a55565b634e487b7160e01b600052603160045260246000fdfea164736f6c634300080e000aa164736f6c634300080e000a",
  "devdoc": {
    "kind": "dev",
    "methods": {
      "createDrop(uint256,uint256)": {
        "details": "Create a DROP."
      },
      "getDrop(uint256)": {
        "details": "Return the DROP item matching the drop id."
      },
      "getSupply()": {
        "details": "Return the current supply."
      },
      "owner()": {
        "details": "Returns the address of the current owner."
      },
      "renounceOwnership()": {
        "details": "Leaves the contract without owner. It will not be possible to call `onlyOwner` functions anymore. Can only be called by the current owner. NOTE: Renouncing ownership will leave the contract without an owner, thereby removing any functionality that is only available to the owner."
      },
      "transferOwnership(address)": {
        "details": "Transfers ownership of the contract to a new account (`newOwner`). Can only be called by the current owner."
      }
    },
    "version": 1
  },
  "userdoc": {
    "kind": "user",
    "methods": {},
    "version": 1
  },
  "storageLayout": {
    "storage": [
      {
        "astId": 7,
        "contract": "contracts/Store.sol:SSHStore",
        "label": "_owner",
        "offset": 0,
        "slot": "0",
        "type": "t_address"
      },
      {
        "astId": 2022,
        "contract": "contracts/Store.sol:SSHStore",
        "label": "_drops",
        "offset": 0,
        "slot": "1",
        "type": "t_mapping(t_uint256,t_contract(SSHDrop)2362)"
      },
      {
        "astId": 2025,
        "contract": "contracts/Store.sol:SSHStore",
        "label": "TOTAL_SUPPLY",
        "offset": 0,
        "slot": "2",
        "type": "t_uint256"
      }
    ],
    "types": {
      "t_address": {
        "encoding": "inplace",
        "label": "address",
        "numberOfBytes": "20"
      },
      "t_contract(SSHDrop)2362": {
        "encoding": "inplace",
        "label": "contract SSHDrop",
        "numberOfBytes": "20"
      },
      "t_mapping(t_uint256,t_contract(SSHDrop)2362)": {
        "encoding": "mapping",
        "key": "t_uint256",
        "label": "mapping(uint256 => contract SSHDrop)",
        "numberOfBytes": "32",
        "value": "t_contract(SSHDrop)2362"
      },
      "t_uint256": {
        "encoding": "inplace",
        "label": "uint256",
        "numberOfBytes": "32"
      }
    }
  }
}