{
  "address": "0x45cB5F5D2cAf1F3Bc6ddCDC6a73a92F88ad07b25",
  "abi": [
    {
      "anonymous": false,
      "inputs": [
        {
          "indexed": true,
          "internalType": "address",
          "name": "previousOwner",
          "type": "address"
        },
        {
          "indexed": true,
          "internalType": "address",
          "name": "newOwner",
          "type": "address"
        }
      ],
      "name": "OwnershipTransferred",
      "type": "event"
    },
    {
      "inputs": [
        {
          "internalType": "uint256",
          "name": "maxSupply",
          "type": "uint256"
        },
        {
          "internalType": "uint256",
          "name": "mintPrice",
          "type": "uint256"
        }
      ],
      "name": "createDrop",
      "outputs": [],
      "stateMutability": "nonpayable",
      "type": "function"
    },
    {
      "inputs": [
        {
          "internalType": "uint256",
          "name": "dropId",
          "type": "uint256"
        }
      ],
      "name": "getDrop",
      "outputs": [
        {
          "internalType": "contract SSHDrop",
          "name": "",
          "type": "address"
        }
      ],
      "stateMutability": "view",
      "type": "function"
    },
    {
      "inputs": [],
      "name": "getSupply",
      "outputs": [
        {
          "internalType": "uint256",
          "name": "",
          "type": "uint256"
        }
      ],
      "stateMutability": "view",
      "type": "function"
    },
    {
      "inputs": [],
      "name": "owner",
      "outputs": [
        {
          "internalType": "address",
          "name": "",
          "type": "address"
        }
      ],
      "stateMutability": "view",
      "type": "function"
    },
    {
      "inputs": [],
      "name": "renounceOwnership",
      "outputs": [],
      "stateMutability": "nonpayable",
      "type": "function"
    },
    {
      "inputs": [
        {
          "internalType": "address",
          "name": "newOwner",
          "type": "address"
        }
      ],
      "name": "transferOwnership",
      "outputs": [],
      "stateMutability": "nonpayable",
      "type": "function"
    }
  ],
  "transactionHash": "0xb8896c710d069798bc84cedf0f2a37fd014257355ce6b591db65109c585589ec",
  "args": [],
  "numDeployments": 1,
  "solcInputHash": "c57eee8dc83a1c4ef5f7e8bbb15b729f",
  "bytecode": "0x6080604052600060025534801561001557600080fd5b5061001f33610024565b610074565b600080546001600160a01b038381166001600160a01b0319831681178455604051919092169283917f8be0079c531659141344cd1fd0a4f28419497f9722a3daafe3b4186f6b6457e09190a35050565b61251f806100836000396000f3fe608060405234801561001057600080fd5b50600436106100625760003560e01c80636787d449146100675780636c9c2faf146100ad578063715018a6146100be5780638da5cb5b146100c8578063adec9cdd146100d9578063f2fde38b146100ec575b600080fd5b6100906100753660046102ec565b6000908152600160205260409020546001600160a01b031690565b6040516001600160a01b0390911681526020015b60405180910390f35b6002546040519081526020016100a4565b6100c66100ff565b005b6000546001600160a01b0316610090565b6100c66100e7366004610305565b61013e565b6100c66100fa366004610327565b6101f3565b6000546001600160a01b031633146101325760405162461bcd60e51b815260040161012990610357565b60405180910390fd5b61013c600061028e565b565b6000546001600160a01b031633146101685760405162461bcd60e51b815260040161012990610357565b6000600254905080838360405161017e906102de565b92835260208301919091526040820152606001604051809103906000f0801580156101ad573d6000803e3d6000fd5b50600082815260016020526040812080546001600160a01b0319166001600160a01b03939093169290921790915560028054916101e98361038c565b9190505550505050565b6000546001600160a01b0316331461021d5760405162461bcd60e51b815260040161012990610357565b6001600160a01b0381166102825760405162461bcd60e51b815260206004820152602660248201527f4f776e61626c653a206e6577206f776e657220697320746865207a65726f206160448201526564647265737360d01b6064820152608401610129565b61028b8161028e565b50565b600080546001600160a01b038381166001600160a01b0319831681178455604051919092169283917f8be0079c531659141344cd1fd0a4f28419497f9722a3daafe3b4186f6b6457e09190a35050565b61215f80620003b483390190565b6000602082840312156102fe57600080fd5b5035919050565b6000806040838503121561031857600080fd5b50508035926020909101359150565b60006020828403121561033957600080fd5b81356001600160a01b038116811461035057600080fd5b9392505050565b6020808252818101527f4f776e61626c653a2063616c6c6572206973206e6f7420746865206f776e6572604082015260600190565b6000600182016103ac57634e487b7160e01b600052601160045260246000fd5b506001019056fe60c06040523480156200001157600080fd5b506040516200215f3803806200215f83398101604081905262000034916200035e565b6040518060400160405280600e81526020016d0a6a69040988284a64088a49ea0f60931b81525062000071846200014260201b62000d791760201c565b60405160200162000084929190620003cb565b60405160208183030381529060405260405180604001604052806005815260200164088a49ea0f60db1b815250620000c7856200014260201b62000d791760201c565b604051602001620000da929190620003cb565b60408051601f198184030181529190528151620000ff906000906020850190620002b8565b50805162000115906001906020840190620002b8565b505050620001326200012c6200026260201b60201c565b62000266565b60809190915260a05250620004f7565b6060816000036200016a5750506040805180820190915260018152600360fc1b602082015290565b8160005b81156200019a57806200018181620003fa565b9150620001929050600a836200042c565b91506200016e565b6000816001600160401b03811115620001b757620001b762000443565b6040519080825280601f01601f191660200182016040528015620001e2576020820181803683370190505b5090505b84156200025a57620001fa60018362000459565b915062000209600a8662000473565b620002169060306200048a565b60f81b8183815181106200022e576200022e620004a5565b60200101906001600160f81b031916908160001a90535062000252600a866200042c565b9450620001e6565b949350505050565b3390565b600a80546001600160a01b038381166001600160a01b0319831681179093556040519116919082907f8be0079c531659141344cd1fd0a4f28419497f9722a3daafe3b4186f6b6457e090600090a35050565b828054620002c690620004bb565b90600052602060002090601f016020900481019282620002ea576000855562000335565b82601f106200030557805160ff191683800117855562000335565b8280016001018555821562000335579182015b828111156200033557825182559160200191906001019062000318565b506200034392915062000347565b5090565b5b8082111562000343576000815560010162000348565b6000806000606084860312156200037457600080fd5b8351925060208401519150604084015190509250925092565b6000815160005b81811015620003b0576020818501810151868301520162000394565b81811115620003c0576000828601525b509290920192915050565b60006200025a620003dd83866200038d565b846200038d565b634e487b7160e01b600052601160045260246000fd5b6000600182016200040f576200040f620003e4565b5060010190565b634e487b7160e01b600052601260045260246000fd5b6000826200043e576200043e62000416565b500490565b634e487b7160e01b600052604160045260246000fd5b6000828210156200046e576200046e620003e4565b500390565b60008262000485576200048562000416565b500690565b60008219821115620004a057620004a0620003e4565b500190565b634e487b7160e01b600052603260045260246000fd5b600181811c90821680620004d057607f821691505b602082108103620004f157634e487b7160e01b600052602260045260246000fd5b50919050565b60805160a051611c3b62000524600039600061074f0152600081816103e301526106eb0152611c3b6000f3fe6080604052600436106101355760003560e01c80636352211e116100ab578063a22cb4651161006f578063a22cb46514610374578063b88d4fde14610394578063c87b56dd146103b4578063d5abeb01146103d4578063e985e9c514610407578063f2fde38b1461045057600080fd5b80636352211e146102ec57806370a082311461030c578063715018a61461032c5780638da5cb5b1461034157806395d89b411461035f57600080fd5b806318160ddd116100fd57806318160ddd146101f357806323b872dd146102125780632f745c591461023257806342842e0e146102525780634f6ccce7146102725780634fe9f69f1461029257600080fd5b806301ffc9a71461013a57806306fdde031461016f578063081812fc14610191578063095ea7b3146101c95780631249c58b146101eb575b600080fd5b34801561014657600080fd5b5061015a610155366004611761565b610470565b60405190151581526020015b60405180910390f35b34801561017b57600080fd5b5061018461049b565b60405161016691906117d6565b34801561019d57600080fd5b506101b16101ac3660046117e9565b61052d565b6040516001600160a01b039091168152602001610166565b3480156101d557600080fd5b506101e96101e436600461181e565b6105c7565b005b6101e96106dc565b3480156101ff57600080fd5b506008545b604051908152602001610166565b34801561021e57600080fd5b506101e961022d366004611848565b6107e2565b34801561023e57600080fd5b5061020461024d36600461181e565b610813565b34801561025e57600080fd5b506101e961026d366004611848565b6108a9565b34801561027e57600080fd5b5061020461028d3660046117e9565b6108c4565b34801561029e57600080fd5b506102db6102ad3660046117e9565b6040805160208082018352600091829052928152600b835281902081519283019091525460ff161515815290565b604051905115158152602001610166565b3480156102f857600080fd5b506101b16103073660046117e9565b610957565b34801561031857600080fd5b50610204610327366004611884565b6109ce565b34801561033857600080fd5b506101e9610a55565b34801561034d57600080fd5b50600a546001600160a01b03166101b1565b34801561036b57600080fd5b50610184610abb565b34801561038057600080fd5b506101e961038f36600461189f565b610aca565b3480156103a057600080fd5b506101e96103af3660046118f1565b610b8e565b3480156103c057600080fd5b506101846103cf3660046117e9565b610bc6565b3480156103e057600080fd5b507f0000000000000000000000000000000000000000000000000000000000000000610204565b34801561041357600080fd5b5061015a6104223660046119cd565b6001600160a01b03918216600090815260056020908152604080832093909416825291909152205460ff1690565b34801561045c57600080fd5b506101e961046b366004611884565b610cae565b60006001600160e01b0319821663780e9d6360e01b1480610495575061049582610e82565b92915050565b6060600080546104aa90611a00565b80601f01602080910402602001604051908101604052809291908181526020018280546104d690611a00565b80156105235780601f106104f857610100808354040283529160200191610523565b820191906000526020600020905b81548152906001019060200180831161050657829003601f168201915b5050505050905090565b6000818152600260205260408120546001600160a01b03166105ab5760405162461bcd60e51b815260206004820152602c60248201527f4552433732313a20617070726f76656420717565727920666f72206e6f6e657860448201526b34b9ba32b73a103a37b5b2b760a11b60648201526084015b60405180910390fd5b506000908152600460205260409020546001600160a01b031690565b60006105d282610957565b9050806001600160a01b0316836001600160a01b03160361063f5760405162461bcd60e51b815260206004820152602160248201527f4552433732313a20617070726f76616c20746f2063757272656e74206f776e656044820152603960f91b60648201526084016105a2565b336001600160a01b038216148061065b575061065b8133610422565b6106cd5760405162461bcd60e51b815260206004820152603860248201527f4552433732313a20617070726f76652063616c6c6572206973206e6f74206f7760448201527f6e6572206e6f7220617070726f76656420666f7220616c6c000000000000000060648201526084016105a2565b6106d78383610ed2565b505050565b60006106e760085490565b90507f0000000000000000000000000000000000000000000000000000000000000000811061074d5760405162461bcd60e51b815260206004820152601260248201527113505617d4d55414131657d4915050d2115160721b60448201526064016105a2565b7f000000000000000000000000000000000000000000000000000000000000000034146107ae5760405162461bcd60e51b815260206004820152600f60248201526e494e434f52524543545f46554e445360881b60448201526064016105a2565b6107b83382610f40565b6040805160208082018352600182526000938452600b905291209051815460ff1916901515179055565b6107ec3382610f5e565b6108085760405162461bcd60e51b81526004016105a290611a3a565b6106d7838383611051565b600061081e836109ce565b82106108805760405162461bcd60e51b815260206004820152602b60248201527f455243373231456e756d657261626c653a206f776e657220696e646578206f7560448201526a74206f6620626f756e647360a81b60648201526084016105a2565b506001600160a01b03919091166000908152600660209081526040808320938352929052205490565b6106d783838360405180602001604052806000815250610b8e565b60006108cf60085490565b82106109325760405162461bcd60e51b815260206004820152602c60248201527f455243373231456e756d657261626c653a20676c6f62616c20696e646578206f60448201526b7574206f6620626f756e647360a01b60648201526084016105a2565b6008828154811061094557610945611a8b565b90600052602060002001549050919050565b6000818152600260205260408120546001600160a01b0316806104955760405162461bcd60e51b815260206004820152602960248201527f4552433732313a206f776e657220717565727920666f72206e6f6e657869737460448201526832b73a103a37b5b2b760b91b60648201526084016105a2565b60006001600160a01b038216610a395760405162461bcd60e51b815260206004820152602a60248201527f4552433732313a2062616c616e636520717565727920666f7220746865207a65604482015269726f206164647265737360b01b60648201526084016105a2565b506001600160a01b031660009081526003602052604090205490565b600a546001600160a01b03163314610aaf5760405162461bcd60e51b815260206004820181905260248201527f4f776e61626c653a2063616c6c6572206973206e6f7420746865206f776e657260448201526064016105a2565b610ab960006111fc565b565b6060600180546104aa90611a00565b336001600160a01b03831603610b225760405162461bcd60e51b815260206004820152601960248201527f4552433732313a20617070726f766520746f2063616c6c65720000000000000060448201526064016105a2565b3360008181526005602090815260408083206001600160a01b03871680855290835292819020805460ff191686151590811790915590519081529192917f17307eab39ab6107e8899845ad3d59bd9653f200f220920489ca2b5937696c31910160405180910390a35050565b610b983383610f5e565b610bb45760405162461bcd60e51b81526004016105a290611a3a565b610bc08484848461124e565b50505050565b6000818152600260205260409020546060906001600160a01b0316610c455760405162461bcd60e51b815260206004820152602f60248201527f4552433732314d657461646174613a2055524920717565727920666f72206e6f60448201526e3732bc34b9ba32b73a103a37b5b2b760891b60648201526084016105a2565b6000610c5c60408051602081019091526000815290565b90506000815111610c7c5760405180602001604052806000815250610ca7565b80610c8684610d79565b604051602001610c97929190611aa1565b6040516020818303038152906040525b9392505050565b600a546001600160a01b03163314610d085760405162461bcd60e51b815260206004820181905260248201527f4f776e61626c653a2063616c6c6572206973206e6f7420746865206f776e657260448201526064016105a2565b6001600160a01b038116610d6d5760405162461bcd60e51b815260206004820152602660248201527f4f776e61626c653a206e6577206f776e657220697320746865207a65726f206160448201526564647265737360d01b60648201526084016105a2565b610d76816111fc565b50565b606081600003610da05750506040805180820190915260018152600360fc1b602082015290565b8160005b8115610dca5780610db481611ae6565b9150610dc39050600a83611b15565b9150610da4565b60008167ffffffffffffffff811115610de557610de56118db565b6040519080825280601f01601f191660200182016040528015610e0f576020820181803683370190505b5090505b8415610e7a57610e24600183611b29565b9150610e31600a86611b40565b610e3c906030611b54565b60f81b818381518110610e5157610e51611a8b565b60200101906001600160f81b031916908160001a905350610e73600a86611b15565b9450610e13565b949350505050565b60006001600160e01b031982166380ac58cd60e01b1480610eb357506001600160e01b03198216635b5e139f60e01b145b8061049557506301ffc9a760e01b6001600160e01b0319831614610495565b600081815260046020526040902080546001600160a01b0319166001600160a01b0384169081179091558190610f0782610957565b6001600160a01b03167f8c5be1e5ebec7d5bd14f71427d1e84f3dd0314c0f7b2291e5b200ac8c7c3b92560405160405180910390a45050565b610f5a828260405180602001604052806000815250611281565b5050565b6000818152600260205260408120546001600160a01b0316610fd75760405162461bcd60e51b815260206004820152602c60248201527f4552433732313a206f70657261746f7220717565727920666f72206e6f6e657860448201526b34b9ba32b73a103a37b5b2b760a11b60648201526084016105a2565b6000610fe283610957565b9050806001600160a01b0316846001600160a01b0316148061101d5750836001600160a01b03166110128461052d565b6001600160a01b0316145b80610e7a57506001600160a01b0380821660009081526005602090815260408083209388168352929052205460ff16610e7a565b826001600160a01b031661106482610957565b6001600160a01b0316146110cc5760405162461bcd60e51b815260206004820152602960248201527f4552433732313a207472616e73666572206f6620746f6b656e2074686174206960448201526839903737ba1037bbb760b91b60648201526084016105a2565b6001600160a01b03821661112e5760405162461bcd60e51b8152602060048201526024808201527f4552433732313a207472616e7366657220746f20746865207a65726f206164646044820152637265737360e01b60648201526084016105a2565b6111398383836112b4565b611144600082610ed2565b6001600160a01b038316600090815260036020526040812080546001929061116d908490611b29565b90915550506001600160a01b038216600090815260036020526040812080546001929061119b908490611b54565b909155505060008181526002602052604080822080546001600160a01b0319166001600160a01b0386811691821790925591518493918716917fddf252ad1be2c89b69c2b068fc378daa952ba7f163c4a11628f55a4df523b3ef91a4505050565b600a80546001600160a01b038381166001600160a01b0319831681179093556040519116919082907f8be0079c531659141344cd1fd0a4f28419497f9722a3daafe3b4186f6b6457e090600090a35050565b611259848484611051565b6112658484848461136c565b610bc05760405162461bcd60e51b81526004016105a290611b6c565b61128b838361146d565b611298600084848461136c565b6106d75760405162461bcd60e51b81526004016105a290611b6c565b6001600160a01b03831661130f5761130a81600880546000838152600960205260408120829055600182018355919091527ff3f7a9fe364faab93b216da50a3214154f22a0a2b415b23a84c8169e8b636ee30155565b611332565b816001600160a01b0316836001600160a01b0316146113325761133283826115bb565b6001600160a01b038216611349576106d781611658565b826001600160a01b0316826001600160a01b0316146106d7576106d78282611707565b60006001600160a01b0384163b1561146257604051630a85bd0160e11b81526001600160a01b0385169063150b7a02906113b0903390899088908890600401611bbe565b6020604051808303816000875af19250505080156113eb575060408051601f3d908101601f191682019092526113e891810190611bfb565b60015b611448573d808015611419576040519150601f19603f3d011682016040523d82523d6000602084013e61141e565b606091505b5080516000036114405760405162461bcd60e51b81526004016105a290611b6c565b805181602001fd5b6001600160e01b031916630a85bd0160e11b149050610e7a565b506001949350505050565b6001600160a01b0382166114c35760405162461bcd60e51b815260206004820181905260248201527f4552433732313a206d696e7420746f20746865207a65726f206164647265737360448201526064016105a2565b6000818152600260205260409020546001600160a01b0316156115285760405162461bcd60e51b815260206004820152601c60248201527f4552433732313a20746f6b656e20616c7265616479206d696e7465640000000060448201526064016105a2565b611534600083836112b4565b6001600160a01b038216600090815260036020526040812080546001929061155d908490611b54565b909155505060008181526002602052604080822080546001600160a01b0319166001600160a01b03861690811790915590518392907fddf252ad1be2c89b69c2b068fc378daa952ba7f163c4a11628f55a4df523b3ef908290a45050565b600060016115c8846109ce565b6115d29190611b29565b600083815260076020526040902054909150808214611625576001600160a01b03841660009081526006602090815260408083208584528252808320548484528184208190558352600790915290208190555b5060009182526007602090815260408084208490556001600160a01b039094168352600681528383209183525290812055565b60085460009061166a90600190611b29565b6000838152600960205260408120546008805493945090928490811061169257611692611a8b565b9060005260206000200154905080600883815481106116b3576116b3611a8b565b60009182526020808320909101929092558281526009909152604080822084905585825281205560088054806116eb576116eb611c18565b6001900381819060005260206000200160009055905550505050565b6000611712836109ce565b6001600160a01b039093166000908152600660209081526040808320868452825280832085905593825260079052919091209190915550565b6001600160e01b031981168114610d7657600080fd5b60006020828403121561177357600080fd5b8135610ca78161174b565b60005b83811015611799578181015183820152602001611781565b83811115610bc05750506000910152565b600081518084526117c281602086016020860161177e565b601f01601f19169290920160200192915050565b602081526000610ca760208301846117aa565b6000602082840312156117fb57600080fd5b5035919050565b80356001600160a01b038116811461181957600080fd5b919050565b6000806040838503121561183157600080fd5b61183a83611802565b946020939093013593505050565b60008060006060848603121561185d57600080fd5b61186684611802565b925061187460208501611802565b9150604084013590509250925092565b60006020828403121561189657600080fd5b610ca782611802565b600080604083850312156118b257600080fd5b6118bb83611802565b9150602083013580151581146118d057600080fd5b809150509250929050565b634e487b7160e01b600052604160045260246000fd5b6000806000806080858703121561190757600080fd5b61191085611802565b935061191e60208601611802565b925060408501359150606085013567ffffffffffffffff8082111561194257600080fd5b818701915087601f83011261195657600080fd5b813581811115611968576119686118db565b604051601f8201601f19908116603f01168101908382118183101715611990576119906118db565b816040528281528a60208487010111156119a957600080fd5b82602086016020830137600060208483010152809550505050505092959194509250565b600080604083850312156119e057600080fd5b6119e983611802565b91506119f760208401611802565b90509250929050565b600181811c90821680611a1457607f821691505b602082108103611a3457634e487b7160e01b600052602260045260246000fd5b50919050565b60208082526031908201527f4552433732313a207472616e736665722063616c6c6572206973206e6f74206f6040820152701ddb995c881b9bdc88185c1c1c9bdd9959607a1b606082015260800190565b634e487b7160e01b600052603260045260246000fd5b60008351611ab381846020880161177e565b835190830190611ac781836020880161177e565b01949350505050565b634e487b7160e01b600052601160045260246000fd5b600060018201611af857611af8611ad0565b5060010190565b634e487b7160e01b600052601260045260246000fd5b600082611b2457611b24611aff565b500490565b600082821015611b3b57611b3b611ad0565b500390565b600082611b4f57611b4f611aff565b500690565b60008219821115611b6757611b67611ad0565b500190565b60208082526032908201527f4552433732313a207472616e7366657220746f206e6f6e20455243373231526560408201527131b2b4bb32b91034b6b83632b6b2b73a32b960711b606082015260800190565b6001600160a01b0385811682528416602082015260408101839052608060608201819052600090611bf1908301846117aa565b9695505050505050565b600060208284031215611c0d57600080fd5b8151610ca78161174b565b634e487b7160e01b600052603160045260246000fdfea164736f6c634300080e000aa164736f6c634300080e000a",
  "devdoc": {
    "kind": "dev",
    "methods": {
      "createDrop(uint256,uint256)": {
        "details": "Create a DROP."
      },
      "getDrop(uint256)": {
        "details": "Return the DROP item matching the drop id."
      },
      "getSupply()": {
        "details": "Return the current supply."
      },
      "owner()": {
        "details": "Returns the address of the current owner."
      },
      "renounceOwnership()": {
        "details": "Leaves the contract without owner. It will not be possible to call `onlyOwner` functions anymore. Can only be called by the current owner. NOTE: Renouncing ownership will leave the contract without an owner, thereby removing any functionality that is only available to the owner."
      },
      "transferOwnership(address)": {
        "details": "Transfers ownership of the contract to a new account (`newOwner`). Can only be called by the current owner."
      }
    },
    "version": 1
  },
  "userdoc": {
    "kind": "user",
    "methods": {},
    "version": 1
  },
  "storageLayout": {
    "storage": [
      {
        "astId": 7,
        "contract": "contracts/Store.sol:SSHStore",
        "label": "_owner",
        "offset": 0,
        "slot": "0",
        "type": "t_address"
      },
      {
        "astId": 2022,
        "contract": "contracts/Store.sol:SSHStore",
        "label": "_drops",
        "offset": 0,
        "slot": "1",
        "type": "t_mapping(t_uint256,t_contract(SSHDrop)2214)"
      },
      {
        "astId": 2025,
        "contract": "contracts/Store.sol:SSHStore",
        "label": "TOTAL_SUPPLY",
        "offset": 0,
        "slot": "2",
        "type": "t_uint256"
      }
    ],
    "types": {
      "t_address": {
        "encoding": "inplace",
        "label": "address",
        "numberOfBytes": "20"
      },
      "t_contract(SSHDrop)2214": {
        "encoding": "inplace",
        "label": "contract SSHDrop",
        "numberOfBytes": "20"
      },
      "t_mapping(t_uint256,t_contract(SSHDrop)2214)": {
        "encoding": "mapping",
        "key": "t_uint256",
        "label": "mapping(uint256 => contract SSHDrop)",
        "numberOfBytes": "32",
        "value": "t_contract(SSHDrop)2214"
      },
      "t_uint256": {
        "encoding": "inplace",
        "label": "uint256",
        "numberOfBytes": "32"
      }
    }
  }
}