{
  "address": "0x248e0Ea2e484d0372470f5B70415c31dBBA37fe9",
  "abi": [
    {
      "anonymous": false,
      "inputs": [
        {
          "indexed": true,
          "internalType": "uint256",
          "name": "dropId",
          "type": "uint256"
        }
      ],
      "name": "DropCreated",
      "type": "event"
    },
    {
      "anonymous": false,
      "inputs": [
        {
          "indexed": true,
          "internalType": "address",
          "name": "previousOwner",
          "type": "address"
        },
        {
          "indexed": true,
          "internalType": "address",
          "name": "newOwner",
          "type": "address"
        }
      ],
      "name": "OwnershipTransferred",
      "type": "event"
    },
    {
      "inputs": [
        {
          "internalType": "uint256",
          "name": "maxSupply",
          "type": "uint256"
        },
        {
          "internalType": "uint256",
          "name": "mintPrice",
          "type": "uint256"
        },
        {
          "internalType": "uint8",
          "name": "versions",
          "type": "uint8"
        },
        {
          "internalType": "address",
          "name": "defaultItem",
          "type": "address"
        }
      ],
      "name": "createDrop",
      "outputs": [],
      "stateMutability": "nonpayable",
      "type": "function"
    },
    {
      "inputs": [
        {
          "internalType": "uint256",
          "name": "dropId",
          "type": "uint256"
        }
      ],
      "name": "getDrop",
      "outputs": [
        {
          "internalType": "contract SSHDrop",
          "name": "",
          "type": "address"
        }
      ],
      "stateMutability": "view",
      "type": "function"
    },
    {
      "inputs": [],
      "name": "getSupply",
      "outputs": [
        {
          "internalType": "uint256",
          "name": "",
          "type": "uint256"
        }
      ],
      "stateMutability": "view",
      "type": "function"
    },
    {
      "inputs": [],
      "name": "owner",
      "outputs": [
        {
          "internalType": "address",
          "name": "",
          "type": "address"
        }
      ],
      "stateMutability": "view",
      "type": "function"
    },
    {
      "inputs": [],
      "name": "renounceOwnership",
      "outputs": [],
      "stateMutability": "nonpayable",
      "type": "function"
    },
    {
      "inputs": [
        {
          "internalType": "address",
          "name": "newOwner",
          "type": "address"
        }
      ],
      "name": "transferOwnership",
      "outputs": [],
      "stateMutability": "nonpayable",
      "type": "function"
    }
  ],
  "transactionHash": "0x4dbe2f0bf7ed12d7c96f67ba205eb450d4fe29fca1790aed7806f9d834f4cfbd",
  "args": [],
  "numDeployments": 1,
  "solcInputHash": "3ab9ae0f6b2d62ecb3e4ea3785d5a4fc",
  "bytecode": "0x6080604052600060025534801561001557600080fd5b5061001f33610024565b610074565b600080546001600160a01b038381166001600160a01b0319831681178455604051919092169283917f8be0079c531659141344cd1fd0a4f28419497f9722a3daafe3b4186f6b6457e09190a35050565b612e7a806100836000396000f3fe60806040523480156200001157600080fd5b50600436106200006a5760003560e01c80636787d449146200006f5780636c9c2faf14620000b85780636da538ae14620000ca578063715018a614620000e35780638da5cb5b14620000ed578063f2fde38b14620000ff575b600080fd5b6200009b620000803660046200034d565b6000908152600160205260409020546001600160a01b031690565b6040516001600160a01b0390911681526020015b60405180910390f35b600254604051908152602001620000af565b620000e1620000db36600462000384565b62000116565b005b620000e1620001f8565b6000546001600160a01b03166200009b565b620000e162000110366004620003d6565b62000210565b6200012062000293565b6000600254905080858585856040516200013a906200033f565b9485526020850193909352604084019190915260ff1660608301526001600160a01b0316608082015260a001604051809103906000f08015801562000183573d6000803e3d6000fd5b50600082815260016020526040812080546001600160a01b0319166001600160a01b0393909316929092179091556002805491620001c183620003fb565b909155505060405181907f01a6d33d95d2560a8c53f00317beb1d0364b3ecf2d43f647d2b4671df27f4f4590600090a25050505050565b6200020262000293565b6200020e6000620002ef565b565b6200021a62000293565b6001600160a01b038116620002855760405162461bcd60e51b815260206004820152602660248201527f4f776e61626c653a206e6577206f776e657220697320746865207a65726f206160448201526564647265737360d01b60648201526084015b60405180910390fd5b6200029081620002ef565b50565b6000546001600160a01b031633146200020e5760405162461bcd60e51b815260206004820181905260248201527f4f776e61626c653a2063616c6c6572206973206e6f7420746865206f776e657260448201526064016200027c565b600080546001600160a01b038381166001600160a01b0319831681178455604051919092169283917f8be0079c531659141344cd1fd0a4f28419497f9722a3daafe3b4186f6b6457e09190a35050565b612a4a806200042483390190565b6000602082840312156200036057600080fd5b5035919050565b80356001600160a01b03811681146200037f57600080fd5b919050565b600080600080608085870312156200039b57600080fd5b8435935060208501359250604085013560ff81168114620003bb57600080fd5b9150620003cb6060860162000367565b905092959194509250565b600060208284031215620003e957600080fd5b620003f48262000367565b9392505050565b6000600182016200041c57634e487b7160e01b600052601160045260246000fd5b506001019056fe610140604081905260006101208190526200001d91600b916200044a565b503480156200002b57600080fd5b5060405162002a4a38038062002a4a8339810160408190526200004e91620004f0565b6040518060400160405280600e81526020016d029a9a4102620a12990222927a8160951b8152506200008b866200018560201b620011551760201c565b6040516020016200009e9291906200058b565b6040516020818303038152906040526040518060400160405280600681526020016544524f50202360d01b815250620000e2876200018560201b620011551760201c565b604051602001620000f59291906200058b565b60408051601f1981840301815291905281516200011a9060009060208501906200044a565b508051620001309060019060208401906200044a565b5050506200014d620001476200022960201b60201c565b6200022d565b608085905260a084905260c083905260e08290526001600160a01b038116610100526200017a326200027f565b5050505050620005fe565b606060006200019f836200030260201b620011e81760201c565b60010190506000816001600160401b03811115620001c157620001c1620005ac565b6040519080825280601f01601f191660200182016040528015620001ec576020820181803683370190505b5090508181016020015b600019016f181899199a1a9b1b9c1cb0b131b232b360811b600a86061a8153600a8504945084620001f657509392505050565b3390565b600a80546001600160a01b038381166001600160a01b0319831681179093556040519116919082907f8be0079c531659141344cd1fd0a4f28419497f9722a3daafe3b4186f6b6457e090600090a35050565b62000289620003ec565b6001600160a01b038116620002f45760405162461bcd60e51b815260206004820152602660248201527f4f776e61626c653a206e6577206f776e657220697320746865207a65726f206160448201526564647265737360d01b60648201526084015b60405180910390fd5b620002ff816200022d565b50565b6000807a184f03e93ff9f4daa797ed6e38ed64bf6a1f01000000000000000083106200034c577a184f03e93ff9f4daa797ed6e38ed64bf6a1f010000000000000000830492506040015b6d04ee2d6d415b85acef8100000000831062000379576d04ee2d6d415b85acef8100000000830492506020015b662386f26fc1000083106200039857662386f26fc10000830492506010015b6305f5e1008310620003b1576305f5e100830492506008015b6127108310620003c657612710830492506004015b60648310620003d9576064830492506002015b600a8310620003e6576001015b92915050565b600a546001600160a01b03163314620004485760405162461bcd60e51b815260206004820181905260248201527f4f776e61626c653a2063616c6c6572206973206e6f7420746865206f776e65726044820152606401620002eb565b565b8280546200045890620005c2565b90600052602060002090601f0160209004810192826200047c5760008555620004c7565b82601f106200049757805160ff1916838001178555620004c7565b82800160010185558215620004c7579182015b82811115620004c7578251825591602001919060010190620004aa565b50620004d5929150620004d9565b5090565b5b80821115620004d55760008155600101620004da565b600080600080600060a086880312156200050957600080fd5b855160208701516040880151606089015160808a0151939850919650945092506001600160a01b03811681146200053f57600080fd5b809150509295509295909350565b6000815160005b8181101562000570576020818501810151868301520162000554565b8181111562000580576000828601525b509290920192915050565b6000620005a46200059d83866200054d565b846200054d565b949350505050565b634e487b7160e01b600052604160045260246000fd5b600181811c90821680620005d757607f821691505b602082108103620005f857634e487b7160e01b600052602260045260246000fd5b50919050565b60805160a05160c05160e051610100516123f96200065160003960006101d601526000610e820152600081816104c30152610ee60152600081816105690152610e1d0152600061030a01526123f96000f3fe6080604052600436106101c25760003560e01c80636352211e116100f7578063a0712d6811610095578063d5abeb0111610064578063d5abeb011461055a578063e985e9c51461058d578063edc5d158146105d6578063f2fde38b146105f657600080fd5b8063a0712d68146104e7578063a22cb465146104fa578063b88d4fde1461051a578063c87b56dd1461053a57600080fd5b806379575294116100d157806379575294146104615780638da5cb5b1461048157806395d89b411461049f578063a035b1fe146104b457600080fd5b80636352211e1461040c57806370a082311461042c578063715018a61461044c57600080fd5b806323b872dd11610164578063361c60361161013e578063361c60361461034e57806342842e0e1461036e5780634f6ccce71461038e5780634fe9f69f146103ae57600080fd5b806323b872dd146102db5780632a778c9b146102fb5780632f745c591461032e57600080fd5b8063081812fc116101a0578063081812fc14610265578063095ea7b31461028557806317f38959146102a757806318160ddd146102bc57600080fd5b806301852613146101c757806301ffc9a71461021357806306fdde0314610243575b600080fd5b3480156101d357600080fd5b507f00000000000000000000000000000000000000000000000000000000000000005b6040516001600160a01b0390911681526020015b60405180910390f35b34801561021f57600080fd5b5061023361022e366004611e68565b610616565b604051901515815260200161020a565b34801561024f57600080fd5b50610258610641565b60405161020a9190611edd565b34801561027157600080fd5b506101f6610280366004611ef0565b6106d3565b34801561029157600080fd5b506102a56102a0366004611f1e565b6106fa565b005b3480156102b357600080fd5b50610258610814565b3480156102c857600080fd5b506008545b60405190815260200161020a565b3480156102e757600080fd5b506102a56102f6366004611f4a565b610823565b34801561030757600080fd5b507f00000000000000000000000000000000000000000000000000000000000000006102cd565b34801561033a57600080fd5b506102cd610349366004611f1e565b610854565b34801561035a57600080fd5b506102a5610369366004611f8b565b6108ea565b34801561037a57600080fd5b506102a5610389366004611f4a565b610b7c565b34801561039a57600080fd5b506102cd6103a9366004611ef0565b610b97565b3480156103ba57600080fd5b506103ce6103c9366004611ef0565b610c2a565b60405161020a9190815115158152602080830151908201526040808301516001600160a01b0316908201526060918201519181019190915260800190565b34801561041857600080fd5b506101f6610427366004611ef0565b610ce6565b34801561043857600080fd5b506102cd610447366004611fb2565b610d46565b34801561045857600080fd5b506102a5610dcc565b34801561046d57600080fd5b506102a561047c36600461205b565b610de0565b34801561048d57600080fd5b50600a546001600160a01b03166101f6565b3480156104ab57600080fd5b50610258610dff565b3480156104c057600080fd5b507f00000000000000000000000000000000000000000000000000000000000000006102cd565b6102a56104f5366004611ef0565b610e0e565b34801561050657600080fd5b506102a56105153660046120a4565b610fef565b34801561052657600080fd5b506102a56105353660046120e2565b610ffa565b34801561054657600080fd5b50610258610555366004611ef0565b611032565b34801561056657600080fd5b507f00000000000000000000000000000000000000000000000000000000000000006102cd565b34801561059957600080fd5b506102336105a8366004612162565b6001600160a01b03918216600090815260056020908152604080832093909416825291909152205460ff1690565b3480156105e257600080fd5b506102a56105f1366004612162565b6110a6565b34801561060257600080fd5b506102a5610611366004611fb2565b6110dc565b60006001600160e01b0319821663780e9d6360e01b148061063b575061063b826112c0565b92915050565b60606000805461065090612190565b80601f016020809104026020016040519081016040528092919081815260200182805461067c90612190565b80156106c95780601f1061069e576101008083540402835291602001916106c9565b820191906000526020600020905b8154815290600101906020018083116106ac57829003601f168201915b5050505050905090565b60006106de82611310565b506000908152600460205260409020546001600160a01b031690565b600061070582610ce6565b9050806001600160a01b0316836001600160a01b0316036107775760405162461bcd60e51b815260206004820152602160248201527f4552433732313a20617070726f76616c20746f2063757272656e74206f776e656044820152603960f91b60648201526084015b60405180910390fd5b336001600160a01b0382161480610793575061079381336105a8565b6108055760405162461bcd60e51b815260206004820152603d60248201527f4552433732313a20617070726f76652063616c6c6572206973206e6f7420746f60448201527f6b656e206f776e6572206f7220617070726f76656420666f7220616c6c000000606482015260840161076e565b61080f838361136f565b505050565b6060600b805461065090612190565b61082d33826113dd565b6108495760405162461bcd60e51b815260040161076e906121ca565b61080f83838361145c565b600061085f83610d46565b82106108c15760405162461bcd60e51b815260206004820152602b60248201527f455243373231456e756d657261626c653a206f776e657220696e646578206f7560448201526a74206f6620626f756e647360a81b606482015260840161076e565b506001600160a01b03919091166000908152600660209081526040808320938352929052205490565b60006108f560085490565b905080841061093e5760405162461bcd60e51b81526020600482015260156024820152741513d2d1538812510813d5550813d1881093d55391605a1b604482015260640161076e565b6040516331a9108f60e11b81526004810185905232903090636352211e90602401602060405180830381865afa15801561097c573d6000803e3d6000fd5b505050506040513d601f19601f820116820180604052508101906109a09190612217565b6001600160a01b0316146109c65760405162461bcd60e51b815260040161076e90612234565b6001600160a01b038084166000908152600d60205260409020541680610a7c576040516331a9108f60e11b81526004810184905232906001600160a01b03861690636352211e90602401602060405180830381865afa158015610a2d573d6000803e3d6000fd5b505050506040513d601f19601f82011682018060405250810190610a519190612217565b6001600160a01b031614610a775760405162461bcd60e51b815260040161076e90612234565b610b0f565b6040516331a9108f60e11b81526004810184905232906001600160a01b03831690636352211e906024016020604051808303816000875af1158015610ac5573d6000803e3d6000fd5b505050506040513d601f19601f82011682018060405250810190610ae99190612217565b6001600160a01b031614610b0f5760405162461bcd60e51b815260040161076e90612234565b6000858152600c60205260408082206002810180546001600160a01b0319166001600160a01b03891617905560038101869055805460ff191681559051909187917fe0ff833392b9f001daba1da86ad0f9c9ab3f34ddd5a7dc6f7d3dffee0df8110e9190a2505050505050565b61080f83838360405180602001604052806000815250610ffa565b6000610ba260085490565b8210610c055760405162461bcd60e51b815260206004820152602c60248201527f455243373231456e756d657261626c653a20676c6f62616c20696e646578206f60448201526b7574206f6620626f756e647360a01b606482015260840161076e565b60088281548110610c1857610c1861225b565b90600052602060002001549050919050565b6040805160808101825260008082526020820181905291810182905260608101919091526008548210610c935760405162461bcd60e51b8152602060048201526011602482015270125390d3d4949150d517d513d2d1539251607a1b604482015260640161076e565b506000908152600c60209081526040918290208251608081018452815460ff161515815260018201549281019290925260028101546001600160a01b031692820192909252600390910154606082015290565b6000818152600260205260408120546001600160a01b03168061063b5760405162461bcd60e51b8152602060048201526018602482015277115490cdcc8c4e881a5b9d985b1a59081d1bdad95b88125160421b604482015260640161076e565b60006001600160a01b038216610db05760405162461bcd60e51b815260206004820152602960248201527f4552433732313a2061646472657373207a65726f206973206e6f7420612076616044820152683634b21037bbb732b960b91b606482015260840161076e565b506001600160a01b031660009081526003602052604090205490565b610dd46115cd565b610dde6000611627565b565b610de86115cd565b8051610dfb90600b906020840190611db9565b5050565b60606001805461065090612190565b6000610e1960085490565b90507f0000000000000000000000000000000000000000000000000000000000000000808210610e805760405162461bcd60e51b815260206004820152601260248201527113505617d4d55414131657d4915050d2115160721b604482015260640161076e565b7f0000000000000000000000000000000000000000000000000000000000000000831115610ee45760405162461bcd60e51b815260206004820152601160248201527024a721a7a92922a1aa2fab22a929a4a7a760791b604482015260640161076e565b7f00000000000000000000000000000000000000000000000000000000000000003414610f455760405162461bcd60e51b815260206004820152600f60248201526e494e434f52524543545f46554e445360881b604482015260640161076e565b610f4f3383611679565b6040805160808101825260018082526020808301878152600084860181815260608601828152898352600c9094528682209551865460ff1916901515178655915193850193909355516002840180546001600160a01b0319166001600160a01b0390921691909117905551600390920191909155905183917f176b02bb2d12439ff7a20b59f402cca16c76f50508b13ef3166a600eb719354a91a2505050565b610dfb338383611693565b61100433836113dd565b6110205760405162461bcd60e51b815260040161076e906121ca565b61102c84848484611761565b50505050565b606061103d82611310565b600061105460408051602081019091526000815290565b90506000815111611074576040518060200160405280600081525061109f565b8061107e84611155565b60405160200161108f929190612271565b6040516020818303038152906040525b9392505050565b6110ae6115cd565b6001600160a01b039182166000908152600d6020526040902080546001600160a01b03191691909216179055565b6110e46115cd565b6001600160a01b0381166111495760405162461bcd60e51b815260206004820152602660248201527f4f776e61626c653a206e6577206f776e657220697320746865207a65726f206160448201526564647265737360d01b606482015260840161076e565b61115281611627565b50565b60606000611162836111e8565b600101905060008167ffffffffffffffff81111561118257611182611fcf565b6040519080825280601f01601f1916602001820160405280156111ac576020820181803683370190505b5090508181016020015b600019016f181899199a1a9b1b9c1cb0b131b232b360811b600a86061a8153600a85049450846111b657509392505050565b60008072184f03e93ff9f4daa797ed6e38ed64bf6a1f0160401b83106112275772184f03e93ff9f4daa797ed6e38ed64bf6a1f0160401b830492506040015b6d04ee2d6d415b85acef81000000008310611253576d04ee2d6d415b85acef8100000000830492506020015b662386f26fc10000831061127157662386f26fc10000830492506010015b6305f5e1008310611289576305f5e100830492506008015b612710831061129d57612710830492506004015b606483106112af576064830492506002015b600a831061063b5760010192915050565b60006001600160e01b031982166380ac58cd60e01b14806112f157506001600160e01b03198216635b5e139f60e01b145b8061063b57506301ffc9a760e01b6001600160e01b031983161461063b565b6000818152600260205260409020546001600160a01b03166111525760405162461bcd60e51b8152602060048201526018602482015277115490cdcc8c4e881a5b9d985b1a59081d1bdad95b88125160421b604482015260640161076e565b600081815260046020526040902080546001600160a01b0319166001600160a01b03841690811790915581906113a482610ce6565b6001600160a01b03167f8c5be1e5ebec7d5bd14f71427d1e84f3dd0314c0f7b2291e5b200ac8c7c3b92560405160405180910390a45050565b6000806113e983610ce6565b9050806001600160a01b0316846001600160a01b0316148061143057506001600160a01b0380821660009081526005602090815260408083209388168352929052205460ff165b806114545750836001600160a01b0316611449846106d3565b6001600160a01b0316145b949350505050565b826001600160a01b031661146f82610ce6565b6001600160a01b0316146114955760405162461bcd60e51b815260040161076e906122a0565b6001600160a01b0382166114f75760405162461bcd60e51b8152602060048201526024808201527f4552433732313a207472616e7366657220746f20746865207a65726f206164646044820152637265737360e01b606482015260840161076e565b6115048383836001611794565b826001600160a01b031661151782610ce6565b6001600160a01b03161461153d5760405162461bcd60e51b815260040161076e906122a0565b600081815260046020908152604080832080546001600160a01b03199081169091556001600160a01b0387811680865260038552838620805460001901905590871680865283862080546001019055868652600290945282852080549092168417909155905184937fddf252ad1be2c89b69c2b068fc378daa952ba7f163c4a11628f55a4df523b3ef91a4505050565b600a546001600160a01b03163314610dde5760405162461bcd60e51b815260206004820181905260248201527f4f776e61626c653a2063616c6c6572206973206e6f7420746865206f776e6572604482015260640161076e565b600a80546001600160a01b038381166001600160a01b0319831681179093556040519116919082907f8be0079c531659141344cd1fd0a4f28419497f9722a3daafe3b4186f6b6457e090600090a35050565b610dfb8282604051806020016040528060008152506118d4565b816001600160a01b0316836001600160a01b0316036116f45760405162461bcd60e51b815260206004820152601960248201527f4552433732313a20617070726f766520746f2063616c6c657200000000000000604482015260640161076e565b6001600160a01b03838116600081815260056020908152604080832094871680845294825291829020805460ff191686151590811790915591519182527f17307eab39ab6107e8899845ad3d59bd9653f200f220920489ca2b5937696c31910160405180910390a3505050565b61176c84848461145c565b61177884848484611907565b61102c5760405162461bcd60e51b815260040161076e906122e5565b6117a084848484611a08565b600181111561180f5760405162461bcd60e51b815260206004820152603560248201527f455243373231456e756d657261626c653a20636f6e7365637574697665207472604482015274185b9cd9995c9cc81b9bdd081cdd5c1c1bdc9d1959605a1b606482015260840161076e565b816001600160a01b03851661186b5761186681600880546000838152600960205260408120829055600182018355919091527ff3f7a9fe364faab93b216da50a3214154f22a0a2b415b23a84c8169e8b636ee30155565b61188e565b836001600160a01b0316856001600160a01b03161461188e5761188e8582611a90565b6001600160a01b0384166118aa576118a581611b2d565b6118cd565b846001600160a01b0316846001600160a01b0316146118cd576118cd8482611bdc565b5050505050565b6118de8383611c20565b6118eb6000848484611907565b61080f5760405162461bcd60e51b815260040161076e906122e5565b60006001600160a01b0384163b156119fd57604051630a85bd0160e11b81526001600160a01b0385169063150b7a029061194b903390899088908890600401612337565b6020604051808303816000875af1925050508015611986575060408051601f3d908101601f1916820190925261198391810190612374565b60015b6119e3573d8080156119b4576040519150601f19603f3d011682016040523d82523d6000602084013e6119b9565b606091505b5080516000036119db5760405162461bcd60e51b815260040161076e906122e5565b805181602001fd5b6001600160e01b031916630a85bd0160e11b149050611454565b506001949350505050565b600181111561102c576001600160a01b03841615611a4e576001600160a01b03841660009081526003602052604081208054839290611a489084906123a7565b90915550505b6001600160a01b0383161561102c576001600160a01b03831660009081526003602052604081208054839290611a859084906123be565b909155505050505050565b60006001611a9d84610d46565b611aa791906123a7565b600083815260076020526040902054909150808214611afa576001600160a01b03841660009081526006602090815260408083208584528252808320548484528184208190558352600790915290208190555b5060009182526007602090815260408084208490556001600160a01b039094168352600681528383209183525290812055565b600854600090611b3f906001906123a7565b60008381526009602052604081205460088054939450909284908110611b6757611b6761225b565b906000526020600020015490508060088381548110611b8857611b8861225b565b6000918252602080832090910192909255828152600990915260408082208490558582528120556008805480611bc057611bc06123d6565b6001900381819060005260206000200160009055905550505050565b6000611be783610d46565b6001600160a01b039093166000908152600660209081526040808320868452825280832085905593825260079052919091209190915550565b6001600160a01b038216611c765760405162461bcd60e51b815260206004820181905260248201527f4552433732313a206d696e7420746f20746865207a65726f2061646472657373604482015260640161076e565b6000818152600260205260409020546001600160a01b031615611cdb5760405162461bcd60e51b815260206004820152601c60248201527f4552433732313a20746f6b656e20616c7265616479206d696e74656400000000604482015260640161076e565b611ce9600083836001611794565b6000818152600260205260409020546001600160a01b031615611d4e5760405162461bcd60e51b815260206004820152601c60248201527f4552433732313a20746f6b656e20616c7265616479206d696e74656400000000604482015260640161076e565b6001600160a01b038216600081815260036020908152604080832080546001019055848352600290915280822080546001600160a01b0319168417905551839291907fddf252ad1be2c89b69c2b068fc378daa952ba7f163c4a11628f55a4df523b3ef908290a45050565b828054611dc590612190565b90600052602060002090601f016020900481019282611de75760008555611e2d565b82601f10611e0057805160ff1916838001178555611e2d565b82800160010185558215611e2d579182015b82811115611e2d578251825591602001919060010190611e12565b50611e39929150611e3d565b5090565b5b80821115611e395760008155600101611e3e565b6001600160e01b03198116811461115257600080fd5b600060208284031215611e7a57600080fd5b813561109f81611e52565b60005b83811015611ea0578181015183820152602001611e88565b8381111561102c5750506000910152565b60008151808452611ec9816020860160208601611e85565b601f01601f19169290920160200192915050565b60208152600061109f6020830184611eb1565b600060208284031215611f0257600080fd5b5035919050565b6001600160a01b038116811461115257600080fd5b60008060408385031215611f3157600080fd5b8235611f3c81611f09565b946020939093013593505050565b600080600060608486031215611f5f57600080fd5b8335611f6a81611f09565b92506020840135611f7a81611f09565b929592945050506040919091013590565b600080600060608486031215611fa057600080fd5b833592506020840135611f7a81611f09565b600060208284031215611fc457600080fd5b813561109f81611f09565b634e487b7160e01b600052604160045260246000fd5b600067ffffffffffffffff8084111561200057612000611fcf565b604051601f8501601f19908116603f0116810190828211818310171561202857612028611fcf565b8160405280935085815286868601111561204157600080fd5b858560208301376000602087830101525050509392505050565b60006020828403121561206d57600080fd5b813567ffffffffffffffff81111561208457600080fd5b8201601f8101841361209557600080fd5b61145484823560208401611fe5565b600080604083850312156120b757600080fd5b82356120c281611f09565b9150602083013580151581146120d757600080fd5b809150509250929050565b600080600080608085870312156120f857600080fd5b843561210381611f09565b9350602085013561211381611f09565b925060408501359150606085013567ffffffffffffffff81111561213657600080fd5b8501601f8101871361214757600080fd5b61215687823560208401611fe5565b91505092959194509250565b6000806040838503121561217557600080fd5b823561218081611f09565b915060208301356120d781611f09565b600181811c908216806121a457607f821691505b6020821081036121c457634e487b7160e01b600052602260045260246000fd5b50919050565b6020808252602d908201527f4552433732313a2063616c6c6572206973206e6f7420746f6b656e206f776e6560408201526c1c881bdc88185c1c1c9bdd9959609a1b606082015260800190565b60006020828403121561222957600080fd5b815161109f81611f09565b6020808252600d908201526c24a72b20a624a22fa7aba722a960991b604082015260600190565b634e487b7160e01b600052603260045260246000fd5b60008351612283818460208801611e85565b835190830190612297818360208801611e85565b01949350505050565b60208082526025908201527f4552433732313a207472616e736665722066726f6d20696e636f72726563742060408201526437bbb732b960d91b606082015260800190565b60208082526032908201527f4552433732313a207472616e7366657220746f206e6f6e20455243373231526560408201527131b2b4bb32b91034b6b83632b6b2b73a32b960711b606082015260800190565b6001600160a01b038581168252841660208201526040810183905260806060820181905260009061236a90830184611eb1565b9695505050505050565b60006020828403121561238657600080fd5b815161109f81611e52565b634e487b7160e01b600052601160045260246000fd5b6000828210156123b9576123b9612391565b500390565b600082198211156123d1576123d1612391565b500190565b634e487b7160e01b600052603160045260246000fdfea164736f6c634300080e000aa164736f6c634300080e000a",
  "devdoc": {
    "kind": "dev",
    "methods": {
      "createDrop(uint256,uint256,uint8,address)": {
        "details": "Create a DROP."
      },
      "getDrop(uint256)": {
        "details": "Return the DROP item matching the drop id."
      },
      "getSupply()": {
        "details": "Return the current supply."
      },
      "owner()": {
        "details": "Returns the address of the current owner."
      },
      "renounceOwnership()": {
        "details": "Leaves the contract without owner. It will not be possible to call `onlyOwner` functions anymore. Can only be called by the current owner. NOTE: Renouncing ownership will leave the contract without an owner, thereby removing any functionality that is only available to the owner."
      },
      "transferOwnership(address)": {
        "details": "Transfers ownership of the contract to a new account (`newOwner`). Can only be called by the current owner."
      }
    },
    "version": 1
  },
  "userdoc": {
    "kind": "user",
    "methods": {},
    "version": 1
  },
  "storageLayout": {
    "storage": [
      {
        "astId": 7,
        "contract": "contracts/Store.sol:SSHStore",
        "label": "_owner",
        "offset": 0,
        "slot": "0",
        "type": "t_address"
      },
      {
        "astId": 3049,
        "contract": "contracts/Store.sol:SSHStore",
        "label": "_drops",
        "offset": 0,
        "slot": "1",
        "type": "t_mapping(t_uint256,t_contract(SSHDrop)3518)"
      },
      {
        "astId": 3052,
        "contract": "contracts/Store.sol:SSHStore",
        "label": "TOTAL_SUPPLY",
        "offset": 0,
        "slot": "2",
        "type": "t_uint256"
      }
    ],
    "types": {
      "t_address": {
        "encoding": "inplace",
        "label": "address",
        "numberOfBytes": "20"
      },
      "t_contract(SSHDrop)3518": {
        "encoding": "inplace",
        "label": "contract SSHDrop",
        "numberOfBytes": "20"
      },
      "t_mapping(t_uint256,t_contract(SSHDrop)3518)": {
        "encoding": "mapping",
        "key": "t_uint256",
        "label": "mapping(uint256 => contract SSHDrop)",
        "numberOfBytes": "32",
        "value": "t_contract(SSHDrop)3518"
      },
      "t_uint256": {
        "encoding": "inplace",
        "label": "uint256",
        "numberOfBytes": "32"
      }
    }
  }
}