{
  "address": "0x248e0Ea2e484d0372470f5B70415c31dBBA37fe9",
  "abi": [
    {
      "anonymous": false,
      "inputs": [
        {
          "indexed": true,
          "internalType": "uint256",
          "name": "dropId",
          "type": "uint256"
        }
      ],
      "name": "DropCreated",
      "type": "event"
    },
    {
      "anonymous": false,
      "inputs": [
        {
          "indexed": true,
          "internalType": "address",
          "name": "previousOwner",
          "type": "address"
        },
        {
          "indexed": true,
          "internalType": "address",
          "name": "newOwner",
          "type": "address"
        }
      ],
      "name": "OwnershipTransferred",
      "type": "event"
    },
    {
      "inputs": [
        {
          "internalType": "uint256",
          "name": "maxSupply",
          "type": "uint256"
        },
        {
          "internalType": "uint256",
          "name": "mintPrice",
          "type": "uint256"
        },
        {
          "internalType": "uint8",
          "name": "versions",
          "type": "uint8"
        }
      ],
      "name": "createDrop",
      "outputs": [],
      "stateMutability": "nonpayable",
      "type": "function"
    },
    {
      "inputs": [
        {
          "internalType": "uint256",
          "name": "dropId",
          "type": "uint256"
        }
      ],
      "name": "getDrop",
      "outputs": [
        {
          "internalType": "contract SSHDrop",
          "name": "",
          "type": "address"
        }
      ],
      "stateMutability": "view",
      "type": "function"
    },
    {
      "inputs": [],
      "name": "getSupply",
      "outputs": [
        {
          "internalType": "uint256",
          "name": "",
          "type": "uint256"
        }
      ],
      "stateMutability": "view",
      "type": "function"
    },
    {
      "inputs": [],
      "name": "owner",
      "outputs": [
        {
          "internalType": "address",
          "name": "",
          "type": "address"
        }
      ],
      "stateMutability": "view",
      "type": "function"
    },
    {
      "inputs": [],
      "name": "renounceOwnership",
      "outputs": [],
      "stateMutability": "nonpayable",
      "type": "function"
    },
    {
      "inputs": [
        {
          "internalType": "address",
          "name": "newOwner",
          "type": "address"
        }
      ],
      "name": "transferOwnership",
      "outputs": [],
      "stateMutability": "nonpayable",
      "type": "function"
    }
  ],
  "transactionHash": "0x9de18dedc07c022994ac4d69ddb25547948e4da5359eff9c948986dba6d57a35",
  "args": [],
  "numDeployments": 1,
  "solcInputHash": "a68eb28c505630532a08892b94e4ee51",
  "bytecode": "0x6080604052600060025534801561001557600080fd5b5061001f33610024565b610074565b600080546001600160a01b038381166001600160a01b0319831681178455604051919092169283917f8be0079c531659141344cd1fd0a4f28419497f9722a3daafe3b4186f6b6457e09190a35050565b612cd1806100836000396000f3fe60806040523480156200001157600080fd5b50600436106200006a5760003560e01c80630d88b460146200006f5780636787d44914620000885780636c9c2faf14620000d1578063715018a614620000e35780638da5cb5b14620000ed578063f2fde38b14620000ff575b600080fd5b62000086620000803660046200034c565b62000116565b005b620000b4620000993660046200038d565b6000908152600160205260409020546001600160a01b031690565b6040516001600160a01b0390911681526020015b60405180910390f35b600254604051908152602001620000c8565b6200008662000211565b6000546001600160a01b0316620000b4565b6200008662000110366004620003a7565b6200024c565b6000546001600160a01b031633146200014c5760405162461bcd60e51b81526004016200014390620003d9565b60405180910390fd5b600060025490508084848460405162000165906200033e565b9384526020840192909252604083015260ff166060820152608001604051809103906000f0801580156200019d573d6000803e3d6000fd5b50600082815260016020526040812080546001600160a01b0319166001600160a01b0393909316929092179091556002805491620001db836200040e565b909155505060405181907f01a6d33d95d2560a8c53f00317beb1d0364b3ecf2d43f647d2b4671df27f4f4590600090a250505050565b6000546001600160a01b031633146200023e5760405162461bcd60e51b81526004016200014390620003d9565b6200024a6000620002ee565b565b6000546001600160a01b03163314620002795760405162461bcd60e51b81526004016200014390620003d9565b6001600160a01b038116620002e05760405162461bcd60e51b815260206004820152602660248201527f4f776e61626c653a206e6577206f776e657220697320746865207a65726f206160448201526564647265737360d01b606482015260840162000143565b620002eb81620002ee565b50565b600080546001600160a01b038381166001600160a01b0319831681178455604051919092169283917f8be0079c531659141344cd1fd0a4f28419497f9722a3daafe3b4186f6b6457e09190a35050565b61288e806200043783390190565b6000806000606084860312156200036257600080fd5b8335925060208401359150604084013560ff811681146200038257600080fd5b809150509250925092565b600060208284031215620003a057600080fd5b5035919050565b600060208284031215620003ba57600080fd5b81356001600160a01b0381168114620003d257600080fd5b9392505050565b6020808252818101527f4f776e61626c653a2063616c6c6572206973206e6f7420746865206f776e6572604082015260600190565b6000600182016200042f57634e487b7160e01b600052601160045260246000fd5b506001019056fe610120604081905260006101008190526200001d91600b91620003c3565b503480156200002b57600080fd5b506040516200288e3803806200288e8339810160408190526200004e9162000469565b6040518060400160405280600e81526020016d029a9a4102620a12990222927a8160951b8152506200008b856200017860201b620011d51760201c565b6040516020016200009e929190620004f0565b6040516020818303038152906040526040518060400160405280600681526020016544524f50202360d01b815250620000e2866200017860201b620011d51760201c565b604051602001620000f5929190620004f0565b60408051601f1981840301815291905281516200011a906000906020850190620003c3565b50805162000130906001906020840190620003c3565b5050506200014d620001476200029860201b60201c565b6200029c565b608084905260a083905260c082905260ff811660e0526200016e32620002ee565b505050506200061c565b606081600003620001a05750506040805180820190915260018152600360fc1b602082015290565b8160005b8115620001d05780620001b7816200051f565b9150620001c89050600a8362000551565b9150620001a4565b6000816001600160401b03811115620001ed57620001ed62000568565b6040519080825280601f01601f19166020018201604052801562000218576020820181803683370190505b5090505b84156200029057620002306001836200057e565b91506200023f600a8662000598565b6200024c906030620005af565b60f81b818381518110620002645762000264620005ca565b60200101906001600160f81b031916908160001a90535062000288600a8662000551565b94506200021c565b949350505050565b3390565b600a80546001600160a01b038381166001600160a01b0319831681179093556040519116919082907f8be0079c531659141344cd1fd0a4f28419497f9722a3daafe3b4186f6b6457e090600090a35050565b600a546001600160a01b031633146200034e5760405162461bcd60e51b815260206004820181905260248201527f4f776e61626c653a2063616c6c6572206973206e6f7420746865206f776e657260448201526064015b60405180910390fd5b6001600160a01b038116620003b55760405162461bcd60e51b815260206004820152602660248201527f4f776e61626c653a206e6577206f776e657220697320746865207a65726f206160448201526564647265737360d01b606482015260840162000345565b620003c0816200029c565b50565b828054620003d190620005e0565b90600052602060002090601f016020900481019282620003f5576000855562000440565b82601f106200041057805160ff191683800117855562000440565b8280016001018555821562000440579182015b828111156200044057825182559160200191906001019062000423565b506200044e92915062000452565b5090565b5b808211156200044e576000815560010162000453565b600080600080608085870312156200048057600080fd5b845193506020850151925060408501519150606085015160ff81168114620004a757600080fd5b939692955090935050565b6000815160005b81811015620004d55760208185018101518683015201620004b9565b81811115620004e5576000828601525b509290920192915050565b600062000290620005028386620004b2565b84620004b2565b634e487b7160e01b600052601160045260246000fd5b60006001820162000534576200053462000509565b5060010190565b634e487b7160e01b600052601260045260246000fd5b6000826200056357620005636200053b565b500490565b634e487b7160e01b600052604160045260246000fd5b60008282101562000593576200059362000509565b500390565b600082620005aa57620005aa6200053b565b500690565b60008219821115620005c557620005c562000509565b500190565b634e487b7160e01b600052603260045260246000fd5b600181811c90821680620005f557607f821691505b6020821081036200061657634e487b7160e01b600052602260045260246000fd5b50919050565b60805160a05160c05160e05161222a620006646000396000610b400152600081816104640152610b720152600081816105170152610adb015260006102b5015261222a6000f3fe60806040526004361061019c5760003560e01c80636ecd2306116100ec578063a22cb4651161008a578063c8a7512611610064578063c8a75126146104e8578063d5abeb0114610508578063e985e9c51461053b578063f2fde38b1461058457600080fd5b8063a22cb46514610488578063b88d4fde146104a8578063c87b56dd146104c857600080fd5b806379575294116100c657806379575294146104025780638da5cb5b1461042257806395d89b4114610440578063a035b1fe1461045557600080fd5b80636ecd2306146103ba57806370a08231146103cd578063715018a6146103ed57600080fd5b806323b872dd1161015957806342842e0e1161013357806342842e0e146102f95780634f6ccce7146103195780634fe9f69f146103395780636352211e1461039a57600080fd5b806323b872dd146102865780632a778c9b146102a65780632f745c59146102d957600080fd5b806301ffc9a7146101a157806306fdde03146101d6578063081812fc146101f8578063095ea7b31461023057806317f389591461025257806318160ddd14610267575b600080fd5b3480156101ad57600080fd5b506101c16101bc366004611c52565b6105a4565b60405190151581526020015b60405180910390f35b3480156101e257600080fd5b506101eb6105cf565b6040516101cd9190611cc7565b34801561020457600080fd5b50610218610213366004611cda565b610661565b6040516001600160a01b0390911681526020016101cd565b34801561023c57600080fd5b5061025061024b366004611d08565b6106fb565b005b34801561025e57600080fd5b506101eb610810565b34801561027357600080fd5b506008545b6040519081526020016101cd565b34801561029257600080fd5b506102506102a1366004611d34565b61081f565b3480156102b257600080fd5b507f0000000000000000000000000000000000000000000000000000000000000000610278565b3480156102e557600080fd5b506102786102f4366004611d08565b610850565b34801561030557600080fd5b50610250610314366004611d34565b6108e6565b34801561032557600080fd5b50610278610334366004611cda565b610901565b34801561034557600080fd5b50610359610354366004611cda565b610994565b6040516101cd9190815160ff1681526020808301511515908201526040808301516001600160a01b0316908201526060918201519181019190915260800190565b3480156103a657600080fd5b506102186103b5366004611cda565b610a55565b6102506103c8366004611d75565b610acc565b3480156103d957600080fd5b506102786103e8366004611d98565b610c85565b3480156103f957600080fd5b50610250610d0c565b34801561040e57600080fd5b5061025061041d366004611e41565b610d42565b34801561042e57600080fd5b50600a546001600160a01b0316610218565b34801561044c57600080fd5b506101eb610d83565b34801561046157600080fd5b507f0000000000000000000000000000000000000000000000000000000000000000610278565b34801561049457600080fd5b506102506104a3366004611e8a565b610d92565b3480156104b457600080fd5b506102506104c3366004611ec8565b610e56565b3480156104d457600080fd5b506101eb6104e3366004611cda565b610e8e565b3480156104f457600080fd5b50610250610503366004611f48565b610f76565b34801561051457600080fd5b507f0000000000000000000000000000000000000000000000000000000000000000610278565b34801561054757600080fd5b506101c1610556366004611f6f565b6001600160a01b03918216600090815260056020908152604080832093909416825291909152205460ff1690565b34801561059057600080fd5b5061025061059f366004611d98565b61113a565b60006001600160e01b0319821663780e9d6360e01b14806105c957506105c9826112de565b92915050565b6060600080546105de90611f9d565b80601f016020809104026020016040519081016040528092919081815260200182805461060a90611f9d565b80156106575780601f1061062c57610100808354040283529160200191610657565b820191906000526020600020905b81548152906001019060200180831161063a57829003601f168201915b5050505050905090565b6000818152600260205260408120546001600160a01b03166106df5760405162461bcd60e51b815260206004820152602c60248201527f4552433732313a20617070726f76656420717565727920666f72206e6f6e657860448201526b34b9ba32b73a103a37b5b2b760a11b60648201526084015b60405180910390fd5b506000908152600460205260409020546001600160a01b031690565b600061070682610a55565b9050806001600160a01b0316836001600160a01b0316036107735760405162461bcd60e51b815260206004820152602160248201527f4552433732313a20617070726f76616c20746f2063757272656e74206f776e656044820152603960f91b60648201526084016106d6565b336001600160a01b038216148061078f575061078f8133610556565b6108015760405162461bcd60e51b815260206004820152603860248201527f4552433732313a20617070726f76652063616c6c6572206973206e6f74206f7760448201527f6e6572206e6f7220617070726f76656420666f7220616c6c000000000000000060648201526084016106d6565b61080b838361132e565b505050565b6060600b80546105de90611f9d565b610829338261139c565b6108455760405162461bcd60e51b81526004016106d690611fd7565b61080b83838361148f565b600061085b83610c85565b82106108bd5760405162461bcd60e51b815260206004820152602b60248201527f455243373231456e756d657261626c653a206f776e657220696e646578206f7560448201526a74206f6620626f756e647360a81b60648201526084016106d6565b506001600160a01b03919091166000908152600660209081526040808320938352929052205490565b61080b83838360405180602001604052806000815250610e56565b600061090c60085490565b821061096f5760405162461bcd60e51b815260206004820152602c60248201527f455243373231456e756d657261626c653a20676c6f62616c20696e646578206f60448201526b7574206f6620626f756e647360a01b60648201526084016106d6565b6008828154811061098257610982612028565b90600052602060002001549050919050565b60408051608081018252600080825260208201819052918101829052606081019190915260085482106109fd5760405162461bcd60e51b8152602060048201526011602482015270125390d3d4949150d517d513d2d1539251607a1b60448201526064016106d6565b506000908152600c60209081526040918290208251608081018452815460ff8082168352610100820416151593820193909352620100009092046001600160a01b031692820192909252600190910154606082015290565b6000818152600260205260408120546001600160a01b0316806105c95760405162461bcd60e51b815260206004820152602960248201527f4552433732313a206f776e657220717565727920666f72206e6f6e657869737460448201526832b73a103a37b5b2b760b91b60648201526084016106d6565b6000610ad760085490565b90507f0000000000000000000000000000000000000000000000000000000000000000808210610b3e5760405162461bcd60e51b815260206004820152601260248201527113505617d4d55414131657d4915050d2115160721b60448201526064016106d6565b7f000000000000000000000000000000000000000000000000000000000000000060ff168360ff1610610b7057600080fd5b7f00000000000000000000000000000000000000000000000000000000000000003414610bd15760405162461bcd60e51b815260206004820152600f60248201526e494e434f52524543545f46554e445360881b60448201526064016106d6565b610bdb338361163a565b6040805160808101825260ff8086168252600160208084018281526000858701818152606087018281528a8352600c90945287822096518754935191516001600160a01b0316620100000262010000600160b01b03199215156101000261ffff199095169190971617929092179190911693909317845551920191909155905183917f176b02bb2d12439ff7a20b59f402cca16c76f50508b13ef3166a600eb719354a91a2505050565b60006001600160a01b038216610cf05760405162461bcd60e51b815260206004820152602a60248201527f4552433732313a2062616c616e636520717565727920666f7220746865207a65604482015269726f206164647265737360b01b60648201526084016106d6565b506001600160a01b031660009081526003602052604090205490565b600a546001600160a01b03163314610d365760405162461bcd60e51b81526004016106d69061203e565b610d406000611654565b565b600a546001600160a01b03163314610d6c5760405162461bcd60e51b81526004016106d69061203e565b8051610d7f90600b906020840190611ba3565b5050565b6060600180546105de90611f9d565b336001600160a01b03831603610dea5760405162461bcd60e51b815260206004820152601960248201527f4552433732313a20617070726f766520746f2063616c6c65720000000000000060448201526064016106d6565b3360008181526005602090815260408083206001600160a01b03871680855290835292819020805460ff191686151590811790915590519081529192917f17307eab39ab6107e8899845ad3d59bd9653f200f220920489ca2b5937696c31910160405180910390a35050565b610e60338361139c565b610e7c5760405162461bcd60e51b81526004016106d690611fd7565b610e88848484846116a6565b50505050565b6000818152600260205260409020546060906001600160a01b0316610f0d5760405162461bcd60e51b815260206004820152602f60248201527f4552433732314d657461646174613a2055524920717565727920666f72206e6f60448201526e3732bc34b9ba32b73a103a37b5b2b760891b60648201526084016106d6565b6000610f2460408051602081019091526000815290565b90506000815111610f445760405180602001604052806000815250610f6f565b80610f4e846111d5565b604051602001610f5f929190612073565b6040516020818303038152906040525b9392505050565b6000838152600c60205260409081902090516331a9108f60e11b81526004810185905232903090636352211e90602401602060405180830381865afa158015610fc3573d6000803e3d6000fd5b505050506040513d601f19601f82011682018060405250810190610fe791906120a2565b6001600160a01b03161461102d5760405162461bcd60e51b815260206004820152600d60248201526c24a72b20a624a22fa7aba722a960991b60448201526064016106d6565b6040516331a9108f60e11b81526004810183905232906001600160a01b03851690636352211e90602401602060405180830381865afa158015611074573d6000803e3d6000fd5b505050506040513d601f19601f8201168201806040525081019061109891906120a2565b6001600160a01b0316146110de5760405162461bcd60e51b815260206004820152600d60248201526c24a72b20a624a22fa7aba722a960991b60448201526064016106d6565b805460018201839055610100600160b01b031916620100006001600160a01b0385160261ff00191617815560405184907fe0ff833392b9f001daba1da86ad0f9c9ab3f34ddd5a7dc6f7d3dffee0df8110e90600090a250505050565b600a546001600160a01b031633146111645760405162461bcd60e51b81526004016106d69061203e565b6001600160a01b0381166111c95760405162461bcd60e51b815260206004820152602660248201527f4f776e61626c653a206e6577206f776e657220697320746865207a65726f206160448201526564647265737360d01b60648201526084016106d6565b6111d281611654565b50565b6060816000036111fc5750506040805180820190915260018152600360fc1b602082015290565b8160005b81156112265780611210816120d5565b915061121f9050600a83612104565b9150611200565b60008167ffffffffffffffff81111561124157611241611db5565b6040519080825280601f01601f19166020018201604052801561126b576020820181803683370190505b5090505b84156112d657611280600183612118565b915061128d600a8661212f565b611298906030612143565b60f81b8183815181106112ad576112ad612028565b60200101906001600160f81b031916908160001a9053506112cf600a86612104565b945061126f565b949350505050565b60006001600160e01b031982166380ac58cd60e01b148061130f57506001600160e01b03198216635b5e139f60e01b145b806105c957506301ffc9a760e01b6001600160e01b03198316146105c9565b600081815260046020526040902080546001600160a01b0319166001600160a01b038416908117909155819061136382610a55565b6001600160a01b03167f8c5be1e5ebec7d5bd14f71427d1e84f3dd0314c0f7b2291e5b200ac8c7c3b92560405160405180910390a45050565b6000818152600260205260408120546001600160a01b03166114155760405162461bcd60e51b815260206004820152602c60248201527f4552433732313a206f70657261746f7220717565727920666f72206e6f6e657860448201526b34b9ba32b73a103a37b5b2b760a11b60648201526084016106d6565b600061142083610a55565b9050806001600160a01b0316846001600160a01b0316148061145b5750836001600160a01b031661145084610661565b6001600160a01b0316145b806112d657506001600160a01b0380821660009081526005602090815260408083209388168352929052205460ff166112d6565b826001600160a01b03166114a282610a55565b6001600160a01b03161461150a5760405162461bcd60e51b815260206004820152602960248201527f4552433732313a207472616e73666572206f6620746f6b656e2074686174206960448201526839903737ba1037bbb760b91b60648201526084016106d6565b6001600160a01b03821661156c5760405162461bcd60e51b8152602060048201526024808201527f4552433732313a207472616e7366657220746f20746865207a65726f206164646044820152637265737360e01b60648201526084016106d6565b6115778383836116d9565b61158260008261132e565b6001600160a01b03831660009081526003602052604081208054600192906115ab908490612118565b90915550506001600160a01b03821660009081526003602052604081208054600192906115d9908490612143565b909155505060008181526002602052604080822080546001600160a01b0319166001600160a01b0386811691821790925591518493918716917fddf252ad1be2c89b69c2b068fc378daa952ba7f163c4a11628f55a4df523b3ef91a4505050565b610d7f828260405180602001604052806000815250611791565b600a80546001600160a01b038381166001600160a01b0319831681179093556040519116919082907f8be0079c531659141344cd1fd0a4f28419497f9722a3daafe3b4186f6b6457e090600090a35050565b6116b184848461148f565b6116bd848484846117c4565b610e885760405162461bcd60e51b81526004016106d69061215b565b6001600160a01b0383166117345761172f81600880546000838152600960205260408120829055600182018355919091527ff3f7a9fe364faab93b216da50a3214154f22a0a2b415b23a84c8169e8b636ee30155565b611757565b816001600160a01b0316836001600160a01b0316146117575761175783826118c5565b6001600160a01b03821661176e5761080b81611962565b826001600160a01b0316826001600160a01b03161461080b5761080b8282611a11565b61179b8383611a55565b6117a860008484846117c4565b61080b5760405162461bcd60e51b81526004016106d69061215b565b60006001600160a01b0384163b156118ba57604051630a85bd0160e11b81526001600160a01b0385169063150b7a02906118089033908990889088906004016121ad565b6020604051808303816000875af1925050508015611843575060408051601f3d908101601f19168201909252611840918101906121ea565b60015b6118a0573d808015611871576040519150601f19603f3d011682016040523d82523d6000602084013e611876565b606091505b5080516000036118985760405162461bcd60e51b81526004016106d69061215b565b805181602001fd5b6001600160e01b031916630a85bd0160e11b1490506112d6565b506001949350505050565b600060016118d284610c85565b6118dc9190612118565b60008381526007602052604090205490915080821461192f576001600160a01b03841660009081526006602090815260408083208584528252808320548484528184208190558352600790915290208190555b5060009182526007602090815260408084208490556001600160a01b039094168352600681528383209183525290812055565b60085460009061197490600190612118565b6000838152600960205260408120546008805493945090928490811061199c5761199c612028565b9060005260206000200154905080600883815481106119bd576119bd612028565b60009182526020808320909101929092558281526009909152604080822084905585825281205560088054806119f5576119f5612207565b6001900381819060005260206000200160009055905550505050565b6000611a1c83610c85565b6001600160a01b039093166000908152600660209081526040808320868452825280832085905593825260079052919091209190915550565b6001600160a01b038216611aab5760405162461bcd60e51b815260206004820181905260248201527f4552433732313a206d696e7420746f20746865207a65726f206164647265737360448201526064016106d6565b6000818152600260205260409020546001600160a01b031615611b105760405162461bcd60e51b815260206004820152601c60248201527f4552433732313a20746f6b656e20616c7265616479206d696e7465640000000060448201526064016106d6565b611b1c600083836116d9565b6001600160a01b0382166000908152600360205260408120805460019290611b45908490612143565b909155505060008181526002602052604080822080546001600160a01b0319166001600160a01b03861690811790915590518392907fddf252ad1be2c89b69c2b068fc378daa952ba7f163c4a11628f55a4df523b3ef908290a45050565b828054611baf90611f9d565b90600052602060002090601f016020900481019282611bd15760008555611c17565b82601f10611bea57805160ff1916838001178555611c17565b82800160010185558215611c17579182015b82811115611c17578251825591602001919060010190611bfc565b50611c23929150611c27565b5090565b5b80821115611c235760008155600101611c28565b6001600160e01b0319811681146111d257600080fd5b600060208284031215611c6457600080fd5b8135610f6f81611c3c565b60005b83811015611c8a578181015183820152602001611c72565b83811115610e885750506000910152565b60008151808452611cb3816020860160208601611c6f565b601f01601f19169290920160200192915050565b602081526000610f6f6020830184611c9b565b600060208284031215611cec57600080fd5b5035919050565b6001600160a01b03811681146111d257600080fd5b60008060408385031215611d1b57600080fd5b8235611d2681611cf3565b946020939093013593505050565b600080600060608486031215611d4957600080fd5b8335611d5481611cf3565b92506020840135611d6481611cf3565b929592945050506040919091013590565b600060208284031215611d8757600080fd5b813560ff81168114610f6f57600080fd5b600060208284031215611daa57600080fd5b8135610f6f81611cf3565b634e487b7160e01b600052604160045260246000fd5b600067ffffffffffffffff80841115611de657611de6611db5565b604051601f8501601f19908116603f01168101908282118183101715611e0e57611e0e611db5565b81604052809350858152868686011115611e2757600080fd5b858560208301376000602087830101525050509392505050565b600060208284031215611e5357600080fd5b813567ffffffffffffffff811115611e6a57600080fd5b8201601f81018413611e7b57600080fd5b6112d684823560208401611dcb565b60008060408385031215611e9d57600080fd5b8235611ea881611cf3565b915060208301358015158114611ebd57600080fd5b809150509250929050565b60008060008060808587031215611ede57600080fd5b8435611ee981611cf3565b93506020850135611ef981611cf3565b925060408501359150606085013567ffffffffffffffff811115611f1c57600080fd5b8501601f81018713611f2d57600080fd5b611f3c87823560208401611dcb565b91505092959194509250565b600080600060608486031215611f5d57600080fd5b833592506020840135611d6481611cf3565b60008060408385031215611f8257600080fd5b8235611f8d81611cf3565b91506020830135611ebd81611cf3565b600181811c90821680611fb157607f821691505b602082108103611fd157634e487b7160e01b600052602260045260246000fd5b50919050565b60208082526031908201527f4552433732313a207472616e736665722063616c6c6572206973206e6f74206f6040820152701ddb995c881b9bdc88185c1c1c9bdd9959607a1b606082015260800190565b634e487b7160e01b600052603260045260246000fd5b6020808252818101527f4f776e61626c653a2063616c6c6572206973206e6f7420746865206f776e6572604082015260600190565b60008351612085818460208801611c6f565b835190830190612099818360208801611c6f565b01949350505050565b6000602082840312156120b457600080fd5b8151610f6f81611cf3565b634e487b7160e01b600052601160045260246000fd5b6000600182016120e7576120e76120bf565b5060010190565b634e487b7160e01b600052601260045260246000fd5b600082612113576121136120ee565b500490565b60008282101561212a5761212a6120bf565b500390565b60008261213e5761213e6120ee565b500690565b60008219821115612156576121566120bf565b500190565b60208082526032908201527f4552433732313a207472616e7366657220746f206e6f6e20455243373231526560408201527131b2b4bb32b91034b6b83632b6b2b73a32b960711b606082015260800190565b6001600160a01b03858116825284166020820152604081018390526080606082018190526000906121e090830184611c9b565b9695505050505050565b6000602082840312156121fc57600080fd5b8151610f6f81611c3c565b634e487b7160e01b600052603160045260246000fdfea164736f6c634300080e000aa164736f6c634300080e000a",
  "devdoc": {
    "kind": "dev",
    "methods": {
      "createDrop(uint256,uint256,uint8)": {
        "details": "Create a DROP."
      },
      "getDrop(uint256)": {
        "details": "Return the DROP item matching the drop id."
      },
      "getSupply()": {
        "details": "Return the current supply."
      },
      "owner()": {
        "details": "Returns the address of the current owner."
      },
      "renounceOwnership()": {
        "details": "Leaves the contract without owner. It will not be possible to call `onlyOwner` functions anymore. Can only be called by the current owner. NOTE: Renouncing ownership will leave the contract without an owner, thereby removing any functionality that is only available to the owner."
      },
      "transferOwnership(address)": {
        "details": "Transfers ownership of the contract to a new account (`newOwner`). Can only be called by the current owner."
      }
    },
    "version": 1
  },
  "userdoc": {
    "kind": "user",
    "methods": {},
    "version": 1
  },
  "storageLayout": {
    "storage": [
      {
        "astId": 7,
        "contract": "contracts/Store.sol:SSHStore",
        "label": "_owner",
        "offset": 0,
        "slot": "0",
        "type": "t_address"
      },
      {
        "astId": 2025,
        "contract": "contracts/Store.sol:SSHStore",
        "label": "_drops",
        "offset": 0,
        "slot": "1",
        "type": "t_mapping(t_uint256,t_contract(SSHDrop)2402)"
      },
      {
        "astId": 2028,
        "contract": "contracts/Store.sol:SSHStore",
        "label": "TOTAL_SUPPLY",
        "offset": 0,
        "slot": "2",
        "type": "t_uint256"
      }
    ],
    "types": {
      "t_address": {
        "encoding": "inplace",
        "label": "address",
        "numberOfBytes": "20"
      },
      "t_contract(SSHDrop)2402": {
        "encoding": "inplace",
        "label": "contract SSHDrop",
        "numberOfBytes": "20"
      },
      "t_mapping(t_uint256,t_contract(SSHDrop)2402)": {
        "encoding": "mapping",
        "key": "t_uint256",
        "label": "mapping(uint256 => contract SSHDrop)",
        "numberOfBytes": "32",
        "value": "t_contract(SSHDrop)2402"
      },
      "t_uint256": {
        "encoding": "inplace",
        "label": "uint256",
        "numberOfBytes": "32"
      }
    }
  }
}