{
  "address": "0x248e0Ea2e484d0372470f5B70415c31dBBA37fe9",
  "abi": [
    {
      "anonymous": false,
      "inputs": [
        {
          "indexed": true,
          "internalType": "uint256",
          "name": "dropId",
          "type": "uint256"
        }
      ],
      "name": "DropCreated",
      "type": "event"
    },
    {
      "anonymous": false,
      "inputs": [
        {
          "indexed": true,
          "internalType": "address",
          "name": "previousOwner",
          "type": "address"
        },
        {
          "indexed": true,
          "internalType": "address",
          "name": "newOwner",
          "type": "address"
        }
      ],
      "name": "OwnershipTransferred",
      "type": "event"
    },
    {
      "inputs": [
        {
          "internalType": "uint256",
          "name": "maxSupply",
          "type": "uint256"
        },
        {
          "internalType": "uint256",
          "name": "mintPrice",
          "type": "uint256"
        },
        {
          "internalType": "uint8",
          "name": "versions",
          "type": "uint8"
        },
        {
          "internalType": "address",
          "name": "defaultItem",
          "type": "address"
        }
      ],
      "name": "createDrop",
      "outputs": [],
      "stateMutability": "nonpayable",
      "type": "function"
    },
    {
      "inputs": [
        {
          "internalType": "uint256",
          "name": "dropId",
          "type": "uint256"
        }
      ],
      "name": "drop",
      "outputs": [
        {
          "internalType": "contract Drop",
          "name": "",
          "type": "address"
        }
      ],
      "stateMutability": "view",
      "type": "function"
    },
    {
      "inputs": [],
      "name": "owner",
      "outputs": [
        {
          "internalType": "address",
          "name": "",
          "type": "address"
        }
      ],
      "stateMutability": "view",
      "type": "function"
    },
    {
      "inputs": [],
      "name": "renounceOwnership",
      "outputs": [],
      "stateMutability": "nonpayable",
      "type": "function"
    },
    {
      "inputs": [],
      "name": "totalSupply",
      "outputs": [
        {
          "internalType": "uint256",
          "name": "",
          "type": "uint256"
        }
      ],
      "stateMutability": "view",
      "type": "function"
    },
    {
      "inputs": [
        {
          "internalType": "address",
          "name": "newOwner",
          "type": "address"
        }
      ],
      "name": "transferOwnership",
      "outputs": [],
      "stateMutability": "nonpayable",
      "type": "function"
    }
  ],
  "transactionHash": "0x5ada05176fdbe42917c77772099ff60981edc671fff6d21bf9f20b2aa1fe36a9",
  "args": [],
  "numDeployments": 1,
  "solcInputHash": "718cfd493274fd89b454ded1e8df3d62",
  "bytecode": "0x6080604052600060025534801561001557600080fd5b5061001f33610024565b610074565b600080546001600160a01b038381166001600160a01b0319831681178455604051919092169283917f8be0079c531659141344cd1fd0a4f28419497f9722a3daafe3b4186f6b6457e09190a35050565b613040806100836000396000f3fe60806040523480156200001157600080fd5b50600436106200006a5760003560e01c806318160ddd146200006f578063211d9a5314620000855780636da538ae14620000ca578063715018a614620000e35780638da5cb5b14620000ed578063f2fde38b14620000ff575b600080fd5b6002546040519081526020015b60405180910390f35b620000b1620000963660046200034d565b6000908152600160205260409020546001600160a01b031690565b6040516001600160a01b0390911681526020016200007c565b620000e1620000db36600462000384565b62000116565b005b620000e1620001f8565b6000546001600160a01b0316620000b1565b620000e162000110366004620003d6565b62000210565b6200012062000293565b6000600254905080858585856040516200013a906200033f565b9485526020850193909352604084019190915260ff1660608301526001600160a01b0316608082015260a001604051809103906000f08015801562000183573d6000803e3d6000fd5b50600082815260016020526040812080546001600160a01b0319166001600160a01b0393909316929092179091556002805491620001c183620003fb565b909155505060405181907f01a6d33d95d2560a8c53f00317beb1d0364b3ecf2d43f647d2b4671df27f4f4590600090a25050505050565b6200020262000293565b6200020e6000620002ef565b565b6200021a62000293565b6001600160a01b038116620002855760405162461bcd60e51b815260206004820152602660248201527f4f776e61626c653a206e6577206f776e657220697320746865207a65726f206160448201526564647265737360d01b60648201526084015b60405180910390fd5b6200029081620002ef565b50565b6000546001600160a01b031633146200020e5760405162461bcd60e51b815260206004820181905260248201527f4f776e61626c653a2063616c6c6572206973206e6f7420746865206f776e657260448201526064016200027c565b600080546001600160a01b038381166001600160a01b0319831681178455604051919092169283917f8be0079c531659141344cd1fd0a4f28419497f9722a3daafe3b4186f6b6457e09190a35050565b612c10806200042483390190565b6000602082840312156200036057600080fd5b5035919050565b80356001600160a01b03811681146200037f57600080fd5b919050565b600080600080608085870312156200039b57600080fd5b8435935060208501359250604085013560ff81168114620003bb57600080fd5b9150620003cb6060860162000367565b905092959194509250565b600060208284031215620003e957600080fd5b620003f48262000367565b9392505050565b6000600182016200041c57634e487b7160e01b600052601160045260246000fd5b506001019056fe610140604081905260006101208190526200001d91600b9162000485565b503480156200002b57600080fd5b5060405162002c1038038062002c108339810160408190526200004e916200052b565b6040518060400160405280600581526020016444524f502360d81b8152506200008286620001c460201b620012261760201c565b60405160200162000095929190620005c6565b6040516020818303038152906040526040518060400160405280600581526020016444524f502360d81b815250620000d887620001c460201b620012261760201c565b604051602001620000eb929190620005c6565b60408051601f1981840301815291905281516200011090600090602085019062000485565b5080516200012690600190602084019062000485565b505050620001436200013d6200026860201b60201c565b6200026c565b600082116200018c5760405162461bcd60e51b815260206004820152601060248201526f494e56414c49445f56455253494f4e5360801b60448201526064015b60405180910390fd5b608085905260a084905260c083905260e08290526001600160a01b03811661010052620001b932620002be565b505050505062000639565b60606000620001de836200033d60201b620012b91760201c565b60010190506000816001600160401b03811115620002005762000200620005e7565b6040519080825280601f01601f1916602001820160405280156200022b576020820181803683370190505b5090508181016020015b600019016f181899199a1a9b1b9c1cb0b131b232b360811b600a86061a8153600a85049450846200023557509392505050565b3390565b600a80546001600160a01b038381166001600160a01b0319831681179093556040519116919082907f8be0079c531659141344cd1fd0a4f28419497f9722a3daafe3b4186f6b6457e090600090a35050565b620002c862000427565b6001600160a01b0381166200032f5760405162461bcd60e51b815260206004820152602660248201527f4f776e61626c653a206e6577206f776e657220697320746865207a65726f206160448201526564647265737360d01b606482015260840162000183565b6200033a816200026c565b50565b6000807a184f03e93ff9f4daa797ed6e38ed64bf6a1f010000000000000000831062000387577a184f03e93ff9f4daa797ed6e38ed64bf6a1f010000000000000000830492506040015b6d04ee2d6d415b85acef81000000008310620003b4576d04ee2d6d415b85acef8100000000830492506020015b662386f26fc100008310620003d357662386f26fc10000830492506010015b6305f5e1008310620003ec576305f5e100830492506008015b61271083106200040157612710830492506004015b6064831062000414576064830492506002015b600a831062000421576001015b92915050565b600a546001600160a01b03163314620004835760405162461bcd60e51b815260206004820181905260248201527f4f776e61626c653a2063616c6c6572206973206e6f7420746865206f776e6572604482015260640162000183565b565b8280546200049390620005fd565b90600052602060002090601f016020900481019282620004b7576000855562000502565b82601f10620004d257805160ff191683800117855562000502565b8280016001018555821562000502579182015b8281111562000502578251825591602001919060010190620004e5565b506200051092915062000514565b5090565b5b8082111562000510576000815560010162000515565b600080600080600060a086880312156200054457600080fd5b855160208701516040880151606089015160808a0151939850919650945092506001600160a01b03811681146200057a57600080fd5b809150509295509295909350565b6000815160005b81811015620005ab57602081850181015186830152016200058f565b81811115620005bb576000828601525b509290920192915050565b6000620005df620005d8838662000588565b8462000588565b949350505050565b634e487b7160e01b600052604160045260246000fd5b600181811c908216806200061257607f821691505b6020821081036200063357634e487b7160e01b600052602260045260246000fd5b50919050565b60805160a05160c05160e0516101005161257d6200069360003960006101ec0152600081816106430152610f680152600081816105010152610fca0152600081816105a70152610f0401526000610379015261257d6000f3fe6080604052600436106101d85760003560e01c80634f6ccce711610102578063a0712d6811610095578063d5abeb0111610064578063d5abeb0114610598578063e985e9c5146105cb578063f2fde38b14610614578063f8b1cb3c1461063457600080fd5b8063a0712d6814610525578063a22cb46514610538578063b88d4fde14610558578063c87b56dd1461057857600080fd5b8063715018a6116100d1578063715018a6146104aa5780638da5cb5b146104bf57806395d89b41146104dd578063a035b1fe146104f257600080fd5b80634f6ccce71461041d57806358326b7a1461043d5780636352211e1461046a57806370a082311461048a57600080fd5b80631141d7de1161017a5780632f745c59116101495780632f745c591461039d578063361c6036146103bd57806338bd05e0146103dd57806342842e0e146103fd57600080fd5b80631141d7de1461031657806318160ddd1461032b57806323b872dd1461034a5780632a778c9b1461036a57600080fd5b806306fdde03116101b657806306fdde031461027b57806307fdb4ea1461029d578063081812fc146102d6578063095ea7b3146102f657600080fd5b806301852613146101dd57806301ffc9a71461022957806302fe530514610259575b600080fd5b3480156101e957600080fd5b507f00000000000000000000000000000000000000000000000000000000000000005b6040516001600160a01b0390911681526020015b60405180910390f35b34801561023557600080fd5b50610249610244366004611f7e565b610667565b6040519015158152602001610220565b34801561026557600080fd5b50610279610274366004612027565b610692565b005b34801561028757600080fd5b506102906106b1565b60405161022091906120c8565b3480156102a957600080fd5b5061020c6102b83660046120f0565b6001600160a01b039081166000908152600d60205260409020541690565b3480156102e257600080fd5b5061020c6102f136600461210d565b610743565b34801561030257600080fd5b50610279610311366004612126565b61076a565b34801561032257600080fd5b50610290610884565b34801561033757600080fd5b506008545b604051908152602001610220565b34801561035657600080fd5b50610279610365366004612152565b610893565b34801561037657600080fd5b507f000000000000000000000000000000000000000000000000000000000000000061033c565b3480156103a957600080fd5b5061033c6103b8366004612126565b6108c4565b3480156103c957600080fd5b506102796103d8366004612193565b61095a565b3480156103e957600080fd5b506102796103f83660046121ba565b610c3b565b34801561040957600080fd5b50610279610418366004612152565b610c71565b34801561042957600080fd5b5061033c61043836600461210d565b610c8c565b34801561044957600080fd5b5061045d61045836600461210d565b610d1f565b6040516102209190612209565b34801561047657600080fd5b5061020c61048536600461210d565b610dec565b34801561049657600080fd5b5061033c6104a53660046120f0565b610e4c565b3480156104b657600080fd5b50610279610ed2565b3480156104cb57600080fd5b50600a546001600160a01b031661020c565b3480156104e957600080fd5b50610290610ee6565b3480156104fe57600080fd5b507f000000000000000000000000000000000000000000000000000000000000000061033c565b61027961053336600461210d565b610ef5565b34801561054457600080fd5b50610279610553366004612261565b6110f6565b34801561056457600080fd5b50610279610573366004612294565b611101565b34801561058457600080fd5b5061029061059336600461210d565b611139565b3480156105a457600080fd5b507f000000000000000000000000000000000000000000000000000000000000000061033c565b3480156105d757600080fd5b506102496105e63660046121ba565b6001600160a01b03918216600090815260056020908152604080832093909416825291909152205460ff1690565b34801561062057600080fd5b5061027961062f3660046120f0565b6111ad565b34801561064057600080fd5b507f000000000000000000000000000000000000000000000000000000000000000061033c565b60006001600160e01b0319821663780e9d6360e01b148061068c575061068c82611391565b92915050565b61069a6113e1565b80516106ad90600b906020840190611e8a565b5050565b6060600080546106c090612314565b80601f01602080910402602001604051908101604052809291908181526020018280546106ec90612314565b80156107395780601f1061070e57610100808354040283529160200191610739565b820191906000526020600020905b81548152906001019060200180831161071c57829003601f168201915b5050505050905090565b600061074e8261143b565b506000908152600460205260409020546001600160a01b031690565b600061077582610dec565b9050806001600160a01b0316836001600160a01b0316036107e75760405162461bcd60e51b815260206004820152602160248201527f4552433732313a20617070726f76616c20746f2063757272656e74206f776e656044820152603960f91b60648201526084015b60405180910390fd5b336001600160a01b0382161480610803575061080381336105e6565b6108755760405162461bcd60e51b815260206004820152603d60248201527f4552433732313a20617070726f76652063616c6c6572206973206e6f7420746f60448201527f6b656e206f776e6572206f7220617070726f76656420666f7220616c6c00000060648201526084016107de565b61087f838361149a565b505050565b6060600b80546106c090612314565b61089d3382611508565b6108b95760405162461bcd60e51b81526004016107de9061234e565b61087f838383611587565b60006108cf83610e4c565b82106109315760405162461bcd60e51b815260206004820152602b60248201527f455243373231456e756d657261626c653a206f776e657220696e646578206f7560448201526a74206f6620626f756e647360a81b60648201526084016107de565b506001600160a01b03919091166000908152600660209081526040808320938352929052205490565b6000838152600c6020526040902060085484106109a85760405162461bcd60e51b815260206004820152600c60248201526b13d55517d3d197d093d5539160a21b60448201526064016107de565b6040516331a9108f60e11b81526004810185905233903090636352211e90602401602060405180830381865afa1580156109e6573d6000803e3d6000fd5b505050506040513d601f19601f82011682018060405250810190610a0a919061239b565b6001600160a01b031614610a305760405162461bcd60e51b81526004016107de906123b8565b600060018083015460ff1690811115610a4b57610a4b6121f3565b14610a8a5760405162461bcd60e51b815260206004820152600f60248201526e1053149150511657d3555510551151608a1b60448201526064016107de565b6001600160a01b038381166000908152600d60205260409020541680610b40576040516331a9108f60e11b81526004810184905233906001600160a01b03861690636352211e90602401602060405180830381865afa158015610af1573d6000803e3d6000fd5b505050506040513d601f19601f82011682018060405250810190610b15919061239b565b6001600160a01b031614610b3b5760405162461bcd60e51b81526004016107de906123b8565b610bd3565b6040516331a9108f60e11b81526004810184905233906001600160a01b03831690636352211e906024016020604051808303816000875af1158015610b89573d6000803e3d6000fd5b505050506040513d601f19601f82011682018060405250810190610bad919061239b565b6001600160a01b031614610bd35760405162461bcd60e51b81526004016107de906123b8565b6001828101805460ff1916828002179055506002820180546001600160a01b0319166001600160a01b0386161790556003820183905560405185907fe0ff833392b9f001daba1da86ad0f9c9ab3f34ddd5a7dc6f7d3dffee0df8110e90600090a25050505050565b610c436113e1565b6001600160a01b039182166000908152600d6020526040902080546001600160a01b03191691909216179055565b61087f83838360405180602001604052806000815250611101565b6000610c9760085490565b8210610cfa5760405162461bcd60e51b815260206004820152602c60248201527f455243373231456e756d657261626c653a20676c6f62616c20696e646578206f60448201526b7574206f6620626f756e647360a01b60648201526084016107de565b60088281548110610d0d57610d0d6123df565b90600052602060002001549050919050565b610d27611f0e565b6008548210610d6b5760405162461bcd60e51b815260206004820152601060248201526f1253959053125117d513d2d15397d25160821b60448201526064016107de565b6000828152600c602090815260409182902082516060810190935280548352600180820154919284019160ff1690811115610da857610da86121f3565b6001811115610db957610db96121f3565b81526040805180820190915260028301546001600160a01b03168152600390920154602083810191909152015292915050565b6000818152600260205260408120546001600160a01b03168061068c5760405162461bcd60e51b8152602060048201526018602482015277115490cdcc8c4e881a5b9d985b1a59081d1bdad95b88125160421b60448201526064016107de565b60006001600160a01b038216610eb65760405162461bcd60e51b815260206004820152602960248201527f4552433732313a2061646472657373207a65726f206973206e6f7420612076616044820152683634b21037bbb732b960b91b60648201526084016107de565b506001600160a01b031660009081526003602052604090205490565b610eda6113e1565b610ee460006116f8565b565b6060600180546106c090612314565b6000610f0060085490565b90507f00000000000000000000000000000000000000000000000000000000000000008110610f665760405162461bcd60e51b815260206004820152601260248201527113505617d4d55414131657d4915050d2115160721b60448201526064016107de565b7f0000000000000000000000000000000000000000000000000000000000000000821115610fc85760405162461bcd60e51b815260206004820152600f60248201526e24a72b20a624a22fab22a929a4a7a760891b60448201526064016107de565b7f000000000000000000000000000000000000000000000000000000000000000034146110275760405162461bcd60e51b815260206004820152600d60248201526c494e56414c49445f46554e445360981b60448201526064016107de565b611031338261174a565b60408051606081018252838152600060208083018281528451808601865283815280830184905284860152858352600c90915292902081518155915160018084018054939493909160ff19909116908381811115611091576110916121f3565b021790555060409182015180516002830180546001600160a01b0319166001600160a01b03909216919091179055602001516003909101555181907f176b02bb2d12439ff7a20b59f402cca16c76f50508b13ef3166a600eb719354a90600090a25050565b6106ad338383611764565b61110b3383611508565b6111275760405162461bcd60e51b81526004016107de9061234e565b61113384848484611832565b50505050565b60606111448261143b565b600061115b60408051602081019091526000815290565b9050600081511161117b57604051806020016040528060008152506111a6565b8061118584611226565b6040516020016111969291906123f5565b6040516020818303038152906040525b9392505050565b6111b56113e1565b6001600160a01b03811661121a5760405162461bcd60e51b815260206004820152602660248201527f4f776e61626c653a206e6577206f776e657220697320746865207a65726f206160448201526564647265737360d01b60648201526084016107de565b611223816116f8565b50565b60606000611233836112b9565b600101905060008167ffffffffffffffff81111561125357611253611f9b565b6040519080825280601f01601f19166020018201604052801561127d576020820181803683370190505b5090508181016020015b600019016f181899199a1a9b1b9c1cb0b131b232b360811b600a86061a8153600a850494508461128757509392505050565b60008072184f03e93ff9f4daa797ed6e38ed64bf6a1f0160401b83106112f85772184f03e93ff9f4daa797ed6e38ed64bf6a1f0160401b830492506040015b6d04ee2d6d415b85acef81000000008310611324576d04ee2d6d415b85acef8100000000830492506020015b662386f26fc10000831061134257662386f26fc10000830492506010015b6305f5e100831061135a576305f5e100830492506008015b612710831061136e57612710830492506004015b60648310611380576064830492506002015b600a831061068c5760010192915050565b60006001600160e01b031982166380ac58cd60e01b14806113c257506001600160e01b03198216635b5e139f60e01b145b8061068c57506301ffc9a760e01b6001600160e01b031983161461068c565b600a546001600160a01b03163314610ee45760405162461bcd60e51b815260206004820181905260248201527f4f776e61626c653a2063616c6c6572206973206e6f7420746865206f776e657260448201526064016107de565b6000818152600260205260409020546001600160a01b03166112235760405162461bcd60e51b8152602060048201526018602482015277115490cdcc8c4e881a5b9d985b1a59081d1bdad95b88125160421b60448201526064016107de565b600081815260046020526040902080546001600160a01b0319166001600160a01b03841690811790915581906114cf82610dec565b6001600160a01b03167f8c5be1e5ebec7d5bd14f71427d1e84f3dd0314c0f7b2291e5b200ac8c7c3b92560405160405180910390a45050565b60008061151483610dec565b9050806001600160a01b0316846001600160a01b0316148061155b57506001600160a01b0380821660009081526005602090815260408083209388168352929052205460ff165b8061157f5750836001600160a01b031661157484610743565b6001600160a01b0316145b949350505050565b826001600160a01b031661159a82610dec565b6001600160a01b0316146115c05760405162461bcd60e51b81526004016107de90612424565b6001600160a01b0382166116225760405162461bcd60e51b8152602060048201526024808201527f4552433732313a207472616e7366657220746f20746865207a65726f206164646044820152637265737360e01b60648201526084016107de565b61162f8383836001611865565b826001600160a01b031661164282610dec565b6001600160a01b0316146116685760405162461bcd60e51b81526004016107de90612424565b600081815260046020908152604080832080546001600160a01b03199081169091556001600160a01b0387811680865260038552838620805460001901905590871680865283862080546001019055868652600290945282852080549092168417909155905184937fddf252ad1be2c89b69c2b068fc378daa952ba7f163c4a11628f55a4df523b3ef91a4505050565b600a80546001600160a01b038381166001600160a01b0319831681179093556040519116919082907f8be0079c531659141344cd1fd0a4f28419497f9722a3daafe3b4186f6b6457e090600090a35050565b6106ad8282604051806020016040528060008152506119a5565b816001600160a01b0316836001600160a01b0316036117c55760405162461bcd60e51b815260206004820152601960248201527f4552433732313a20617070726f766520746f2063616c6c65720000000000000060448201526064016107de565b6001600160a01b03838116600081815260056020908152604080832094871680845294825291829020805460ff191686151590811790915591519182527f17307eab39ab6107e8899845ad3d59bd9653f200f220920489ca2b5937696c31910160405180910390a3505050565b61183d848484611587565b611849848484846119d8565b6111335760405162461bcd60e51b81526004016107de90612469565b61187184848484611ad9565b60018111156118e05760405162461bcd60e51b815260206004820152603560248201527f455243373231456e756d657261626c653a20636f6e7365637574697665207472604482015274185b9cd9995c9cc81b9bdd081cdd5c1c1bdc9d1959605a1b60648201526084016107de565b816001600160a01b03851661193c5761193781600880546000838152600960205260408120829055600182018355919091527ff3f7a9fe364faab93b216da50a3214154f22a0a2b415b23a84c8169e8b636ee30155565b61195f565b836001600160a01b0316856001600160a01b03161461195f5761195f8582611b61565b6001600160a01b03841661197b5761197681611bfe565b61199e565b846001600160a01b0316846001600160a01b03161461199e5761199e8482611cad565b5050505050565b6119af8383611cf1565b6119bc60008484846119d8565b61087f5760405162461bcd60e51b81526004016107de90612469565b60006001600160a01b0384163b15611ace57604051630a85bd0160e11b81526001600160a01b0385169063150b7a0290611a1c9033908990889088906004016124bb565b6020604051808303816000875af1925050508015611a57575060408051601f3d908101601f19168201909252611a54918101906124f8565b60015b611ab4573d808015611a85576040519150601f19603f3d011682016040523d82523d6000602084013e611a8a565b606091505b508051600003611aac5760405162461bcd60e51b81526004016107de90612469565b805181602001fd5b6001600160e01b031916630a85bd0160e11b14905061157f565b506001949350505050565b6001811115611133576001600160a01b03841615611b1f576001600160a01b03841660009081526003602052604081208054839290611b1990849061252b565b90915550505b6001600160a01b03831615611133576001600160a01b03831660009081526003602052604081208054839290611b56908490612542565b909155505050505050565b60006001611b6e84610e4c565b611b78919061252b565b600083815260076020526040902054909150808214611bcb576001600160a01b03841660009081526006602090815260408083208584528252808320548484528184208190558352600790915290208190555b5060009182526007602090815260408084208490556001600160a01b039094168352600681528383209183525290812055565b600854600090611c109060019061252b565b60008381526009602052604081205460088054939450909284908110611c3857611c386123df565b906000526020600020015490508060088381548110611c5957611c596123df565b6000918252602080832090910192909255828152600990915260408082208490558582528120556008805480611c9157611c9161255a565b6001900381819060005260206000200160009055905550505050565b6000611cb883610e4c565b6001600160a01b039093166000908152600660209081526040808320868452825280832085905593825260079052919091209190915550565b6001600160a01b038216611d475760405162461bcd60e51b815260206004820181905260248201527f4552433732313a206d696e7420746f20746865207a65726f206164647265737360448201526064016107de565b6000818152600260205260409020546001600160a01b031615611dac5760405162461bcd60e51b815260206004820152601c60248201527f4552433732313a20746f6b656e20616c7265616479206d696e7465640000000060448201526064016107de565b611dba600083836001611865565b6000818152600260205260409020546001600160a01b031615611e1f5760405162461bcd60e51b815260206004820152601c60248201527f4552433732313a20746f6b656e20616c7265616479206d696e7465640000000060448201526064016107de565b6001600160a01b038216600081815260036020908152604080832080546001019055848352600290915280822080546001600160a01b0319168417905551839291907fddf252ad1be2c89b69c2b068fc378daa952ba7f163c4a11628f55a4df523b3ef908290a45050565b828054611e9690612314565b90600052602060002090601f016020900481019282611eb85760008555611efe565b82601f10611ed157805160ff1916838001178555611efe565b82800160010185558215611efe579182015b82811115611efe578251825591602001919060010190611ee3565b50611f0a929150611f53565b5090565b6040805160608101909152600080825260208201908152602001611f4e604051806040016040528060006001600160a01b03168152602001600081525090565b905290565b5b80821115611f0a5760008155600101611f54565b6001600160e01b03198116811461122357600080fd5b600060208284031215611f9057600080fd5b81356111a681611f68565b634e487b7160e01b600052604160045260246000fd5b600067ffffffffffffffff80841115611fcc57611fcc611f9b565b604051601f8501601f19908116603f01168101908282118183101715611ff457611ff4611f9b565b8160405280935085815286868601111561200d57600080fd5b858560208301376000602087830101525050509392505050565b60006020828403121561203957600080fd5b813567ffffffffffffffff81111561205057600080fd5b8201601f8101841361206157600080fd5b61157f84823560208401611fb1565b60005b8381101561208b578181015183820152602001612073565b838111156111335750506000910152565b600081518084526120b4816020860160208601612070565b601f01601f19169290920160200192915050565b6020815260006111a6602083018461209c565b6001600160a01b038116811461122357600080fd5b60006020828403121561210257600080fd5b81356111a6816120db565b60006020828403121561211f57600080fd5b5035919050565b6000806040838503121561213957600080fd5b8235612144816120db565b946020939093013593505050565b60008060006060848603121561216757600080fd5b8335612172816120db565b92506020840135612182816120db565b929592945050506040919091013590565b6000806000606084860312156121a857600080fd5b833592506020840135612182816120db565b600080604083850312156121cd57600080fd5b82356121d8816120db565b915060208301356121e8816120db565b809150509250929050565b634e487b7160e01b600052602160045260246000fd5b81518152602082015160808201906002811061223557634e487b7160e01b600052602160045260246000fd5b80602084015250604083015160018060a01b038151166040840152602081015160608401525092915050565b6000806040838503121561227457600080fd5b823561227f816120db565b9150602083013580151581146121e857600080fd5b600080600080608085870312156122aa57600080fd5b84356122b5816120db565b935060208501356122c5816120db565b925060408501359150606085013567ffffffffffffffff8111156122e857600080fd5b8501601f810187136122f957600080fd5b61230887823560208401611fb1565b91505092959194509250565b600181811c9082168061232857607f821691505b60208210810361234857634e487b7160e01b600052602260045260246000fd5b50919050565b6020808252602d908201527f4552433732313a2063616c6c6572206973206e6f7420746f6b656e206f776e6560408201526c1c881bdc88185c1c1c9bdd9959609a1b606082015260800190565b6000602082840312156123ad57600080fd5b81516111a6816120db565b6020808252600d908201526c24a72b20a624a22fa7aba722a960991b604082015260600190565b634e487b7160e01b600052603260045260246000fd5b60008351612407818460208801612070565b83519083019061241b818360208801612070565b01949350505050565b60208082526025908201527f4552433732313a207472616e736665722066726f6d20696e636f72726563742060408201526437bbb732b960d91b606082015260800190565b60208082526032908201527f4552433732313a207472616e7366657220746f206e6f6e20455243373231526560408201527131b2b4bb32b91034b6b83632b6b2b73a32b960711b606082015260800190565b6001600160a01b03858116825284166020820152604081018390526080606082018190526000906124ee9083018461209c565b9695505050505050565b60006020828403121561250a57600080fd5b81516111a681611f68565b634e487b7160e01b600052601160045260246000fd5b60008282101561253d5761253d612515565b500390565b6000821982111561255557612555612515565b500190565b634e487b7160e01b600052603160045260246000fdfea164736f6c634300080e000aa164736f6c634300080e000a",
  "devdoc": {
    "author": "Maxime Aubanel - @sshmaxime",
    "kind": "dev",
    "methods": {
      "createDrop(uint256,uint256,uint8,address)": {
        "details": "Create a DROP."
      },
      "drop(uint256)": {
        "details": "Return the DROP item matching the drop id."
      },
      "owner()": {
        "details": "Returns the address of the current owner."
      },
      "renounceOwnership()": {
        "details": "Leaves the contract without owner. It will not be possible to call `onlyOwner` functions anymore. Can only be called by the current owner. NOTE: Renouncing ownership will leave the contract without an owner, thereby removing any functionality that is only available to the owner."
      },
      "totalSupply()": {
        "details": "Return the current supply."
      },
      "transferOwnership(address)": {
        "details": "Transfers ownership of the contract to a new account (`newOwner`). Can only be called by the current owner."
      }
    },
    "title": "Store",
    "version": 1
  },
  "userdoc": {
    "kind": "user",
    "methods": {},
    "version": 1
  },
  "storageLayout": {
    "storage": [
      {
        "astId": 7,
        "contract": "contracts/Store.sol:Store",
        "label": "_owner",
        "offset": 0,
        "slot": "0",
        "type": "t_address"
      },
      {
        "astId": 3494,
        "contract": "contracts/Store.sol:Store",
        "label": "dropIdToDrop",
        "offset": 0,
        "slot": "1",
        "type": "t_mapping(t_uint256,t_contract(Drop)3478)"
      },
      {
        "astId": 3497,
        "contract": "contracts/Store.sol:Store",
        "label": "TOTAL_SUPPLY",
        "offset": 0,
        "slot": "2",
        "type": "t_uint256"
      }
    ],
    "types": {
      "t_address": {
        "encoding": "inplace",
        "label": "address",
        "numberOfBytes": "20"
      },
      "t_contract(Drop)3478": {
        "encoding": "inplace",
        "label": "contract Drop",
        "numberOfBytes": "20"
      },
      "t_mapping(t_uint256,t_contract(Drop)3478)": {
        "encoding": "mapping",
        "key": "t_uint256",
        "label": "mapping(uint256 => contract Drop)",
        "numberOfBytes": "32",
        "value": "t_contract(Drop)3478"
      },
      "t_uint256": {
        "encoding": "inplace",
        "label": "uint256",
        "numberOfBytes": "32"
      }
    }
  }
}