{
  "address": "0x7fc2C86d96F5046F8056b8C8DDf5aA3849892C21",
  "abi": [
    {
      "anonymous": false,
      "inputs": [
        {
          "indexed": true,
          "internalType": "uint256",
          "name": "dropId",
          "type": "uint256"
        }
      ],
      "name": "DropCreated",
      "type": "event"
    },
    {
      "anonymous": false,
      "inputs": [
        {
          "indexed": true,
          "internalType": "address",
          "name": "previousOwner",
          "type": "address"
        },
        {
          "indexed": true,
          "internalType": "address",
          "name": "newOwner",
          "type": "address"
        }
      ],
      "name": "OwnershipTransferred",
      "type": "event"
    },
    {
      "inputs": [
        {
          "internalType": "uint256",
          "name": "maxSupply",
          "type": "uint256"
        },
        {
          "internalType": "uint256",
          "name": "mintPrice",
          "type": "uint256"
        },
        {
          "internalType": "uint8",
          "name": "versions",
          "type": "uint8"
        },
        {
          "internalType": "address",
          "name": "defaultItem",
          "type": "address"
        }
      ],
      "name": "createDrop",
      "outputs": [],
      "stateMutability": "nonpayable",
      "type": "function"
    },
    {
      "inputs": [
        {
          "internalType": "uint256",
          "name": "dropId",
          "type": "uint256"
        }
      ],
      "name": "drop",
      "outputs": [
        {
          "internalType": "contract Drop",
          "name": "",
          "type": "address"
        }
      ],
      "stateMutability": "view",
      "type": "function"
    },
    {
      "inputs": [],
      "name": "owner",
      "outputs": [
        {
          "internalType": "address",
          "name": "",
          "type": "address"
        }
      ],
      "stateMutability": "view",
      "type": "function"
    },
    {
      "inputs": [],
      "name": "renounceOwnership",
      "outputs": [],
      "stateMutability": "nonpayable",
      "type": "function"
    },
    {
      "inputs": [],
      "name": "totalSupply",
      "outputs": [
        {
          "internalType": "uint256",
          "name": "",
          "type": "uint256"
        }
      ],
      "stateMutability": "view",
      "type": "function"
    },
    {
      "inputs": [
        {
          "internalType": "address",
          "name": "newOwner",
          "type": "address"
        }
      ],
      "name": "transferOwnership",
      "outputs": [],
      "stateMutability": "nonpayable",
      "type": "function"
    }
  ],
  "transactionHash": "0xbb6b0086afb04e46fb5cd9119a962a597828237bda9d82daaa3a0d834c4dd0a3",
  "args": [],
  "numDeployments": 1,
  "solcInputHash": "8230618dbbb8437e4e2d95bdba0e25ff",
  "bytecode": "0x6080604052600060025534801561001557600080fd5b5061001f33610024565b610074565b600080546001600160a01b038381166001600160a01b0319831681178455604051919092169283917f8be0079c531659141344cd1fd0a4f28419497f9722a3daafe3b4186f6b6457e09190a35050565b6130a9806100836000396000f3fe60806040523480156200001157600080fd5b50600436106200006a5760003560e01c806318160ddd146200006f578063211d9a5314620000855780636da538ae14620000ca578063715018a614620000e35780638da5cb5b14620000ed578063f2fde38b14620000ff575b600080fd5b6002546040519081526020015b60405180910390f35b620000b1620000963660046200034d565b6000908152600160205260409020546001600160a01b031690565b6040516001600160a01b0390911681526020016200007c565b620000e1620000db36600462000384565b62000116565b005b620000e1620001f8565b6000546001600160a01b0316620000b1565b620000e162000110366004620003d6565b62000210565b6200012062000293565b6000600254905080858585856040516200013a906200033f565b9485526020850193909352604084019190915260ff1660608301526001600160a01b0316608082015260a001604051809103906000f08015801562000183573d6000803e3d6000fd5b50600082815260016020526040812080546001600160a01b0319166001600160a01b0393909316929092179091556002805491620001c183620003fb565b909155505060405181907f01a6d33d95d2560a8c53f00317beb1d0364b3ecf2d43f647d2b4671df27f4f4590600090a25050505050565b6200020262000293565b6200020e6000620002ef565b565b6200021a62000293565b6001600160a01b038116620002855760405162461bcd60e51b815260206004820152602660248201527f4f776e61626c653a206e6577206f776e657220697320746865207a65726f206160448201526564647265737360d01b60648201526084015b60405180910390fd5b6200029081620002ef565b50565b6000546001600160a01b031633146200020e5760405162461bcd60e51b815260206004820181905260248201527f4f776e61626c653a2063616c6c6572206973206e6f7420746865206f776e657260448201526064016200027c565b600080546001600160a01b038381166001600160a01b0319831681178455604051919092169283917f8be0079c531659141344cd1fd0a4f28419497f9722a3daafe3b4186f6b6457e09190a35050565b612c79806200042483390190565b6000602082840312156200036057600080fd5b5035919050565b80356001600160a01b03811681146200037f57600080fd5b919050565b600080600080608085870312156200039b57600080fd5b8435935060208501359250604085013560ff81168114620003bb57600080fd5b9150620003cb6060860162000367565b905092959194509250565b600060208284031215620003e957600080fd5b620003f48262000367565b9392505050565b6000600182016200041c57634e487b7160e01b600052601160045260246000fd5b506001019056fe610140604081905260006101208190526200001d91600b91620004a6565b506040805160208101918290526000908190526200003e91600c91620004a6565b503480156200004c57600080fd5b5060405162002c7938038062002c798339810160408190526200006f916200054c565b6040518060400160405280600581526020016444524f502360d81b815250620000a386620001e560201b6200125f1760201c565b604051602001620000b6929190620005e7565b6040516020818303038152906040526040518060400160405280600581526020016444524f502360d81b815250620000f987620001e560201b6200125f1760201c565b6040516020016200010c929190620005e7565b60408051601f19818403018152919052815162000131906000906020850190620004a6565b50805162000147906001906020840190620004a6565b505050620001646200015e6200028960201b60201c565b6200028d565b60008211620001ad5760405162461bcd60e51b815260206004820152601060248201526f494e56414c49445f56455253494f4e5360801b60448201526064015b60405180910390fd5b608085905260a084905260c083905260e08290526001600160a01b03811661010052620001da32620002df565b50505050506200065a565b60606000620001ff836200035e60201b620012f21760201c565b60010190506000816001600160401b0381111562000221576200022162000608565b6040519080825280601f01601f1916602001820160405280156200024c576020820181803683370190505b5090508181016020015b600019016f181899199a1a9b1b9c1cb0b131b232b360811b600a86061a8153600a85049450846200025657509392505050565b3390565b600a80546001600160a01b038381166001600160a01b0319831681179093556040519116919082907f8be0079c531659141344cd1fd0a4f28419497f9722a3daafe3b4186f6b6457e090600090a35050565b620002e962000448565b6001600160a01b038116620003505760405162461bcd60e51b815260206004820152602660248201527f4f776e61626c653a206e6577206f776e657220697320746865207a65726f206160448201526564647265737360d01b6064820152608401620001a4565b6200035b816200028d565b50565b6000807a184f03e93ff9f4daa797ed6e38ed64bf6a1f0100000000000000008310620003a8577a184f03e93ff9f4daa797ed6e38ed64bf6a1f010000000000000000830492506040015b6d04ee2d6d415b85acef81000000008310620003d5576d04ee2d6d415b85acef8100000000830492506020015b662386f26fc100008310620003f457662386f26fc10000830492506010015b6305f5e10083106200040d576305f5e100830492506008015b61271083106200042257612710830492506004015b6064831062000435576064830492506002015b600a831062000442576001015b92915050565b600a546001600160a01b03163314620004a45760405162461bcd60e51b815260206004820181905260248201527f4f776e61626c653a2063616c6c6572206973206e6f7420746865206f776e65726044820152606401620001a4565b565b828054620004b4906200061e565b90600052602060002090601f016020900481019282620004d8576000855562000523565b82601f10620004f357805160ff191683800117855562000523565b8280016001018555821562000523579182015b828111156200052357825182559160200191906001019062000506565b506200053192915062000535565b5090565b5b8082111562000531576000815560010162000536565b600080600080600060a086880312156200056557600080fd5b855160208701516040880151606089015160808a0151939850919650945092506001600160a01b03811681146200059b57600080fd5b809150509295509295909350565b6000815160005b81811015620005cc5760208185018101518683015201620005b0565b81811115620005dc576000828601525b509290920192915050565b600062000600620005f98386620005a9565b84620005a9565b949350505050565b634e487b7160e01b600052604160045260246000fd5b600181811c908216806200063357607f821691505b6020821081036200065457634e487b7160e01b600052602260045260246000fd5b50919050565b60805160a05160c05160e051610100516125c5620006b460003960006101f701526000818161066e0152610fae01526000818161052c01526110100152600081816105d20152610f4a0152600061036401526125c56000f3fe6080604052600436106101e35760003560e01c806358326b7a11610102578063a0712d6811610095578063d5abeb0111610064578063d5abeb01146105c3578063e985e9c5146105f6578063f2fde38b1461063f578063f8b1cb3c1461065f57600080fd5b8063a0712d6814610550578063a22cb46514610563578063b88d4fde14610583578063c87b56dd146105a357600080fd5b806379575294116100d157806379575294146104ca5780638da5cb5b146104ea57806395d89b4114610508578063a035b1fe1461051d57600080fd5b806358326b7a146104485780636352211e1461047557806370a0823114610495578063715018a6146104b557600080fd5b806323b872dd1161017a57806338bd05e01161014957806338bd05e0146103c857806342842e0e146103e85780634f6ccce71461040857806355f804b31461042857600080fd5b806323b872dd146103355780632a778c9b146103555780632f745c5914610388578063361c6036146103a857600080fd5b8063081812fc116101b6578063081812fc146102bf578063095ea7b3146102df57806317f389591461030157806318160ddd1461031657600080fd5b806301852613146101e857806301ffc9a71461023457806306fdde031461026457806307fdb4ea14610286575b600080fd5b3480156101f457600080fd5b507f00000000000000000000000000000000000000000000000000000000000000005b6040516001600160a01b0390911681526020015b60405180910390f35b34801561024057600080fd5b5061025461024f366004611fc6565b610692565b604051901515815260200161022b565b34801561027057600080fd5b506102796106bd565b60405161022b919061203b565b34801561029257600080fd5b506102176102a1366004612063565b6001600160a01b039081166000908152600e60205260409020541690565b3480156102cb57600080fd5b506102176102da366004612080565b61074f565b3480156102eb57600080fd5b506102ff6102fa366004612099565b610776565b005b34801561030d57600080fd5b50610279610890565b34801561032257600080fd5b506008545b60405190815260200161022b565b34801561034157600080fd5b506102ff6103503660046120c5565b61089f565b34801561036157600080fd5b507f0000000000000000000000000000000000000000000000000000000000000000610327565b34801561039457600080fd5b506103276103a3366004612099565b6108d0565b3480156103b457600080fd5b506102ff6103c3366004612106565b610966565b3480156103d457600080fd5b506102ff6103e336600461212d565b610c47565b3480156103f457600080fd5b506102ff6104033660046120c5565b610c7d565b34801561041457600080fd5b50610327610423366004612080565b610c98565b34801561043457600080fd5b506102ff6104433660046121f2565b610d2b565b34801561045457600080fd5b50610468610463366004612080565b610d4a565b60405161022b9190612251565b34801561048157600080fd5b50610217610490366004612080565b610e17565b3480156104a157600080fd5b506103276104b0366004612063565b610e77565b3480156104c157600080fd5b506102ff610efd565b3480156104d657600080fd5b506102ff6104e53660046121f2565b610f11565b3480156104f657600080fd5b50600a546001600160a01b0316610217565b34801561051457600080fd5b50610279610f2c565b34801561052957600080fd5b507f0000000000000000000000000000000000000000000000000000000000000000610327565b6102ff61055e366004612080565b610f3b565b34801561056f57600080fd5b506102ff61057e3660046122a9565b61113c565b34801561058f57600080fd5b506102ff61059e3660046122dc565b611147565b3480156105af57600080fd5b506102796105be366004612080565b61117f565b3480156105cf57600080fd5b507f0000000000000000000000000000000000000000000000000000000000000000610327565b34801561060257600080fd5b5061025461061136600461212d565b6001600160a01b03918216600090815260056020908152604080832093909416825291909152205460ff1690565b34801561064b57600080fd5b506102ff61065a366004612063565b6111e6565b34801561066b57600080fd5b507f0000000000000000000000000000000000000000000000000000000000000000610327565b60006001600160e01b0319821663780e9d6360e01b14806106b757506106b7826113ca565b92915050565b6060600080546106cc9061235c565b80601f01602080910402602001604051908101604052809291908181526020018280546106f89061235c565b80156107455780601f1061071a57610100808354040283529160200191610745565b820191906000526020600020905b81548152906001019060200180831161072857829003601f168201915b5050505050905090565b600061075a8261141a565b506000908152600460205260409020546001600160a01b031690565b600061078182610e17565b9050806001600160a01b0316836001600160a01b0316036107f35760405162461bcd60e51b815260206004820152602160248201527f4552433732313a20617070726f76616c20746f2063757272656e74206f776e656044820152603960f91b60648201526084015b60405180910390fd5b336001600160a01b038216148061080f575061080f8133610611565b6108815760405162461bcd60e51b815260206004820152603d60248201527f4552433732313a20617070726f76652063616c6c6572206973206e6f7420746f60448201527f6b656e206f776e6572206f7220617070726f76656420666f7220616c6c00000060648201526084016107ea565b61088b8383611479565b505050565b6060600b80546106cc9061235c565b6108a933826114e7565b6108c55760405162461bcd60e51b81526004016107ea90612396565b61088b838383611566565b60006108db83610e77565b821061093d5760405162461bcd60e51b815260206004820152602b60248201527f455243373231456e756d657261626c653a206f776e657220696e646578206f7560448201526a74206f6620626f756e647360a81b60648201526084016107ea565b506001600160a01b03919091166000908152600660209081526040808320938352929052205490565b6000838152600d6020526040902060085484106109b45760405162461bcd60e51b815260206004820152600c60248201526b13d55517d3d197d093d5539160a21b60448201526064016107ea565b6040516331a9108f60e11b81526004810185905233903090636352211e90602401602060405180830381865afa1580156109f2573d6000803e3d6000fd5b505050506040513d601f19601f82011682018060405250810190610a1691906123e3565b6001600160a01b031614610a3c5760405162461bcd60e51b81526004016107ea90612400565b600060018083015460ff1690811115610a5757610a5761223b565b14610a965760405162461bcd60e51b815260206004820152600f60248201526e1053149150511657d3555510551151608a1b60448201526064016107ea565b6001600160a01b038381166000908152600e60205260409020541680610b4c576040516331a9108f60e11b81526004810184905233906001600160a01b03861690636352211e90602401602060405180830381865afa158015610afd573d6000803e3d6000fd5b505050506040513d601f19601f82011682018060405250810190610b2191906123e3565b6001600160a01b031614610b475760405162461bcd60e51b81526004016107ea90612400565b610bdf565b6040516331a9108f60e11b81526004810184905233906001600160a01b03831690636352211e906024016020604051808303816000875af1158015610b95573d6000803e3d6000fd5b505050506040513d601f19601f82011682018060405250810190610bb991906123e3565b6001600160a01b031614610bdf5760405162461bcd60e51b81526004016107ea90612400565b6001828101805460ff1916828002179055506002820180546001600160a01b0319166001600160a01b0386161790556003820183905560405185907fe0ff833392b9f001daba1da86ad0f9c9ab3f34ddd5a7dc6f7d3dffee0df8110e90600090a25050505050565b610c4f6116d7565b6001600160a01b039182166000908152600e6020526040902080546001600160a01b03191691909216179055565b61088b83838360405180602001604052806000815250611147565b6000610ca360085490565b8210610d065760405162461bcd60e51b815260206004820152602c60248201527f455243373231456e756d657261626c653a20676c6f62616c20696e646578206f60448201526b7574206f6620626f756e647360a01b60648201526084016107ea565b60088281548110610d1957610d19612427565b90600052602060002001549050919050565b610d336116d7565b8051610d4690600c906020840190611ed2565b5050565b610d52611f56565b6008548210610d965760405162461bcd60e51b815260206004820152601060248201526f1253959053125117d513d2d15397d25160821b60448201526064016107ea565b6000828152600d602090815260409182902082516060810190935280548352600180820154919284019160ff1690811115610dd357610dd361223b565b6001811115610de457610de461223b565b81526040805180820190915260028301546001600160a01b03168152600390920154602083810191909152015292915050565b6000818152600260205260408120546001600160a01b0316806106b75760405162461bcd60e51b8152602060048201526018602482015277115490cdcc8c4e881a5b9d985b1a59081d1bdad95b88125160421b60448201526064016107ea565b60006001600160a01b038216610ee15760405162461bcd60e51b815260206004820152602960248201527f4552433732313a2061646472657373207a65726f206973206e6f7420612076616044820152683634b21037bbb732b960b91b60648201526084016107ea565b506001600160a01b031660009081526003602052604090205490565b610f056116d7565b610f0f6000611731565b565b610f196116d7565b8051610d4690600b906020840190611ed2565b6060600180546106cc9061235c565b6000610f4660085490565b90507f00000000000000000000000000000000000000000000000000000000000000008110610fac5760405162461bcd60e51b815260206004820152601260248201527113505617d4d55414131657d4915050d2115160721b60448201526064016107ea565b7f000000000000000000000000000000000000000000000000000000000000000082111561100e5760405162461bcd60e51b815260206004820152600f60248201526e24a72b20a624a22fab22a929a4a7a760891b60448201526064016107ea565b7f0000000000000000000000000000000000000000000000000000000000000000341461106d5760405162461bcd60e51b815260206004820152600d60248201526c494e56414c49445f46554e445360981b60448201526064016107ea565b6110773382611783565b60408051606081018252838152600060208083018281528451808601865283815280830184905284860152858352600d90915292902081518155915160018084018054939493909160ff199091169083818111156110d7576110d761223b565b021790555060409182015180516002830180546001600160a01b0319166001600160a01b03909216919091179055602001516003909101555181907f176b02bb2d12439ff7a20b59f402cca16c76f50508b13ef3166a600eb719354a90600090a25050565b610d4633838361179d565b61115133836114e7565b61116d5760405162461bcd60e51b81526004016107ea90612396565b6111798484848461186b565b50505050565b606061118a8261141a565b600061119461189e565b905060008151116111b457604051806020016040528060008152506111df565b806111be8461125f565b6040516020016111cf92919061243d565b6040516020818303038152906040525b9392505050565b6111ee6116d7565b6001600160a01b0381166112535760405162461bcd60e51b815260206004820152602660248201527f4f776e61626c653a206e6577206f776e657220697320746865207a65726f206160448201526564647265737360d01b60648201526084016107ea565b61125c81611731565b50565b6060600061126c836112f2565b600101905060008167ffffffffffffffff81111561128c5761128c612166565b6040519080825280601f01601f1916602001820160405280156112b6576020820181803683370190505b5090508181016020015b600019016f181899199a1a9b1b9c1cb0b131b232b360811b600a86061a8153600a85049450846112c057509392505050565b60008072184f03e93ff9f4daa797ed6e38ed64bf6a1f0160401b83106113315772184f03e93ff9f4daa797ed6e38ed64bf6a1f0160401b830492506040015b6d04ee2d6d415b85acef8100000000831061135d576d04ee2d6d415b85acef8100000000830492506020015b662386f26fc10000831061137b57662386f26fc10000830492506010015b6305f5e1008310611393576305f5e100830492506008015b61271083106113a757612710830492506004015b606483106113b9576064830492506002015b600a83106106b75760010192915050565b60006001600160e01b031982166380ac58cd60e01b14806113fb57506001600160e01b03198216635b5e139f60e01b145b806106b757506301ffc9a760e01b6001600160e01b03198316146106b7565b6000818152600260205260409020546001600160a01b031661125c5760405162461bcd60e51b8152602060048201526018602482015277115490cdcc8c4e881a5b9d985b1a59081d1bdad95b88125160421b60448201526064016107ea565b600081815260046020526040902080546001600160a01b0319166001600160a01b03841690811790915581906114ae82610e17565b6001600160a01b03167f8c5be1e5ebec7d5bd14f71427d1e84f3dd0314c0f7b2291e5b200ac8c7c3b92560405160405180910390a45050565b6000806114f383610e17565b9050806001600160a01b0316846001600160a01b0316148061153a57506001600160a01b0380821660009081526005602090815260408083209388168352929052205460ff165b8061155e5750836001600160a01b03166115538461074f565b6001600160a01b0316145b949350505050565b826001600160a01b031661157982610e17565b6001600160a01b03161461159f5760405162461bcd60e51b81526004016107ea9061246c565b6001600160a01b0382166116015760405162461bcd60e51b8152602060048201526024808201527f4552433732313a207472616e7366657220746f20746865207a65726f206164646044820152637265737360e01b60648201526084016107ea565b61160e83838360016118ad565b826001600160a01b031661162182610e17565b6001600160a01b0316146116475760405162461bcd60e51b81526004016107ea9061246c565b600081815260046020908152604080832080546001600160a01b03199081169091556001600160a01b0387811680865260038552838620805460001901905590871680865283862080546001019055868652600290945282852080549092168417909155905184937fddf252ad1be2c89b69c2b068fc378daa952ba7f163c4a11628f55a4df523b3ef91a4505050565b600a546001600160a01b03163314610f0f5760405162461bcd60e51b815260206004820181905260248201527f4f776e61626c653a2063616c6c6572206973206e6f7420746865206f776e657260448201526064016107ea565b600a80546001600160a01b038381166001600160a01b0319831681179093556040519116919082907f8be0079c531659141344cd1fd0a4f28419497f9722a3daafe3b4186f6b6457e090600090a35050565b610d468282604051806020016040528060008152506119ed565b816001600160a01b0316836001600160a01b0316036117fe5760405162461bcd60e51b815260206004820152601960248201527f4552433732313a20617070726f766520746f2063616c6c65720000000000000060448201526064016107ea565b6001600160a01b03838116600081815260056020908152604080832094871680845294825291829020805460ff191686151590811790915591519182527f17307eab39ab6107e8899845ad3d59bd9653f200f220920489ca2b5937696c31910160405180910390a3505050565b611876848484611566565b61188284848484611a20565b6111795760405162461bcd60e51b81526004016107ea906124b1565b6060600c80546106cc9061235c565b6118b984848484611b21565b60018111156119285760405162461bcd60e51b815260206004820152603560248201527f455243373231456e756d657261626c653a20636f6e7365637574697665207472604482015274185b9cd9995c9cc81b9bdd081cdd5c1c1bdc9d1959605a1b60648201526084016107ea565b816001600160a01b0385166119845761197f81600880546000838152600960205260408120829055600182018355919091527ff3f7a9fe364faab93b216da50a3214154f22a0a2b415b23a84c8169e8b636ee30155565b6119a7565b836001600160a01b0316856001600160a01b0316146119a7576119a78582611ba9565b6001600160a01b0384166119c3576119be81611c46565b6119e6565b846001600160a01b0316846001600160a01b0316146119e6576119e68482611cf5565b5050505050565b6119f78383611d39565b611a046000848484611a20565b61088b5760405162461bcd60e51b81526004016107ea906124b1565b60006001600160a01b0384163b15611b1657604051630a85bd0160e11b81526001600160a01b0385169063150b7a0290611a64903390899088908890600401612503565b6020604051808303816000875af1925050508015611a9f575060408051601f3d908101601f19168201909252611a9c91810190612540565b60015b611afc573d808015611acd576040519150601f19603f3d011682016040523d82523d6000602084013e611ad2565b606091505b508051600003611af45760405162461bcd60e51b81526004016107ea906124b1565b805181602001fd5b6001600160e01b031916630a85bd0160e11b14905061155e565b506001949350505050565b6001811115611179576001600160a01b03841615611b67576001600160a01b03841660009081526003602052604081208054839290611b61908490612573565b90915550505b6001600160a01b03831615611179576001600160a01b03831660009081526003602052604081208054839290611b9e90849061258a565b909155505050505050565b60006001611bb684610e77565b611bc09190612573565b600083815260076020526040902054909150808214611c13576001600160a01b03841660009081526006602090815260408083208584528252808320548484528184208190558352600790915290208190555b5060009182526007602090815260408084208490556001600160a01b039094168352600681528383209183525290812055565b600854600090611c5890600190612573565b60008381526009602052604081205460088054939450909284908110611c8057611c80612427565b906000526020600020015490508060088381548110611ca157611ca1612427565b6000918252602080832090910192909255828152600990915260408082208490558582528120556008805480611cd957611cd96125a2565b6001900381819060005260206000200160009055905550505050565b6000611d0083610e77565b6001600160a01b039093166000908152600660209081526040808320868452825280832085905593825260079052919091209190915550565b6001600160a01b038216611d8f5760405162461bcd60e51b815260206004820181905260248201527f4552433732313a206d696e7420746f20746865207a65726f206164647265737360448201526064016107ea565b6000818152600260205260409020546001600160a01b031615611df45760405162461bcd60e51b815260206004820152601c60248201527f4552433732313a20746f6b656e20616c7265616479206d696e7465640000000060448201526064016107ea565b611e026000838360016118ad565b6000818152600260205260409020546001600160a01b031615611e675760405162461bcd60e51b815260206004820152601c60248201527f4552433732313a20746f6b656e20616c7265616479206d696e7465640000000060448201526064016107ea565b6001600160a01b038216600081815260036020908152604080832080546001019055848352600290915280822080546001600160a01b0319168417905551839291907fddf252ad1be2c89b69c2b068fc378daa952ba7f163c4a11628f55a4df523b3ef908290a45050565b828054611ede9061235c565b90600052602060002090601f016020900481019282611f005760008555611f46565b82601f10611f1957805160ff1916838001178555611f46565b82800160010185558215611f46579182015b82811115611f46578251825591602001919060010190611f2b565b50611f52929150611f9b565b5090565b6040805160608101909152600080825260208201908152602001611f96604051806040016040528060006001600160a01b03168152602001600081525090565b905290565b5b80821115611f525760008155600101611f9c565b6001600160e01b03198116811461125c57600080fd5b600060208284031215611fd857600080fd5b81356111df81611fb0565b60005b83811015611ffe578181015183820152602001611fe6565b838111156111795750506000910152565b60008151808452612027816020860160208601611fe3565b601f01601f19169290920160200192915050565b6020815260006111df602083018461200f565b6001600160a01b038116811461125c57600080fd5b60006020828403121561207557600080fd5b81356111df8161204e565b60006020828403121561209257600080fd5b5035919050565b600080604083850312156120ac57600080fd5b82356120b78161204e565b946020939093013593505050565b6000806000606084860312156120da57600080fd5b83356120e58161204e565b925060208401356120f58161204e565b929592945050506040919091013590565b60008060006060848603121561211b57600080fd5b8335925060208401356120f58161204e565b6000806040838503121561214057600080fd5b823561214b8161204e565b9150602083013561215b8161204e565b809150509250929050565b634e487b7160e01b600052604160045260246000fd5b600067ffffffffffffffff8084111561219757612197612166565b604051601f8501601f19908116603f011681019082821181831017156121bf576121bf612166565b816040528093508581528686860111156121d857600080fd5b858560208301376000602087830101525050509392505050565b60006020828403121561220457600080fd5b813567ffffffffffffffff81111561221b57600080fd5b8201601f8101841361222c57600080fd5b61155e8482356020840161217c565b634e487b7160e01b600052602160045260246000fd5b81518152602082015160808201906002811061227d57634e487b7160e01b600052602160045260246000fd5b80602084015250604083015160018060a01b038151166040840152602081015160608401525092915050565b600080604083850312156122bc57600080fd5b82356122c78161204e565b91506020830135801515811461215b57600080fd5b600080600080608085870312156122f257600080fd5b84356122fd8161204e565b9350602085013561230d8161204e565b925060408501359150606085013567ffffffffffffffff81111561233057600080fd5b8501601f8101871361234157600080fd5b6123508782356020840161217c565b91505092959194509250565b600181811c9082168061237057607f821691505b60208210810361239057634e487b7160e01b600052602260045260246000fd5b50919050565b6020808252602d908201527f4552433732313a2063616c6c6572206973206e6f7420746f6b656e206f776e6560408201526c1c881bdc88185c1c1c9bdd9959609a1b606082015260800190565b6000602082840312156123f557600080fd5b81516111df8161204e565b6020808252600d908201526c24a72b20a624a22fa7aba722a960991b604082015260600190565b634e487b7160e01b600052603260045260246000fd5b6000835161244f818460208801611fe3565b835190830190612463818360208801611fe3565b01949350505050565b60208082526025908201527f4552433732313a207472616e736665722066726f6d20696e636f72726563742060408201526437bbb732b960d91b606082015260800190565b60208082526032908201527f4552433732313a207472616e7366657220746f206e6f6e20455243373231526560408201527131b2b4bb32b91034b6b83632b6b2b73a32b960711b606082015260800190565b6001600160a01b03858116825284166020820152604081018390526080606082018190526000906125369083018461200f565b9695505050505050565b60006020828403121561255257600080fd5b81516111df81611fb0565b634e487b7160e01b600052601160045260246000fd5b6000828210156125855761258561255d565b500390565b6000821982111561259d5761259d61255d565b500190565b634e487b7160e01b600052603160045260246000fdfea164736f6c634300080e000aa164736f6c634300080e000a",
  "devdoc": {
    "author": "Maxime Aubanel - @sshmaxime",
    "kind": "dev",
    "methods": {
      "createDrop(uint256,uint256,uint8,address)": {
        "details": "Create a DROP."
      },
      "drop(uint256)": {
        "details": "Return the DROP item matching the drop id."
      },
      "owner()": {
        "details": "Returns the address of the current owner."
      },
      "renounceOwnership()": {
        "details": "Leaves the contract without owner. It will not be possible to call `onlyOwner` functions anymore. Can only be called by the current owner. NOTE: Renouncing ownership will leave the contract without an owner, thereby removing any functionality that is only available to the owner."
      },
      "totalSupply()": {
        "details": "Return the current supply."
      },
      "transferOwnership(address)": {
        "details": "Transfers ownership of the contract to a new account (`newOwner`). Can only be called by the current owner."
      }
    },
    "title": "Store",
    "version": 1
  },
  "userdoc": {
    "kind": "user",
    "methods": {},
    "version": 1
  },
  "storageLayout": {
    "storage": [
      {
        "astId": 7,
        "contract": "contracts/Store.sol:Store",
        "label": "_owner",
        "offset": 0,
        "slot": "0",
        "type": "t_address"
      },
      {
        "astId": 3520,
        "contract": "contracts/Store.sol:Store",
        "label": "dropIdToDrop",
        "offset": 0,
        "slot": "1",
        "type": "t_mapping(t_uint256,t_contract(Drop)3504)"
      },
      {
        "astId": 3523,
        "contract": "contracts/Store.sol:Store",
        "label": "TOTAL_SUPPLY",
        "offset": 0,
        "slot": "2",
        "type": "t_uint256"
      }
    ],
    "types": {
      "t_address": {
        "encoding": "inplace",
        "label": "address",
        "numberOfBytes": "20"
      },
      "t_contract(Drop)3504": {
        "encoding": "inplace",
        "label": "contract Drop",
        "numberOfBytes": "20"
      },
      "t_mapping(t_uint256,t_contract(Drop)3504)": {
        "encoding": "mapping",
        "key": "t_uint256",
        "label": "mapping(uint256 => contract Drop)",
        "numberOfBytes": "32",
        "value": "t_contract(Drop)3504"
      },
      "t_uint256": {
        "encoding": "inplace",
        "label": "uint256",
        "numberOfBytes": "32"
      }
    }
  }
}