{
  "address": "0x7fc2C86d96F5046F8056b8C8DDf5aA3849892C21",
  "abi": [
    {
      "anonymous": false,
      "inputs": [
        {
          "indexed": true,
          "internalType": "uint256",
          "name": "dropId",
          "type": "uint256"
        }
      ],
      "name": "DropCreated",
      "type": "event"
    },
    {
      "anonymous": false,
      "inputs": [
        {
          "indexed": true,
          "internalType": "address",
          "name": "previousOwner",
          "type": "address"
        },
        {
          "indexed": true,
          "internalType": "address",
          "name": "newOwner",
          "type": "address"
        }
      ],
      "name": "OwnershipTransferred",
      "type": "event"
    },
    {
      "inputs": [
        {
          "internalType": "uint256",
          "name": "maxSupply",
          "type": "uint256"
        },
        {
          "internalType": "uint256",
          "name": "mintPrice",
          "type": "uint256"
        },
        {
          "internalType": "uint8",
          "name": "versions",
          "type": "uint8"
        }
      ],
      "name": "createDrop",
      "outputs": [],
      "stateMutability": "nonpayable",
      "type": "function"
    },
    {
      "inputs": [
        {
          "internalType": "uint256",
          "name": "dropId",
          "type": "uint256"
        }
      ],
      "name": "drop",
      "outputs": [
        {
          "internalType": "contract Drop",
          "name": "",
          "type": "address"
        }
      ],
      "stateMutability": "view",
      "type": "function"
    },
    {
      "inputs": [],
      "name": "owner",
      "outputs": [
        {
          "internalType": "address",
          "name": "",
          "type": "address"
        }
      ],
      "stateMutability": "view",
      "type": "function"
    },
    {
      "inputs": [],
      "name": "renounceOwnership",
      "outputs": [],
      "stateMutability": "nonpayable",
      "type": "function"
    },
    {
      "inputs": [],
      "name": "totalSupply",
      "outputs": [
        {
          "internalType": "uint256",
          "name": "",
          "type": "uint256"
        }
      ],
      "stateMutability": "view",
      "type": "function"
    },
    {
      "inputs": [
        {
          "internalType": "address",
          "name": "newOwner",
          "type": "address"
        }
      ],
      "name": "transferOwnership",
      "outputs": [],
      "stateMutability": "nonpayable",
      "type": "function"
    }
  ],
  "transactionHash": "0xc837d7526d9de140e3d2d841eb42abbf1e78ae6654fb121c07853fd0cbcf9d5d",
  "args": [],
  "numDeployments": 1,
  "solcInputHash": "ba651a94a2a4e2a78348309ab3651a25",
  "bytecode": "0x6080604052600060025534801561001557600080fd5b5061001f33610024565b610074565b600080546001600160a01b038381166001600160a01b0319831681178455604051919092169283917f8be0079c531659141344cd1fd0a4f28419497f9722a3daafe3b4186f6b6457e09190a35050565b612ffb806100836000396000f3fe60806040523480156200001157600080fd5b50600436106200006a5760003560e01c80630d88b460146200006f57806318160ddd1462000088578063211d9a53146200009e578063715018a614620000e35780638da5cb5b14620000ed578063f2fde38b14620000ff575b600080fd5b62000086620000803660046200033a565b62000116565b005b6002546040519081526020015b60405180910390f35b620000ca620000af3660046200037b565b6000908152600160205260409020546001600160a01b031690565b6040516001600160a01b03909116815260200162000095565b62000086620001e5565b6000546001600160a01b0316620000ca565b620000866200011036600462000395565b620001fd565b6200012062000280565b600060025490508084848460405162000139906200032c565b9384526020840192909252604083015260ff166060820152608001604051809103906000f08015801562000171573d6000803e3d6000fd5b50600082815260016020526040812080546001600160a01b0319166001600160a01b0393909316929092179091556002805491620001af83620003c7565b909155505060405181907f01a6d33d95d2560a8c53f00317beb1d0364b3ecf2d43f647d2b4671df27f4f4590600090a250505050565b620001ef62000280565b620001fb6000620002dc565b565b6200020762000280565b6001600160a01b038116620002725760405162461bcd60e51b815260206004820152602660248201527f4f776e61626c653a206e6577206f776e657220697320746865207a65726f206160448201526564647265737360d01b60648201526084015b60405180910390fd5b6200027d81620002dc565b50565b6000546001600160a01b03163314620001fb5760405162461bcd60e51b815260206004820181905260248201527f4f776e61626c653a2063616c6c6572206973206e6f7420746865206f776e6572604482015260640162000269565b600080546001600160a01b038381166001600160a01b0319831681178455604051919092169283917f8be0079c531659141344cd1fd0a4f28419497f9722a3daafe3b4186f6b6457e09190a35050565b612bff80620003f083390190565b6000806000606084860312156200035057600080fd5b8335925060208401359150604084013560ff811681146200037057600080fd5b809150509250925092565b6000602082840312156200038e57600080fd5b5035919050565b600060208284031215620003a857600080fd5b81356001600160a01b0381168114620003c057600080fd5b9392505050565b600060018201620003e857634e487b7160e01b600052601160045260246000fd5b506001019056fe610120604081905260006101008190526200001d91600b9162000497565b506040805160208101918290526000908190526200003e91600c9162000497565b503480156200004c57600080fd5b5060405162002bff38038062002bff8339810160408190526200006f916200053d565b6040518060400160405280600581526020016444524f502360d81b815250620000a385620001d660201b620012251760201c565b604051602001620000b6929190620005b2565b6040516020818303038152906040526040518060400160405280600581526020016444524f502360d81b815250620000f986620001d660201b620012251760201c565b6040516020016200010c929190620005b2565b60408051601f1981840301815291905281516200013190600090602085019062000497565b5080516200014790600190602084019062000497565b505050620001646200015e6200027a60201b60201c565b6200027e565b60008111620001ad5760405162461bcd60e51b815260206004820152601060248201526f494e56414c49445f56455253494f4e5360801b60448201526064015b60405180910390fd5b608084905260a083905260c082905260e0819052620001cc32620002d0565b5050505062000625565b60606000620001f0836200034f60201b620012b81760201c565b60010190506000816001600160401b03811115620002125762000212620005d3565b6040519080825280601f01601f1916602001820160405280156200023d576020820181803683370190505b5090508181016020015b600019016f181899199a1a9b1b9c1cb0b131b232b360811b600a86061a8153600a85049450846200024757509392505050565b3390565b600a80546001600160a01b038381166001600160a01b0319831681179093556040519116919082907f8be0079c531659141344cd1fd0a4f28419497f9722a3daafe3b4186f6b6457e090600090a35050565b620002da62000439565b6001600160a01b038116620003415760405162461bcd60e51b815260206004820152602660248201527f4f776e61626c653a206e6577206f776e657220697320746865207a65726f206160448201526564647265737360d01b6064820152608401620001a4565b6200034c816200027e565b50565b6000807a184f03e93ff9f4daa797ed6e38ed64bf6a1f010000000000000000831062000399577a184f03e93ff9f4daa797ed6e38ed64bf6a1f010000000000000000830492506040015b6d04ee2d6d415b85acef81000000008310620003c6576d04ee2d6d415b85acef8100000000830492506020015b662386f26fc100008310620003e557662386f26fc10000830492506010015b6305f5e1008310620003fe576305f5e100830492506008015b61271083106200041357612710830492506004015b6064831062000426576064830492506002015b600a831062000433576001015b92915050565b600a546001600160a01b03163314620004955760405162461bcd60e51b815260206004820181905260248201527f4f776e61626c653a2063616c6c6572206973206e6f7420746865206f776e65726044820152606401620001a4565b565b828054620004a590620005e9565b90600052602060002090601f016020900481019282620004c9576000855562000514565b82601f10620004e457805160ff191683800117855562000514565b8280016001018555821562000514579182015b8281111562000514578251825591602001919060010190620004f7565b506200052292915062000526565b5090565b5b8082111562000522576000815560010162000527565b600080600080608085870312156200055457600080fd5b505082516020840151604085015160609095015191969095509092509050565b6000815160005b818110156200059757602081850181015186830152016200057b565b81811115620005a7576000828601525b509290920192915050565b6000620005cb620005c4838662000574565b8462000574565b949350505050565b634e487b7160e01b600052604160045260246000fd5b600181811c90821680620005fe57607f821691505b6020821081036200061f57634e487b7160e01b600052602260045260246000fd5b50919050565b60805160a05160c05160e05161258b62000674600039600081816106340152610f740152600081816104f20152610fd60152600081816105980152610f100152600061032a015261258b6000f3fe6080604052600436106101d85760003560e01c806358326b7a11610102578063a0712d6811610095578063d5abeb0111610064578063d5abeb0114610589578063e985e9c5146105bc578063f2fde38b14610605578063f8b1cb3c1461062557600080fd5b8063a0712d6814610516578063a22cb46514610529578063b88d4fde14610549578063c87b56dd1461056957600080fd5b806379575294116100d157806379575294146104905780638da5cb5b146104b057806395d89b41146104ce578063a035b1fe146104e357600080fd5b806358326b7a1461040e5780636352211e1461043b57806370a082311461045b578063715018a61461047b57600080fd5b806323b872dd1161017a578063361c603611610149578063361c60361461038e57806338bd05e0146103ae57806342842e0e146103ce5780634f6ccce7146103ee57600080fd5b806323b872dd146102fb5780632a778c9b1461031b5780632f745c591461034e57806330176e131461036e57600080fd5b8063081812fc116101b6578063081812fc14610285578063095ea7b3146102a557806317f38959146102c757806318160ddd146102dc57600080fd5b806301ffc9a7146101dd57806306fdde031461021257806307fdb4ea14610234575b600080fd5b3480156101e957600080fd5b506101fd6101f8366004611f8c565b610658565b60405190151581526020015b60405180910390f35b34801561021e57600080fd5b50610227610683565b6040516102099190612001565b34801561024057600080fd5b5061026d61024f366004612029565b6001600160a01b039081166000908152600e60205260409020541690565b6040516001600160a01b039091168152602001610209565b34801561029157600080fd5b5061026d6102a0366004612046565b610715565b3480156102b157600080fd5b506102c56102c036600461205f565b61073c565b005b3480156102d357600080fd5b50610227610856565b3480156102e857600080fd5b506008545b604051908152602001610209565b34801561030757600080fd5b506102c561031636600461208b565b610865565b34801561032757600080fd5b507f00000000000000000000000000000000000000000000000000000000000000006102ed565b34801561035a57600080fd5b506102ed61036936600461205f565b610896565b34801561037a57600080fd5b506102c5610389366004612158565b61092c565b34801561039a57600080fd5b506102c56103a93660046121a1565b61094b565b3480156103ba57600080fd5b506102c56103c93660046121c8565b610c2c565b3480156103da57600080fd5b506102c56103e936600461208b565b610c62565b3480156103fa57600080fd5b506102ed610409366004612046565b610c7d565b34801561041a57600080fd5b5061042e610429366004612046565b610d10565b6040516102099190612217565b34801561044757600080fd5b5061026d610456366004612046565b610ddd565b34801561046757600080fd5b506102ed610476366004612029565b610e3d565b34801561048757600080fd5b506102c5610ec3565b34801561049c57600080fd5b506102c56104ab366004612158565b610ed7565b3480156104bc57600080fd5b50600a546001600160a01b031661026d565b3480156104da57600080fd5b50610227610ef2565b3480156104ef57600080fd5b507f00000000000000000000000000000000000000000000000000000000000000006102ed565b6102c5610524366004612046565b610f01565b34801561053557600080fd5b506102c561054436600461226f565b611102565b34801561055557600080fd5b506102c56105643660046122a2565b61110d565b34801561057557600080fd5b50610227610584366004612046565b611145565b34801561059557600080fd5b507f00000000000000000000000000000000000000000000000000000000000000006102ed565b3480156105c857600080fd5b506101fd6105d73660046121c8565b6001600160a01b03918216600090815260056020908152604080832093909416825291909152205460ff1690565b34801561061157600080fd5b506102c5610620366004612029565b6111ac565b34801561063157600080fd5b507f00000000000000000000000000000000000000000000000000000000000000006102ed565b60006001600160e01b0319821663780e9d6360e01b148061067d575061067d82611390565b92915050565b60606000805461069290612322565b80601f01602080910402602001604051908101604052809291908181526020018280546106be90612322565b801561070b5780601f106106e05761010080835404028352916020019161070b565b820191906000526020600020905b8154815290600101906020018083116106ee57829003601f168201915b5050505050905090565b6000610720826113e0565b506000908152600460205260409020546001600160a01b031690565b600061074782610ddd565b9050806001600160a01b0316836001600160a01b0316036107b95760405162461bcd60e51b815260206004820152602160248201527f4552433732313a20617070726f76616c20746f2063757272656e74206f776e656044820152603960f91b60648201526084015b60405180910390fd5b336001600160a01b03821614806107d557506107d581336105d7565b6108475760405162461bcd60e51b815260206004820152603d60248201527f4552433732313a20617070726f76652063616c6c6572206973206e6f7420746f60448201527f6b656e206f776e6572206f7220617070726f76656420666f7220616c6c00000060648201526084016107b0565b610851838361143f565b505050565b6060600b805461069290612322565b61086f33826114ad565b61088b5760405162461bcd60e51b81526004016107b09061235c565b61085183838361152c565b60006108a183610e3d565b82106109035760405162461bcd60e51b815260206004820152602b60248201527f455243373231456e756d657261626c653a206f776e657220696e646578206f7560448201526a74206f6620626f756e647360a81b60648201526084016107b0565b506001600160a01b03919091166000908152600660209081526040808320938352929052205490565b61093461169d565b805161094790600c906020840190611e98565b5050565b6000838152600d6020526040902060085484106109995760405162461bcd60e51b815260206004820152600c60248201526b13d55517d3d197d093d5539160a21b60448201526064016107b0565b6040516331a9108f60e11b81526004810185905233903090636352211e90602401602060405180830381865afa1580156109d7573d6000803e3d6000fd5b505050506040513d601f19601f820116820180604052508101906109fb91906123a9565b6001600160a01b031614610a215760405162461bcd60e51b81526004016107b0906123c6565b600060018083015460ff1690811115610a3c57610a3c612201565b14610a7b5760405162461bcd60e51b815260206004820152600f60248201526e1053149150511657d3555510551151608a1b60448201526064016107b0565b6001600160a01b038381166000908152600e60205260409020541680610b31576040516331a9108f60e11b81526004810184905233906001600160a01b03861690636352211e90602401602060405180830381865afa158015610ae2573d6000803e3d6000fd5b505050506040513d601f19601f82011682018060405250810190610b0691906123a9565b6001600160a01b031614610b2c5760405162461bcd60e51b81526004016107b0906123c6565b610bc4565b6040516331a9108f60e11b81526004810184905233906001600160a01b03831690636352211e906024016020604051808303816000875af1158015610b7a573d6000803e3d6000fd5b505050506040513d601f19601f82011682018060405250810190610b9e91906123a9565b6001600160a01b031614610bc45760405162461bcd60e51b81526004016107b0906123c6565b6001828101805460ff1916828002179055506002820180546001600160a01b0319166001600160a01b0386161790556003820183905560405185907fe0ff833392b9f001daba1da86ad0f9c9ab3f34ddd5a7dc6f7d3dffee0df8110e90600090a25050505050565b610c3461169d565b6001600160a01b039182166000908152600e6020526040902080546001600160a01b03191691909216179055565b6108518383836040518060200160405280600081525061110d565b6000610c8860085490565b8210610ceb5760405162461bcd60e51b815260206004820152602c60248201527f455243373231456e756d657261626c653a20676c6f62616c20696e646578206f60448201526b7574206f6620626f756e647360a01b60648201526084016107b0565b60088281548110610cfe57610cfe6123ed565b90600052602060002001549050919050565b610d18611f1c565b6008548210610d5c5760405162461bcd60e51b815260206004820152601060248201526f1253959053125117d513d2d15397d25160821b60448201526064016107b0565b6000828152600d602090815260409182902082516060810190935280548352600180820154919284019160ff1690811115610d9957610d99612201565b6001811115610daa57610daa612201565b81526040805180820190915260028301546001600160a01b03168152600390920154602083810191909152015292915050565b6000818152600260205260408120546001600160a01b03168061067d5760405162461bcd60e51b8152602060048201526018602482015277115490cdcc8c4e881a5b9d985b1a59081d1bdad95b88125160421b60448201526064016107b0565b60006001600160a01b038216610ea75760405162461bcd60e51b815260206004820152602960248201527f4552433732313a2061646472657373207a65726f206973206e6f7420612076616044820152683634b21037bbb732b960b91b60648201526084016107b0565b506001600160a01b031660009081526003602052604090205490565b610ecb61169d565b610ed560006116f7565b565b610edf61169d565b805161094790600b906020840190611e98565b60606001805461069290612322565b6000610f0c60085490565b90507f00000000000000000000000000000000000000000000000000000000000000008110610f725760405162461bcd60e51b815260206004820152601260248201527113505617d4d55414131657d4915050d2115160721b60448201526064016107b0565b7f0000000000000000000000000000000000000000000000000000000000000000821115610fd45760405162461bcd60e51b815260206004820152600f60248201526e24a72b20a624a22fab22a929a4a7a760891b60448201526064016107b0565b7f000000000000000000000000000000000000000000000000000000000000000034146110335760405162461bcd60e51b815260206004820152600d60248201526c494e56414c49445f46554e445360981b60448201526064016107b0565b61103d3382611749565b60408051606081018252838152600060208083018281528451808601865283815280830184905284860152858352600d90915292902081518155915160018084018054939493909160ff1990911690838181111561109d5761109d612201565b021790555060409182015180516002830180546001600160a01b0319166001600160a01b03909216919091179055602001516003909101555181907f176b02bb2d12439ff7a20b59f402cca16c76f50508b13ef3166a600eb719354a90600090a25050565b610947338383611763565b61111733836114ad565b6111335760405162461bcd60e51b81526004016107b09061235c565b61113f84848484611831565b50505050565b6060611150826113e0565b600061115a611864565b9050600081511161117a57604051806020016040528060008152506111a5565b8061118484611225565b604051602001611195929190612403565b6040516020818303038152906040525b9392505050565b6111b461169d565b6001600160a01b0381166112195760405162461bcd60e51b815260206004820152602660248201527f4f776e61626c653a206e6577206f776e657220697320746865207a65726f206160448201526564647265737360d01b60648201526084016107b0565b611222816116f7565b50565b60606000611232836112b8565b600101905060008167ffffffffffffffff811115611252576112526120cc565b6040519080825280601f01601f19166020018201604052801561127c576020820181803683370190505b5090508181016020015b600019016f181899199a1a9b1b9c1cb0b131b232b360811b600a86061a8153600a850494508461128657509392505050565b60008072184f03e93ff9f4daa797ed6e38ed64bf6a1f0160401b83106112f75772184f03e93ff9f4daa797ed6e38ed64bf6a1f0160401b830492506040015b6d04ee2d6d415b85acef81000000008310611323576d04ee2d6d415b85acef8100000000830492506020015b662386f26fc10000831061134157662386f26fc10000830492506010015b6305f5e1008310611359576305f5e100830492506008015b612710831061136d57612710830492506004015b6064831061137f576064830492506002015b600a831061067d5760010192915050565b60006001600160e01b031982166380ac58cd60e01b14806113c157506001600160e01b03198216635b5e139f60e01b145b8061067d57506301ffc9a760e01b6001600160e01b031983161461067d565b6000818152600260205260409020546001600160a01b03166112225760405162461bcd60e51b8152602060048201526018602482015277115490cdcc8c4e881a5b9d985b1a59081d1bdad95b88125160421b60448201526064016107b0565b600081815260046020526040902080546001600160a01b0319166001600160a01b038416908117909155819061147482610ddd565b6001600160a01b03167f8c5be1e5ebec7d5bd14f71427d1e84f3dd0314c0f7b2291e5b200ac8c7c3b92560405160405180910390a45050565b6000806114b983610ddd565b9050806001600160a01b0316846001600160a01b0316148061150057506001600160a01b0380821660009081526005602090815260408083209388168352929052205460ff165b806115245750836001600160a01b031661151984610715565b6001600160a01b0316145b949350505050565b826001600160a01b031661153f82610ddd565b6001600160a01b0316146115655760405162461bcd60e51b81526004016107b090612432565b6001600160a01b0382166115c75760405162461bcd60e51b8152602060048201526024808201527f4552433732313a207472616e7366657220746f20746865207a65726f206164646044820152637265737360e01b60648201526084016107b0565b6115d48383836001611873565b826001600160a01b03166115e782610ddd565b6001600160a01b03161461160d5760405162461bcd60e51b81526004016107b090612432565b600081815260046020908152604080832080546001600160a01b03199081169091556001600160a01b0387811680865260038552838620805460001901905590871680865283862080546001019055868652600290945282852080549092168417909155905184937fddf252ad1be2c89b69c2b068fc378daa952ba7f163c4a11628f55a4df523b3ef91a4505050565b600a546001600160a01b03163314610ed55760405162461bcd60e51b815260206004820181905260248201527f4f776e61626c653a2063616c6c6572206973206e6f7420746865206f776e657260448201526064016107b0565b600a80546001600160a01b038381166001600160a01b0319831681179093556040519116919082907f8be0079c531659141344cd1fd0a4f28419497f9722a3daafe3b4186f6b6457e090600090a35050565b6109478282604051806020016040528060008152506119b3565b816001600160a01b0316836001600160a01b0316036117c45760405162461bcd60e51b815260206004820152601960248201527f4552433732313a20617070726f766520746f2063616c6c65720000000000000060448201526064016107b0565b6001600160a01b03838116600081815260056020908152604080832094871680845294825291829020805460ff191686151590811790915591519182527f17307eab39ab6107e8899845ad3d59bd9653f200f220920489ca2b5937696c31910160405180910390a3505050565b61183c84848461152c565b611848848484846119e6565b61113f5760405162461bcd60e51b81526004016107b090612477565b6060600c805461069290612322565b61187f84848484611ae7565b60018111156118ee5760405162461bcd60e51b815260206004820152603560248201527f455243373231456e756d657261626c653a20636f6e7365637574697665207472604482015274185b9cd9995c9cc81b9bdd081cdd5c1c1bdc9d1959605a1b60648201526084016107b0565b816001600160a01b03851661194a5761194581600880546000838152600960205260408120829055600182018355919091527ff3f7a9fe364faab93b216da50a3214154f22a0a2b415b23a84c8169e8b636ee30155565b61196d565b836001600160a01b0316856001600160a01b03161461196d5761196d8582611b6f565b6001600160a01b0384166119895761198481611c0c565b6119ac565b846001600160a01b0316846001600160a01b0316146119ac576119ac8482611cbb565b5050505050565b6119bd8383611cff565b6119ca60008484846119e6565b6108515760405162461bcd60e51b81526004016107b090612477565b60006001600160a01b0384163b15611adc57604051630a85bd0160e11b81526001600160a01b0385169063150b7a0290611a2a9033908990889088906004016124c9565b6020604051808303816000875af1925050508015611a65575060408051601f3d908101601f19168201909252611a6291810190612506565b60015b611ac2573d808015611a93576040519150601f19603f3d011682016040523d82523d6000602084013e611a98565b606091505b508051600003611aba5760405162461bcd60e51b81526004016107b090612477565b805181602001fd5b6001600160e01b031916630a85bd0160e11b149050611524565b506001949350505050565b600181111561113f576001600160a01b03841615611b2d576001600160a01b03841660009081526003602052604081208054839290611b27908490612539565b90915550505b6001600160a01b0383161561113f576001600160a01b03831660009081526003602052604081208054839290611b64908490612550565b909155505050505050565b60006001611b7c84610e3d565b611b869190612539565b600083815260076020526040902054909150808214611bd9576001600160a01b03841660009081526006602090815260408083208584528252808320548484528184208190558352600790915290208190555b5060009182526007602090815260408084208490556001600160a01b039094168352600681528383209183525290812055565b600854600090611c1e90600190612539565b60008381526009602052604081205460088054939450909284908110611c4657611c466123ed565b906000526020600020015490508060088381548110611c6757611c676123ed565b6000918252602080832090910192909255828152600990915260408082208490558582528120556008805480611c9f57611c9f612568565b6001900381819060005260206000200160009055905550505050565b6000611cc683610e3d565b6001600160a01b039093166000908152600660209081526040808320868452825280832085905593825260079052919091209190915550565b6001600160a01b038216611d555760405162461bcd60e51b815260206004820181905260248201527f4552433732313a206d696e7420746f20746865207a65726f206164647265737360448201526064016107b0565b6000818152600260205260409020546001600160a01b031615611dba5760405162461bcd60e51b815260206004820152601c60248201527f4552433732313a20746f6b656e20616c7265616479206d696e7465640000000060448201526064016107b0565b611dc8600083836001611873565b6000818152600260205260409020546001600160a01b031615611e2d5760405162461bcd60e51b815260206004820152601c60248201527f4552433732313a20746f6b656e20616c7265616479206d696e7465640000000060448201526064016107b0565b6001600160a01b038216600081815260036020908152604080832080546001019055848352600290915280822080546001600160a01b0319168417905551839291907fddf252ad1be2c89b69c2b068fc378daa952ba7f163c4a11628f55a4df523b3ef908290a45050565b828054611ea490612322565b90600052602060002090601f016020900481019282611ec65760008555611f0c565b82601f10611edf57805160ff1916838001178555611f0c565b82800160010185558215611f0c579182015b82811115611f0c578251825591602001919060010190611ef1565b50611f18929150611f61565b5090565b6040805160608101909152600080825260208201908152602001611f5c604051806040016040528060006001600160a01b03168152602001600081525090565b905290565b5b80821115611f185760008155600101611f62565b6001600160e01b03198116811461122257600080fd5b600060208284031215611f9e57600080fd5b81356111a581611f76565b60005b83811015611fc4578181015183820152602001611fac565b8381111561113f5750506000910152565b60008151808452611fed816020860160208601611fa9565b601f01601f19169290920160200192915050565b6020815260006111a56020830184611fd5565b6001600160a01b038116811461122257600080fd5b60006020828403121561203b57600080fd5b81356111a581612014565b60006020828403121561205857600080fd5b5035919050565b6000806040838503121561207257600080fd5b823561207d81612014565b946020939093013593505050565b6000806000606084860312156120a057600080fd5b83356120ab81612014565b925060208401356120bb81612014565b929592945050506040919091013590565b634e487b7160e01b600052604160045260246000fd5b600067ffffffffffffffff808411156120fd576120fd6120cc565b604051601f8501601f19908116603f01168101908282118183101715612125576121256120cc565b8160405280935085815286868601111561213e57600080fd5b858560208301376000602087830101525050509392505050565b60006020828403121561216a57600080fd5b813567ffffffffffffffff81111561218157600080fd5b8201601f8101841361219257600080fd5b611524848235602084016120e2565b6000806000606084860312156121b657600080fd5b8335925060208401356120bb81612014565b600080604083850312156121db57600080fd5b82356121e681612014565b915060208301356121f681612014565b809150509250929050565b634e487b7160e01b600052602160045260246000fd5b81518152602082015160808201906002811061224357634e487b7160e01b600052602160045260246000fd5b80602084015250604083015160018060a01b038151166040840152602081015160608401525092915050565b6000806040838503121561228257600080fd5b823561228d81612014565b9150602083013580151581146121f657600080fd5b600080600080608085870312156122b857600080fd5b84356122c381612014565b935060208501356122d381612014565b925060408501359150606085013567ffffffffffffffff8111156122f657600080fd5b8501601f8101871361230757600080fd5b612316878235602084016120e2565b91505092959194509250565b600181811c9082168061233657607f821691505b60208210810361235657634e487b7160e01b600052602260045260246000fd5b50919050565b6020808252602d908201527f4552433732313a2063616c6c6572206973206e6f7420746f6b656e206f776e6560408201526c1c881bdc88185c1c1c9bdd9959609a1b606082015260800190565b6000602082840312156123bb57600080fd5b81516111a581612014565b6020808252600d908201526c24a72b20a624a22fa7aba722a960991b604082015260600190565b634e487b7160e01b600052603260045260246000fd5b60008351612415818460208801611fa9565b835190830190612429818360208801611fa9565b01949350505050565b60208082526025908201527f4552433732313a207472616e736665722066726f6d20696e636f72726563742060408201526437bbb732b960d91b606082015260800190565b60208082526032908201527f4552433732313a207472616e7366657220746f206e6f6e20455243373231526560408201527131b2b4bb32b91034b6b83632b6b2b73a32b960711b606082015260800190565b6001600160a01b03858116825284166020820152604081018390526080606082018190526000906124fc90830184611fd5565b9695505050505050565b60006020828403121561251857600080fd5b81516111a581611f76565b634e487b7160e01b600052601160045260246000fd5b60008282101561254b5761254b612523565b500390565b6000821982111561256357612563612523565b500190565b634e487b7160e01b600052603160045260246000fdfea164736f6c634300080e000aa164736f6c634300080e000a",
  "devdoc": {
    "author": "Maxime Aubanel - @sshmaxime",
    "kind": "dev",
    "methods": {
      "createDrop(uint256,uint256,uint8)": {
        "details": "Create a DROP."
      },
      "drop(uint256)": {
        "details": "Return the DROP item matching the drop id."
      },
      "owner()": {
        "details": "Returns the address of the current owner."
      },
      "renounceOwnership()": {
        "details": "Leaves the contract without owner. It will not be possible to call `onlyOwner` functions anymore. Can only be called by the current owner. NOTE: Renouncing ownership will leave the contract without an owner, thereby removing any functionality that is only available to the owner."
      },
      "totalSupply()": {
        "details": "Return the current supply."
      },
      "transferOwnership(address)": {
        "details": "Transfers ownership of the contract to a new account (`newOwner`). Can only be called by the current owner."
      }
    },
    "title": "Store",
    "version": 1
  },
  "userdoc": {
    "kind": "user",
    "methods": {},
    "version": 1
  },
  "storageLayout": {
    "storage": [
      {
        "astId": 7,
        "contract": "contracts/Store.sol:Store",
        "label": "_owner",
        "offset": 0,
        "slot": "0",
        "type": "t_address"
      },
      {
        "astId": 3503,
        "contract": "contracts/Store.sol:Store",
        "label": "dropIdToDrop",
        "offset": 0,
        "slot": "1",
        "type": "t_mapping(t_uint256,t_contract(Drop)3487)"
      },
      {
        "astId": 3506,
        "contract": "contracts/Store.sol:Store",
        "label": "TOTAL_SUPPLY",
        "offset": 0,
        "slot": "2",
        "type": "t_uint256"
      }
    ],
    "types": {
      "t_address": {
        "encoding": "inplace",
        "label": "address",
        "numberOfBytes": "20"
      },
      "t_contract(Drop)3487": {
        "encoding": "inplace",
        "label": "contract Drop",
        "numberOfBytes": "20"
      },
      "t_mapping(t_uint256,t_contract(Drop)3487)": {
        "encoding": "mapping",
        "key": "t_uint256",
        "label": "mapping(uint256 => contract Drop)",
        "numberOfBytes": "32",
        "value": "t_contract(Drop)3487"
      },
      "t_uint256": {
        "encoding": "inplace",
        "label": "uint256",
        "numberOfBytes": "32"
      }
    }
  }
}